:020000040800F2
:1000000010080020C5010008CD010008A10D00085E
:10001000D1010008D3010008D5010008000000004C
:10002000000000000000000000000000D7010008F0
:10003000D901000800000000DB010008DD01000814
:10004000DF010008DF010008DF010008DF01000810
:10005000DF010008DF010008DF010008DF01000800
:10006000DF010008DF010008DF0100089D0800082B
:10007000DF010008DF010008DF010008DF010008E0
:10008000DF010008DF010008DF01000800000000B8
:10009000000000000000000000000000DF01000878
:1000A000DF01000815100008DF010008DF0100086B
:1000B000DF01000885100008F1110008DF010008C9
:1000C000DF010008DF010008DF010008DF01000890
:1000D000DF01000871150008DF010008DF010008DA
:1000E000DF010008DF010008DF0100080000000058
:1000F0000000000000000000000000000000000000
:1001000000000000000000000000000000000000EF
:100110000000000000000000DF010008411200089C
:1001200000F002F800F03FF80AA090E8000C8244CA
:100130008344AAF10107DA4501D100F034F8AFF2A7
:10014000090EBAE80F0013F0010F18BFFB1A43F0B5
:10015000010318477C4700009C470000103A24BF69
:1001600078C878C1FAD8520724BF30C830C144BF1C
:1001700004680C607047000000230024002500265E
:10018000103A28BF78C1FBD8520728BF30C148BFFA
:100190000B607047642900F07180002070471FB524
:1001A0001FBD10B510BD00F02EFA1146FFF7F7FF86
:1001B00001F088FD00F04CFA03B4FFF7F2FF03BC36
:1001C00000F054FA0948804709480047FEE7FEE777
:1001D000FEE7FEE7FEE7FEE7FEE7FEE7FEE7FEE7F7
:1001E00004480549054A064B70470000E90E00081F
:1001F0002101000810020020100800201004002037
:10020000100400200FB41CB5074B06AA7B446946B6
:100210000090059800F0BDF90020694600F0CCF987
:100220001CBC5DF814FB0000A903000070B5044677
:1002300085690068C10601D5302600E02026C00788
:1002400007D070BDD4E9012130469047206A401C98
:1002500020626D1EF6D570BD70B5044685690078C4
:10026000C00707D170BDD4E9012120209047206A42
:10027000401C20626D1EF6D570BD00002DE9F041D6
:100280000646002410687529314616A510D0AFF334
:100290000080002802DA404213A507E031688A078F
:1002A00001D512A502E0490704D511A5012401E0FA
:1002B000AFF3008000210A2206F1240709E0B0FB19
:1002C000F2FCB0FBF2F302FB1C003030785418460D
:1002D000491C0028F3D123462A463046BDE8F041A8
:1002E00000F0F9B8000000002D0000002B00000015
:1002F000200000002DE9F05F894604464FF0000A17
:10030000DFF824B1FB44C0F820A02046E16888470C
:1003100000287DD0252806D0D4E901219047206A05
:10032000401C2062F1E700255F462046E1688847CF
:100330002028064607DB312E05D2B81910F8200C0C
:1003400008B10543F1E7A80701D525F00405C4F875
:100350001CA00027C4F818A02A2E09D0304602F0AD
:1003600043FA38B304EB8708303EC8F8186019E048
:1003700059F8041B204604EB87029161E168884725
:10038000012F064618D1E069002820DA25F0200563
:100390001DE0D8F8180000EB800006EB4000303874
:1003A000C8F818002046E1688847064602F01CFAA3
:1003B0000028EED1012F0AD02E2E08D12046E16868
:1003C00088477F1C0646022F45F02005C4DBA06944
:1003D000002803DA404245F00105A061E80701D09A
:1003E00025F01005A6B1A6F14100192802D8203643
:1003F00045F400654A463146204625604D46FFF7E4
:10040000C9FE60B1012807D0ED1D25F0070000E00E
:1004100007E000F1080978E705F1040975E73046BF
:100420007AE7206ABDE8F09FEE2400004FF000025A
:1004300000B5134694469646203922BFA0E80C50DA
:10044000A0E80C50B1F12001BFF4F7AF090728BFB5
:10045000A0E80C5048BF0CC05DF804EB890028BF31
:1004600040F8042B08BF704748BF20F8022B11F05A
:10047000804F18BF00F8012B704710B5044610F0EC
:10048000030F08BF11F0030F40F015804FF0013E3D
:10049000121FC0F20E8051F8043BA3EB0E0C2CEAA5
:1004A000030C1CEACE1C08BF40F8043BF0D0A1F1BD
:1004B000040102F10402521E08DB11F8013B00F8AE
:1004C000013B002BF7D1114600F07BF8204610BD10
:1004D0007047704770472DE9F0470D4699469246A0
:1004E000044600F124080168880604D5E06921F07B
:1004F0001001216000E00120A84201DD471B00E05F
:100500000027A1697A1902EB0900081AA061207876
:10051000C00602D42046FFF789FE002608E0D4E991
:1005200001211AF806009047206A401C761C2062C0
:100530004E45F4DB2078C0060AD52046FFF776FE4C
:1005400006E0D4E9012130209047206A401C206257
:10055000381EA7F10107F4DC07E0D4E9012118F8FF
:1005600005009047206A401C2062281EA5F1010565
:10057000F3DC2046FFF770FE2078000602D502204B
:10058000BDE8F0870120FBE701694A1C0261087899
:10059000704700B58FB0CDE90131002105910549C3
:1005A0007944CDE9031011466846FFF7A3FE0FB06A
:1005B00000BD0000E5FFFFFF0A6802F8010B0A60BA
:1005C00070474FF000020429C0F0128010F0030CB5
:1005D0003FF42EAFCCF1040CBCF1020F18BF00F8B1
:1005E000012BA8BF20F8022BA1EB0C01FFF720BFC5
:1005F0005FEAC17C24BF00F8012B00F8012B48BF43
:1006000000F8012B7047754600F02CF8AE46050047
:100610006946534620F00700854618B020B5FFF71D
:10062000DFFDBDE820404FF000064FF000074FF01F
:1006300000084FF0000BAC46ACE8C009ACE8C009BC
:10064000ACE8C009ACE8C00921F007018D4670474D
:1006500010B50446AFF300802046BDE81040FFF718
:10066000ABBD000000487047080100200149182078
:10067000ABBEFEE72600020070470000826800293A
:1006800022F0010218BF013282607047826800299F
:1006900022F4807218BF02F58072826070470000F9
:1006A0008068C0F3800070478068C0F3C000704766
:1006B00080B542684FF6FF63CFF6F07302EA030C91
:1006C0000B680A7943EA0C0343EA0222426082681B
:1006D0004FF2FD73CFF6F17302EA030CD1E902E2A7
:1006E0004B7942EA0C0242EA0E0242EA430282607D
:1006F000C26A097C22F470020139C9B242EA01518E
:10070000C16280BDB0B501EB410C4FF0100E09295C
:1007100088BFACF11E0C88BF4FF00C0E50F80E4095
:10072000072505FA0CF5AC4303FA0CF32343062A1C
:1007300040F80E3004D834306FF0040308E000BFF6
:100740000C2A87BF2C306FF0400330306FF022034B
:1007500002EB820205681A441F23934025EA030333
:10076000914019430160B0BD816841F0080181608A
:10077000704700008268002922F4A00218BF02F529
:10078000A002826070470000816841F0040181602E
:1007900070470000002101608180C0E90211012141
:1007A0000174704742F20841C4F201010A6800284E
:1007B00022F4000218BF02F500020A607047000030
:1007C00010B51B2001F002FA5B2001F0FFF9322086
:1007D00001F0FCF94A2001F0F9F901F0E9FF40F2DB
:1007E000E504C2F2000420783521A17001F0EEF991
:1007F000607801F0EBF9A07801F0E8F9BDE810406D
:1008000001F0D6BF70B561B142F61B060C46451E1D
:10081000C0F6000615F8010F305C01F0D7F9013C75
:10082000F8D1BDE8704001F0C3BF0000B0B582B0A0
:1008300044F6AC050C463121C0F60005ADF80610B3
:10084000ADF80410421C0DF106002946FFF7DAFC52
:10085000621C01A82946FFF7D5FC9DF8060040F26E
:10086000F404C2F2000420719DF804102078A170F5
:1008700001F0ACF9607801F0A9F9A07801F0A6F9CF
:10088000E07801F0A3F9207901F0A0F9607901F096
:100890009DF902B0BDE8B04001F08ABFB0B50420B8
:1008A000C4F20200022140F2701340F2F20C016027
:1008B000C2F20003C2F2000C1988BCF8002040F21A
:1008C000001E1144C2F2000E88B25988BEF80040E2
:1008D0004208214440F28614C2F20004ACF8002021
:1008E0008AB29B8825885108AEF80010E91889B2B1
:1008F0004908B0F57A6F218024BF40F2CF70ACF880
:100900000000B2F57A6F24BF40F2CF70AEF800005D
:10091000B0BD000002684FF6FE7C42F001030029E2
:1009200008BF02EA0C03036070470000002A026857
:100930000CBF22EA01011143016070472DE9F04725
:10094000026847F6F073D1E9026A9A4301F1100791
:10095000B0CF01F11C0E3243D1E900899EE80A5064
:100960001A4322432A433A43114341EA0C0141EA24
:100970000E010160C0F804A0C0F80880C0F80C9017
:10098000BDE8F08780B52C21FFF750FD80BD000049
:10099000B0B5CB7803F00F0CDA0644BF8A784CEA86
:1009A000020C09885FEA016E00F0F0800268282BD3
:1009B00016D0482B2ED1CC075ED18C0764D44C07BF
:1009C0006AD40C0770D4CC0677D48C0600F17E80F4
:1009D0004C0600F18480BEF1000F00F18980D4E064
:1009E000CC0740F08D808C0700F193804C0700F11C
:1009F00099800C0700F19F80CC0600F1A5808C0641
:100A000000F1AB804C0600F1B180BEF1000F00F1A7
:100A1000B680BAE022F00F04CD0718BF44EA0C02FA
:100A200022F0F0048D0748BF44EA0C1222F47064EF
:100A30004D0748BF44EA0C2222F470440D0748BF1A
:100A400044EA0C3222F47024CD0648BF44EA0C423A
:100A500022F470048D0648BF44EA0C5222F0706400
:100A60004D0648BF44EA0C62BEF1000F44BF22F0BD
:100A7000704242EA0C7288E022F00F0242EA0C0255
:100A8000012404618C079AD522F0F00242EA0C128C
:100A9000022404614C0794D522F4706242EA0C22CD
:100AA000042404610C078ED522F4704242EA0C3211
:100AB00008240461CC067FF588AF22F4702242EA54
:100AC0000C42102404618C067FF582AF22F4700280
:100AD00042EA0C52202404614C067FF57CAF22F0E0
:100AE000706242EA0C6240240461BEF1000F4CD5F2
:100AF00022F07042802542EA0C72056145E000BF99
:100B000022F00F0242EA0C02012444618C077FF5B7
:100B10006DAF22F0F00242EA0C12022444614C074D
:100B20007FF567AF22F4706242EA0C22042444612C
:100B30000C077FF561AF22F4704242EA0C320824C0
:100B40004461CC067FF55BAF22F4702242EA0C428E
:100B5000102444618C067FF555AF22F4700242EAFE
:100B60000C52202444614C067FF54FAF22F0706296
:100B700042EA0C6240244461BEF1000F05D522F028
:100B80007042802542EA0C7245610260B1F5807FB7
:100B900038BFB0BD4268282B16D0482B2CD1CB05CE
:100BA0005CD48B0563D44B056AD40B0571D4CB049C
:100BB00079D48B0400F181804B0400F18880090412
:100BC00000F18F804260B0BDCB0500F193808B05B2
:100BD00000F19A804B0500F1A1800B0500F1A8807F
:100BE000CB0400F1AF808B0400F1B6804B0400F120
:100BF000BD800904E6D5C3E022F00F03CD0548BF50
:100C000043EA0C0222F0F0038D0548BF43EA0C12C0
:100C100022F470634D0548BF43EA0C2222F470436E
:100C20000D0548BF43EA0C3222F47023CD0448BFBF
:100C300043EA0C4222F470038D0448BF43EA0C528D
:100C400022F070634D0448BF43EA0C62090444BFBC
:100C500022F0704141EA0C724260B0BD22F00F02F6
:100C600042EA0C024FF4807303618B059BD522F09E
:100C7000F00242EA0C124FF4007303614B0594D565
:100C800022F4706242EA0C224FF4806303610B0588
:100C90008DD522F4704242EA0C324FF400630361B6
:100CA000CB047FF586AF22F4702242EA0C424FF467
:100CB000805303618B047FF57FAF22F4700242EA18
:100CC0000C524FF4005303614B047FF578AF22F0D0
:100CD000706242EA0C624FF48043036109047FF5BD
:100CE00071AF22F0704141EA0C724FF40041016192
:100CF0004260B0BD22F00F0242EA0C024FF4807352
:100D000043618B057FF566AF22F0F00242EA0C12D8
:100D10004FF4007343614B057FF55FAF22F47062BF
:100D200042EA0C224FF4806343610B057FF558AF14
:100D300022F4704242EA0C324FF400634361CB0468
:100D40007FF551AF22F4702242EA0C424FF48053F7
:100D500043618B047FF54AAF22F4700242EA0C52E1
:100D60004FF4005343614B047FF543AF22F07062B0
:100D700042EA0C624FF48043436109047FF522AFDD
:100D800022F0704141EA0C724FF40041416142602F
:100D9000B0BD00004FF6FF71C0F202410160704724
:100DA00000F0A2FC10B5C17800294EF20011CEF27D
:100DB00000011BD04EF60C52CEF20002126807233F
:100DC00023EA12220F23C2F1040C23FA02F2437821
:100DD000847890F800E003FA0CF322401A431201E1
:100DE00001EB0E0383F8002301E000BF803100789F
:100DF000012300F01F0203FA02F2C0F3421041F88F
:100E0000202010BD002941F21401C4F202010A6839
:100E10000CBF22EA0000104308607047002941F22D
:100E20001C01C4F202010A680CBF22EA0000104350
:100E300008607047002941F21801C4F202010A68F3
:100E40000CBF22EA000010430860704710B541F261
:100E50000404C4F20204226802F00C02082A41F2DF
:100E60000022C0F27A0219D12368D4F800C0C3F37B
:100E7000834E5FEACC330EF1020C07D440F6001229
:100E8000C0F23D020CFB02F208E000BFA36A03F0CF
:100E90000F030133B2FBF3F202FB0CF20260236892
:100EA00042F60B01C3F30313C0F60001CB5CDA403A
:100EB00042602368C3F30223CB5C22FA03F383600E
:100EC0002368C3F3C223C95C42F6070322FA01F187
:100ED000C1602268C0F60003C2F381329A5CB1FBA4
:100EE000F2F1016110BD000082B041F20400C4F2D1
:100EF000020050F8041C002241F0010140F8041CDB
:100F00000168CFF6FF021140016050F8041C4FF653
:100F1000FF72CFF6F662114040F8041C50F8041C32
:100F200021F4802140F8041C016821F4FE010160D5
:100F30004FF41F014160002181620191009150F83E
:100F4000041C41F4803140F8041C00BF50F8041C1C
:100F500001F400310091019901310191009919B911
:100F60000199B1F5A06FF1D150F8041C890354BF69
:100F70000021012100910099012941D101680160FE
:100F80000168016001680160016821F47C11016061
:100F9000016841F49811016050F8041C41F080711F
:100FA00040F8041C50F8041C89015FBF50F8041C71
:100FB0005FEA811150F8041C5FEA811103D450F8F4
:100FC000041C8901EED5016821F00301016001686C
:100FD00041F00201016000BF016801F00C01082925
:100FE0000ED0016801F00C01082909D0016801F058
:100FF0000C01082904D0016801F00C010829EBD18B
:101000004EF60850CEF200004FF00061016002B0D1
:101010007047000042F61040C4F20100018821F040
:101020000101018040F20821C2F200010A782AB3CE
:1010300044F20001C4F201010A8840F2021322F0D6
:1010400001020A80B1F84420C2F200036FF3DF32DC
:10105000A1F844204FF49671198040F2B611C2F203
:1010600000010B7840F20E2CC2F2000C002283F03B
:1010700001038CF800200B708282704701200870F9
:1010800070470000F0B581B040F21040C4F200009B
:10109000018821F0010101800021818240F26C1160
:1010A000C2F200010878002842D040F20E22C2F2BB
:1010B000000210784B88002804BF01334B809BB29C
:1010C000642B08D10120107040F2B612C2F2000267
:1010D000002313704B8040F20D2140F60C42C2F207
:1010E0000001C4F2010209781368002923F04003CB
:1010F00040F2841108BF40331360C2F20001097846
:101100001368002923F0200340F2901108BF203318
:101110001360C2F2000109781368002923F0040368
:1011200008BF0433136038B101F020FA06E000BFB5
:101130000120087001B0F0BD01F056FA40F29210A3
:10114000C2F20000007818B101F0D2F902E000BF4D
:1011500001F026FA40F2E410C2F20000007818B163
:1011600001F0F4F902E000BF01F02CFA40F2F207BE
:10117000C2F2000740F294143A88C2F2000440F22E
:10118000B411C2F20001204600F090FD40F20016BA
:10119000C2F2000640F2E6153288C2F2000540F2C3
:1011A0000621C2F20001284600F080FD204600F032
:1011B0005BFD3A8840F2EC01C2F20001012300F02D
:1011C000A9FA00F073FE284600F04EFD328840F286
:1011D000FA01C2F20001002300F09CFA00F082FE46
:1011E00000F020FD01B0BDE8F04000F097BE000027
:1011F00040F61000C4F20000018821F001010180D6
:101200000021818240F20C20C2F20000017899B1E5
:1012100040F2B61040F60C41C2F20000C4F20101E7
:1012200000780A68002822F4805218BF02F5805224
:101230000A6001F0EBB900BF0121017070470000A6
:1012400080B541F21040C4F20000018821F0010194
:1012500001800021818240F26A10C2F20000017810
:10126000B1B1417881F00102427040F60C40C4F205
:1012700001000268002922F4806208BF02F5806242
:10128000026000F0E7FBBDE8804000F01DBC00BF3D
:101290000121017080BD0000C94301827047000038
:1012A0000288002918BF012122F0010211440180A7
:1012B00070470000B0F808C011435FFA8CFC41EAA7
:1012C000032141EA0C010181018941F4804101813E
:1012D00070470000002A82890CBF22EA01011143F5
:1012E00081817047B0B5028C22F001020284038C28
:1012F0008288B0F818C00C8923F002032343A0F1C0
:1013000080444D88A4F59634B1F800E04FEAB42447
:10131000072C43EA050313D8012505FA04F414F059
:10132000E50F0DD04C8923F00C0324F004048D88C4
:1013300023438C892B4322F44072CD8922432A43D4
:101340002CF0730545EA0E0582800583C9888186E5
:101350000384B0BDB0B5028C43F2004422F0100209
:101360000284028C8588B0F818C00B8922F0200214
:1013700042EA03124B88C4F20104B1F800E0A04233
:1013800042EA031205D042F60043C4F20103984238
:1013900012D14B896FF0400422F0C00204EA03131B
:1013A0008C881A4342EA04128C8925F44063CD8963
:1013B00043EA840343EA85052CF4E64343EA0E231B
:1013C00085800383C98801870284B0BDB0B5028CD3
:1013D00043F2004422F480720284028C8588B0F8C3
:1013E0001CC00B8922F4007242EA03224B88C4F22B
:1013F0000104B1F800E0A04242EA032205D042F61F
:101400000043C4F20103984212D14B8940F2FF44D9
:101410001B0222F44062A3438C881A4342EA04224E
:101420008C8925F44053CD8943EA041343EA05151A
:101430002CF0730343EA0E0385808383C988818778
:101440000284B0BD70B5028C43F2004622F4805293
:101450000284048C8288838BB1F800E00D89B1F896
:1014600002C0C4F20106B04205D042F60046C4F202
:101470000106B04204D18E8922F4804242EA8612EB
:1014800023F4E64343EA0E2324F40054828083834A
:1014900044EA0534C98844EA0C32A0F840100284BA
:1014A00070BD00000021C160816041600160704733
:1014B00040F6FF33B0F800C0C4F2000398420FDCDE
:1014C000B0F1804F1ED040F20043C4F200039842B6
:1014D00018D040F60003C4F20003984212D016E080
:1014E00040F60043C4F2000398420BD043F200439D
:1014F000C4F20103984205D042F60043C4F201034E
:10150000984204D14B882CF0700243EA020C41F25D
:10151000004240F48063C4F20002934204D0CA88BF
:101520002CF4407342EA030CA0F800C08A8882853C
:10153000A0F18042A2F596320B884FEAB222072A28
:10154000038507D8012303FA02F212F0E50F1CBF4E
:10155000097A018601218182704700000022002162
:10156000CFF6FF720180C180C0F80220017270477F
:1015700070B540F26815C2F20005687843F60004C1
:10158000C4F2010450B32088400612D501262E7003
:1015900000F00CFB68B90020287040F20000C2F295
:1015A000000080F8E46000F01FFB0146204600F0D8
:1015B0008DF840F60C41C4F2010128780A68002831
:1015C00022F4006218BF02F500620A60204640F271
:1015D0002661BDE8704000F00BB800BF01206870C4
:1015E000204640F22661BDE8704000F001B80000DE
:1015F000090A012202FA01F1C94301807047000083
:101600008289002918BF012122F4005242EA4131A7
:101610008181704770B586B00446008A0D46C9883E
:1016200020F4405008432082A0894EF6F311084070
:10163000A9882A896B89084310431843A081A08A8E
:10164000A98920F44070084301AEA0823046FFF71C
:10165000FDFB43F6000106F10800C4F201018C42D3
:1016600008BF06F10C0000681922B4F90C105043B1
:101670002A680123B1F1FF3FC8BF022302FA03F138
:10168000B0FBF1F048F21F51C5F2EB11A0FB0123B2
:101690005A096FF0630302FB0300B4F90C30032610
:1016A000B3F1FF3FC8BF042600FA06F000F1320094
:1016B000A0FB01014FF00700C8BF0F2000EA511046
:1016C00040EA0210208106B070BD00006FF35F2178
:1016D000818070474FF4165100224FF4402380E878
:1016E0000E008281704700004EF60C50BFF34F8F02
:1016F000CEF200000168042201F4E061C0F2FA5267
:1017000011430160BFF34F8F00BF00BF00BF00BF98
:10171000FAE7000010B5B0F5FA6F09D343B10888B5
:1017200043F6E401C0F6000101EB4000008810BD63
:10173000B1F800C0B0F5FA6F08D33BB942F61C10FF
:10174000C0F6000000EB4C00008810BD63B140F211
:10175000931EC2F2000E9EF80030BCF5E16F11D965
:1017600083B90023012414E040F2E51EC2F2000E0A
:101770004FEA9C049EF800307C2C21D803BB002348
:10178000012423E04FEADC04E02C09D843B1012313
:1017900000248EF8004040F29214C2F2000423703C
:1017A000844525D1088040F29110C2F20000002249
:1017B000027040F2B510C2F200000270AFE700BF45
:1017C000BCF5FA7F09D943B1012300248EF800400B
:1017D00040F2E414C2F200042370844548D108802A
:1017E00042F61C11C0F6000101EB4000008810BD5C
:1017F00000F2848040F2EE0EC2F2000EBEF900400C
:101800006444B4F5FA6F79DABCEB020248BF524285
:1018100048F21F5492B2C5F2EB14A2FB0424FC233D
:10182000C4F3071203EA141343F6BC04C0F6000421
:10183000132B88BF132240F2911334F81240C2F2E6
:1018400000031A70AEF800400A8840F2CF7C2244B0
:1018500093B2634538BF9446A1F800C0BEF900209A
:101860001FFA8CF31A448242A8BF844687E000BF67
:1018700000F2A08040F2FC03C2F20003B3F9003092
:101880006344B3F5FA6F80F29580B2EB0C0248BF67
:10189000524248F21F5392B2C5F2EB13A2FB03234C
:1018A000FC24C3F3071204EA1313132B40F207239B
:1018B000C2F2000388BF13221A7044F68403C0F6F4
:1018C000000333F8122040F2FE03C2F200031A8034
:1018D0000C8804EB020C1FFA8CF212097C2A88BFD8
:1018E0004FF0000CA1F800C0B3F900201FFA8CF3F0
:1018F0009A1A8242D8BF844698E000BF844540D3FC
:1019000040F2EE03C2F20003B3F900309C4538DD2B
:10191000B2EB0C0248BF524248F21F5392B2C5F2DA
:10192000EB13A2FB0323FC24C3F3071204EA1313F3
:10193000132B40F2B513C2F2000388BF13221A70B2
:1019400044F68403C0F6000333F8122040F2F0039B
:10195000C2F200031A800C8804EB020C1FFA8CF20E
:1019600012097C2A88BF4FF0000CA1F800C0B3F91F
:1019700000201FFA8CF31A448242D8BF8446A1F893
:1019800000C043F6E4021FFA8CF0C0F600024FF6E6
:10199000846302EB4000CFF6FF73C05A40F2E803C5
:1019A000C2F200031880088802EB4000A0F5BE7068
:1019B000008810BD84453BD340F2FC0EC2F2000EFD
:1019C000BEF90040A44533DDBCEB020248BF5242E1
:1019D00048F21F5492B2C5F2EB14A2FB0424FC237C
:1019E000C4F3071203EA141343F6BC04C0F6000460
:1019F000132B88BF132240F2E31334F81240C2F2D3
:101A000000031A70AEF800400A8840F2CF7C2244EE
:101A100093B2634538BF9446A1F800C0BEF90020D8
:101A20001FFA8CF31A448242A8BF8446A1F800C072
:101A300042F61C121FFA8CF0C0F6000232F81000B9
:101A400040F2EA03C2F200031880088802EB40006B
:101A5000008810BD40F60C01C4F2010140F2B7123B
:101A600051F8040CC2F20002137840F60C4CC00787
:101A7000C4F2010C10D07BB901201070086840F44A
:101A800080700860086820F400600860DCF80000DE
:101A900040F4004115E000BF51F8040C9BB110F078
:101AA000010018BF704700201070086820F4807093
:101AB0000860086840F400600860DCF8000020F46A
:101AC0000041CCF80010704741F20840C4F2010018
:101AD00040F2B8110368C2F200010A785B0723D50F
:101AE00012B30020087040F20D21C2F2000108700C
:101AF00040F28411C2F20001087040F20E21C2F2DD
:101B00000001087040F2B611C2F20001087044F200
:101B10002401C4F20101088040F20211C2F2000166
:101B20004FF4AF620A8018E00068002A08BF10F086
:101B3000040001D0704700BF0120087040F20D2161
:101B4000C2F20001087040F28411C2F20001087074
:101B500040F20E21C2F20001087040F29011C2F270
:101B60000001087070470000B0B541F22405C4F2CE
:101B7000000504460021284620F824190121FFF71A
:101B80008FFB00BF2888A04208D22888A04205D237
:101B90002888A04202D22888A042F3D3A5F12400CD
:101BA0000021BDE8B040FFF77BBB000040F2000120
:101BB000C2F2000191F8E2000028B0FA80F04FEA8A
:101BC000501004BF002281F8E420704740F2000169
:101BD000C2F2000191F8E220885491F8E20001304D
:101BE00081F8E2007047000040F20001C2F20001FB
:101BF00091F8E0004FF0000C085C91F8E03001F83B
:101C000003C091F8E03091F8E220934202BF81F8DE
:101C1000E0C081F8E2C0704791F8E020013281F81D
:101C2000E020704740F20E20C2F200000078B8B108
:101C300040F2041040F20211C2F20000C2F20001B0
:101C400090F9003040F206100A88C2F200000088C5
:101C5000D21A8242C8BF1046088080B2704700BFC7
:101C60004FF6FF7080B2704701884288C3881144E4
:101C70008288114402891944438911448289194494
:101C8000C3891144028A1944438A1144828A19443F
:101C9000C38A1144028B1944438B1144828B19442B
:101CA000C08B11440844C0F30F1070470B78102B01
:101CB00024BF00230B7020F813200878013008702F
:101CC000704700008CB040F20000C2F20000DF213B
:101CD00042F2004480F8E110E0210026C4F2010441
:101CE00080F8E31080F8E46080F8E26000F0C4F966
:101CF00000F0D4FB00F0FEFA00F078FA00F026F9CC
:101D000000F042FA00F05EFB00F09AFB00F07EF972
:101D100000F022FB00F0BAFA01200121FFF77EF863
:101D200009AD2846FFF71AFC182009904FF480608F
:101D30000A904FF0804029468DF82C60FFF7B8FBE1
:101D400005AD2846FFF7AEFB6020C0F2010005900C
:101D50004FF48070ADF81A004FF080402946FFF72D
:101D6000F9FA4FF080402946FFF730FB4FF08040F2
:101D70002946FFF767FB00F009F94FF400700121D5
:101D8000FFF758F86D462846FEF704FD4FF4602033
:101D9000029004208DF8100040F20110ADF804000C
:101DA0002046294603960096FEF782FC2046042131
:101DB00001220723FEF7A6FC204605210222072365
:101DC000FEF7A0FC2046102103220723FEF79AFC11
:101DD0002046112104220723FEF794FC204601210E
:101DE000FEF74CFC20460121FEF750FC0120FEF7D7
:101DF000D9FC2046FEF7B8FC2046FEF755FC00282B
:101E0000FAD12046FEF7C0FC2046FEF749FC002828
:101E1000FAD1204601210125FEF730FC20460121A0
:101E2000FEF734FC20460121FEF7A4FC4FF0804071
:101E30000121FFF735FA04F5A05420460121FFF7F0
:101E4000DFFB40F20410C2F200001221017040F2E8
:101E50000610C2F200005021018040F29210C2F23E
:101E60000000057040F2E410C2F200000570204648
:101E70000121FFF7C5FB40F20210C2F2000000880A
:101E800000F04CF8A620FFF76FFEFEF799FC00F07B
:101E900049FB00F03DFB00F04FFB00F077FB40F208
:101EA0000E20C2F200000570FEE7000044F6240197
:101EB000C4F201010A880A89824208BF704740F2D1
:101EC00088134208C2F2000308810A82188040F297
:101ED0008A13C2F200031A800A88824284BF013842
:101EE0000880704744F22441C4F201010A880A893B
:101EF000824208BF704740F28C134208C2F20003CE
:101F000008810A82188040F28E13C2F200031A8000
:101F10000A88824284BF01380880704744F2240155
:101F2000C4F201010A880B89834208BF7047430845
:101F300008810B820B88834284BF0138088008899E
:101F4000B0EB420F84BF500008807047B0B584B03A
:101F500010200121FEF762FF01AC2046FFF7FEFAD8
:101F6000002041F20005ADF80A008DF80C0045F69E
:101F7000C050C4F20005019028462146FFF798FAA8
:101F8000288840F00100288004B0B0BDB0B58CB006
:101F900001200121FEF736FF01AC2046FEF7F2FCDE
:101FA00040F27011C2F2000102914FF48061089179
:101FB0008021069120210420099142F24C41049095
:101FC0000020C4F20101082503900B9001914FF409
:101FD000807105904FF40050C4F2020507910A90F9
:101FE00028462146FEF7AAFC28460121FEF792FC6E
:101FF000284602210122FEF799FC4EF20010CEF293
:1020000000004FF4006101600CB0B0BDB0B588B005
:102010004FF480200121FEF70DFF05AC2046FFF7AD
:102020009DFA00208DF81C00182044F6000505904C
:102030004FF4AF60C4F20105069028462146FFF731
:1020400037FA01AC2046FFF72DFA6020C0F20100FC
:1020500001904FF42F70ADF80A0028462146FFF793
:1020600041F940F60C00C4F20100016821F48071CE
:10207000016008B0B0BD00002DE9F04381B004203C
:1020800001214FF00408FEF7D5FE08200121FEF7DC
:10209000D1FE102001214FF01009FEF7CBFE2020C9
:1020A0000121FEF7C7FE6C462046FEF773FE0120B5
:1020B00040F60005C2F60200C4F201050090284671
:1020C0002146FEF765FC802005F58066ADF800002E
:1020D00030462146FEF75CFC0F2005F50067ADF8A1
:1020E000000038462146FEF753FC05F540602146C6
:1020F000ADF80080FEF74CFC4FF41060ADF8000026
:10210000284621468DF80390FEF742FC4BF6E4404A
:10211000ADF8000030462146FEF73AFC4FF6C0709D
:10212000ADF8000038462146FEF732FC00208DF85D
:102130000300F020ADF8000028462146FEF728FCF9
:102140000320ADF8000030462146FEF721FC302088
:10215000ADF8000038462146FEF71AFC18208DF82D
:10216000030041F20E60ADF8000028462146FEF75C
:102170000FFC4FF48640ADF8000030462146FEF7D4
:1021800007FC01B0BDE8F08370B584B020200121C8
:10219000FEF744FE01AC2046FFF7E0F945F6C050DB
:1021A00041F2004501901520C4F20005002602907E
:1021B000284621468DF80C60FFF77AF9AE84A88A8C
:1021C0001E2140F00100A8822846FFF765F8284646
:1021D00001210122FFF77EF84EF20410CEF200003A
:1021E0004FF40001016004B070BD00002DE9F04122
:1021F00084B040F60004C4F200042046012100220D
:102200000026FFF767F84EF20018CEF200084FF0F4
:102210008047C8F88070BFF34F8F04200121BFF3BF
:102220006F8FFEF7FBFD01AD2846FFF797F945F6E6
:10223000C050019064200290204629468DF80C6021
:10224000FFF736F9A684A08A1E2140F00100A08283
:102250002046FFF721F8204601210122FFF73AF836
:1022600044F6B904C8F8007040F2B910C0F6000492
:10227000C2F2000021461522FEF7FFF81530214674
:102280001522FEF7FAF804B0BDE8F08110B582B06F
:102290001920C0F2011001AC01902046FEF782FD2A
:1022A00040F21D20C0F2061001902046FEF77AFD94
:1022B00040F21E40C0F2061001902046FEF772FD6B
:1022C00040F23630C0F2061001902046FEF76AFD5B
:1022D00040F23730C0F2061001902046FEF762FD52
:1022E00040F22560C0F2091001902046FEF75AFD29
:1022F00002B010BD70B584B002200121FEF78EFD42
:1023000001AC2046FFF72AF945F6C05040F20045DF
:1023100001900420C4F200050026029028462146C0
:102320008DF80C60FFF7C4F8AE84A88A1E2140F037
:102330000100A8822846FEF7AFFF284601210122AE
:10234000FEF7C8FF4EF20010CEF200004FF0005131
:10235000016004B070BD0000B0B588B04FF400302B
:102360000121FEF767FD05AC2046FFF7F7F80020D6
:102370008DF81C00182044F2004505904FF4AF6022
:10238000C4F20105069028462146FFF791F801ACFA
:102390002046FFF787F86020C0F2010001904FF45B
:1023A0002F70ADF80A0028462146FEF79BFF40F645
:1023B0000C00C4F20100016841F40061016008B042
:1023C000B0BD000070B588B04FF480300121FEF739
:1023D00031FD01200121FEF72DFD1C26C4F201066E
:1023E000306805AC40F0010030602046FFF7B6F8D9
:1023F00000208DF81C00182044F2000505904FF4D1
:10240000AF60C4F20105069028462146FFF750F858
:1024100001AC2046FFF746F86020C0F201000190B1
:102420004FF42F70ADF80A0028462146FEF75AFFF8
:10243000D6F8F00B20F40040C6F8F00B08B070BDE1
:10244000B0B584B04FF400600121FEF7F3FC01AC9D
:102450002046FFF783F8002042F600458DF80C0077
:10246000019040F67F40C4F20105029028462146C3
:10247000FFF71EF82846002100220023FEF71AFF6E
:10248000284601210122FEF725FF4EF20010CEF270
:1024900000004FF00071016004B0B0BDB0B584B071
:1024A0004FF480400121FEF7C5FC6C462046FFF743
:1024B00011F94FF4165043F60C05009000204FF42C
:1024C0000021C4F20105ADF80C00CDE90101A5F130
:1024D0000C002146FFF79EF82888202140F040009C
:1024E00028804EF20410CEF20000016004B0B0BDAE
:1024F00044F60000C4F20100018841F001010180AE
:10250000B0F8441041F40041A0F8441070470000B6
:1025100041F20040C4F20000018841F00101018055
:102520007047000040F60000C4F20000018841F04E
:10253000010101807047000040F20040C4F2000039
:10254000018841F0010101807047000044F2004021
:10255000C4F20100018841F001010180B0F844108B
:1025600041F40041A0F844107047000044F200001C
:10257000C4F20100018841F001010180B0F844106B
:1025800041F40041A0F844107047000042F60040BA
:10259000C4F20100018841F0010101807047000090
:1025A00044F60000C4F20100018821F0010101801D
:1025B000B0F844106FF3DF31A0F84410002181849B
:1025C0007047000044F20040C4F20100018821F08D
:1025D00001010180B0F844106FF3DF31A0F844101E
:1025E000002181847047000044F20000C4F2010021
:1025F000018821F001010180B0F844106FF3DF3150
:10260000A0F8441000218184704700002DE9F043B8
:1026100085B040F2F205C2F2000544F6B4092A88FA
:10262000C0F600090DF10F0630464946FDF7EAFDF8
:1026300040F2B914C2F20004204631460422FDF7EC
:102640001CFF40F20017C2F200073A8830464946A4
:10265000FDF7D8FD04F11508404631460422FDF788
:102660000CFF42F62440C4F20100008840F20A2127
:10267000C2F200010880298840F27E12C2F20002F4
:102680001180398840F28012C2F20002118040F2BB
:102690008611C2F20001098840F27C12C2F20002E7
:1026A000118040F27811C2F20001098840F27A12DA
:1026B000C2F20002118040F2881240F28211C2F28E
:1026C0000002C2F200011288088030464946FDF738
:1026D00099FD601D31460422FDF7CFFE40F2EE0069
:1026E000C2F2000044F6AF05B0F90020C0F60005C4
:1026F0000DF10B0738462946FDF784FD04F10A0069
:1027000039460322FDF7B9FE40F2F000C2F20000A4
:10271000B0F9002038462946FDF774FD04F10E009B
:1027200039460322FDF7A9FE40F28C10C2F20000E8
:10273000028830464946FDF765FD04F11A0031462E
:102740000422FDF79AFE40F2FC00C2F20000B0F94C
:1027500000200DF1070630462946FDF753FD04F130
:102760001F0031460322FDF788FE40F2FE00C2F250
:102770000000B0F9002030462946FDF743FD04F182
:10278000230031460322FDF778FE00200021FEF7EA
:102790004DF820461521FEF735F800200121FEF7FF
:1027A00045F84046152105B0BDE8F043FEF72AB8CC
:1027B00080B5FFF7FBF9002818BF80BD40F200008C
:1027C000C2F2000090F8E41001B180BD012180F850
:1027D000E410FFF709FA014643F60000C4F20100D5
:1027E000BDE88040FEF772BF30380A2801D20120D0
:1027F000704700207047040000080000000000003F
:1028000000020001000010020406080000000001A0
:10281000020304010203040607080900010203047D
:1028200005060708090A0B0C0D0E0F1011121314E0
:1028300015161718191A1B1C1D1E1F2021222324D0
:1028400025262728292A2B2C2D2E2F3031323334C0
:1028500035363738393A3B3C3D3E3F4041424344B0
:1028600045464748494A4B4C4D4E4F5051525354A0
:1028700055565758595A5B5C5D5E5F606162636490
:1028800065666768696A6B6C6D6E6F707172737480
:1028900075767778797A7B7C7D7E7F898182838467
:1028A00085868788898A8B8C8D8E8FCDCCB9DBFB12
:1028B000FEFD005E7FDBB000000000B5C60000003A
:1028C000000000F000000000000000000000000018
:1028D000000000F1FCBA00000000008081828384C7
:1028E00085868788898A8B8C8D8E8F909192939420
:1028F00095969798999A9B9C9D9E9FA0A1A2A3A410
:10290000A5A6A7A8A9AAABACADAEAFE0E1E2E3E40F
:10291000E5E6E7E8E9EAEBECEDEEEF00441A3D1AF4
:10292000361A301A291A221A1C1A151A0E1A081ADF
:10293000011AFA19F419ED19E719E019D919D3197F
:10294000CC19C619BF19B819B219AB19A5199E1916
:10295000971991198A1984197D19771970196919AC
:1029600063195C1956194F19491942193C1935193F
:102970002F19281922191B1915190E1908190119CF
:10298000FB18F418EE18E718E118DA18D418CD1867
:10299000C718C018BA18B318AD18A618A0189918F7
:1029A00093188D1886188018791873186C18661883
:1029B0006018591853184C1846184018391833180D
:1029C0002C1826182018191813180C180618001897
:1029D000F917F317ED17E617E017DA17D317CD1726
:1029E000C717C017BA17B417AD17A717A1179A17AB
:1029F00094178E17871781177B1774176E17681730
:102A000062175B1755174F17481742173C173617B1
:102A10002F17291723171D17161710170A17041732
:102A2000FD16F716F116EB16E516DE16D816D216B9
:102A3000CC16C616BF16B916B316AD16A716A01635
:102A40009A1694168E16881682167B1675166F16B1
:102A5000691663165D16561650164A1644163E162B
:102A6000381632162C1625161F16191613160D16A3
:102A700007160116FB15F515EF15E815E215DC151F
:102A8000D615D015CA15C415BE15B815B215AC1596
:102A9000A615A0159A1594158E15881582157C1506
:102AA000761570156A1564155E15581552154C1576
:102AB000461540153A1534152E15281522151C15E6
:102AC000161510150A150415FE14F814F214EC145A
:102AD000E614E014DA14D414CE14C814C314BD14CC
:102AE000B714B114AB14A5149F14991493148D1436
:102AF000881482147C14761470146A1464145E149E
:102B0000591453144D14471441143B143614301403
:102B10002A1424141E14181413140D140714011469
:102B2000FB13F613F013EA13E413DE13D913D313D4
:102B3000CD13C713C113BC13B613B013AA13A51337
:102B40009F13991393138E13881382137C13771397
:102B500071136B13661360135A1354134F134913F5
:102B600043133E13381332132D13271321131C1351
:102B7000161310130B130513FF12FA12F412EE12B0
:102B8000E912E312DD12D812D212CC12C712C1120E
:102B9000BC12B612B012AB12A512A0129A12941265
:102BA0008F12891284127E12781273126D126812BB
:102BB00062125D12571251124C12461241123B1210
:102BC000361230122B12251220121A1215120F1261
:102BD0000A120412FF11F911F411EE11E911E311B7
:102BE000DE11D811D311CD11C811C211BD11B71109
:102BF000B211AC11A711A1119C11971191118C1157
:102C0000861181117B11761171116B1166116011A2
:102C10005B11561150114B11451140113B113511EB
:102C200030112A11251120111A11151110110A1134
:102C300005110011FA10F510F010EA10E510E0107F
:102C4000DA10D510D010CA10C510C010BA10B510C7
:102C5000B010AA10A510A0109B10951090108B100A
:102C6000851080107B10761070106B10661061104C
:102C70005B10561051104C10461041103C1037108C
:102C800032102C10271022101D10181012100D10C9
:102C900008100310FE0FF80FF30FEE0FE90FE40F0B
:102CA000DF0FD90FD40FCF0FCA0FC50FC00FBA0F48
:102CB000B50FB00FAB0FA60FA10F9C0F970F910F81
:102CC0008C0F870F820F7D0F780F730F6E0F690FB8
:102CD000640F5E0F590F540F4F0F4A0F450F400FEF
:102CE0003B0F360F310F2C0F270F220F1D0F180F20
:102CF000130F0E0F090F040FFF0EFA0EF50EF00E54
:102D0000EB0EE60EE10EDC0ED70ED20ECD0EC80E87
:102D1000C30EBE0EB90EB40EAF0EAA0EA50EA00EB7
:102D20009B0E960E910E8C0E870E820E7D0E780EE7
:102D3000730E6E0E6A0E650E600E5B0E560E510E11
:102D40004C0E470E420E3D0E390E340E2F0E2A0E3B
:102D5000250E200E1B0E160E120E0D0E080E030E63
:102D6000FE0DF90DF50DF00DEB0DE60DE10DDC0D91
:102D7000D80DD30DCE0DC90DC40DC00DBB0DB60DB4
:102D8000B10DAC0DA80DA30D9E0D990D940D900DD8
:102D90008B0D860D810D7D0D780D730D6E0D6A0DF9
:102DA000650D600D5B0D570D520D4D0D490D440D18
:102DB0003F0D3A0D360D310D2C0D280D230D1E0D36
:102DC0001A0D150D100D0C0D070D020DFE0CF90C52
:102DD000F40CF00CEB0CE60CE20CDD0CD80CD40C73
:102DE000CF0CCA0CC60CC10CBD0CB80CB30CAF0C8C
:102DF000AA0CA60CA10C9C0C980C930C8F0C8A0CA2
:102E0000850C810C7C0C780C730C6F0C6A0C650CB7
:102E1000610C5C0C580C530C4F0C4A0C460C410CCA
:102E20003D0C380C340C2F0C2B0C260C220C1D0CDA
:102E3000190C140C100C0B0C070C020CFE0BF90BEC
:102E4000F50BF00BEC0BE70BE30BDE0BDA0BD50B02
:102E5000D10BCD0BC80BC40BBF0BBB0BB60BB20B0E
:102E6000AE0BA90BA50BA00B9C0B980B930B8F0B18
:102E70008A0B860B820B7D0B790B740B700B6C0B22
:102E8000670B630B5F0B5A0B560B520B4D0B490B29
:102E9000450B400B3C0B380B330B2F0B2B0B260B2E
:102EA000220B1E0B190B150B110B0C0B080B040B33
:102EB000000BFB0AF70AF30AEE0AEA0AE60AE20A3C
:102EC000DD0AD90AD50AD10ACC0AC80AC40AC00A3E
:102ED000BB0AB70AB30AAF0AAB0AA60AA20A9E0A3D
:102EE0009A0A960A910A8D0A890A850A810A7C0A39
:102EF000780A740A700A6C0A680A630A5F0A5B0A35
:102F0000570A530A4F0A4A0A460A420A3E0A3A0A2E
:102F1000360A320A2E0A290A250A210A1D0A190A26
:102F2000150A110A0D0A090A050A000AFC09F8091E
:102F3000F409F009EC09E809E409E009DC09D80919
:102F4000D409D009CC09C809C409C009BC09B80909
:102F5000B409B009AC09A809A409A0099C099809F9
:102F6000940990098C098809840980097C097809E9
:102F7000740970096C096809640960095C095809D9
:102F8000540950094C094809440940093D093909C7
:102F9000350931092D092909250921091D091909B1
:102FA000160912090E090A0906090209FE08FA089B
:102FB000F708F308EF08EB08E708E308E008DC0887
:102FC000D808D408D008CC08C908C508C108BD086D
:102FD000B908B608B208AE08AA08A608A3089F0850
:102FE0009B089708930890088C0888088408810833
:102FF0007D087908750872086E086A086608630813
:103000005F085B085808540850084C0849084508F0
:1030100041083E083A08360833082F082B082808CC
:10302000240820081D081908150812080E080A08A7
:1030300007080308FF07FC07F807F407F107ED0787
:10304000EA07E607E207DF07DB07D807D407D00760
:10305000CD07C907C607C207BE07BB07B707B40736
:10306000B007AD07A907A507A2079E079B0797070B
:10307000940790078D078907860782077F077B07DC
:103080007807740771076D076A07660763075F07AC
:103090005C075807550751074E074A07470743077C
:1030A00040073C073907350732072F072B0728074A
:1030B000240721071D071A071707130710070C0716
:1030C000090706070207FF06FB06F806F506F106E4
:1030D000EE06EA06E706E406E006DD06DA06D606B0
:1030E000D306D006CC06C906C606C206BF06BC0675
:1030F000B806B506B206AE06AB06A806A406A1063B
:103100009E069A069706940691068D068A068706FD
:10311000830680067D067A067606730670066D06BF
:1031200069066606630660065C065906560653067F
:1031300050064C0649064606430640063C0639063C
:103140003606330630062C062906260623062006F8
:103150001D0619061606130610060D060A060606B3
:1031600003060006FD05FA05F705F405F105ED0572
:10317000EA05E705E405E105DE05DB05D805D5052B
:10318000D205CE05CB05C805C505C205BF05BC05E2
:10319000B905B605B305B005AD05AA05A705A40593
:1031A000A1059E059B059805950592058F058C0543
:1031B00089058605830580057D057A0577057405F3
:1031C00071056E056B056805650562055F055C05A3
:1031D00059055605530550054D054A054705440553
:1031E00041053E053C0539053605330530052D05FD
:1031F0002A052705240521051F051C0519051605A7
:10320000130510050D050A05080505050205FF044F
:10321000FC04F904F704F404F104EE04EB04E804FC
:10322000E604E304E004DD04DA04D804D504D2049F
:10323000CF04CC04CA04C704C404C104BE04BC0443
:10324000B904B604B304B104AE04AB04A804A604E4
:10325000A304A0049D049B04980495049304900483
:103260008D048A0488048504820480047D047A0421
:1032700078047504720470046D046A0468046504BB
:10328000620460045D045A04580455045204500456
:103290004D044A0448044504430440043D043B04EF
:1032A00038043604330430042E042B042904260485
:1032B000230421041E041C0419041704140411041B
:1032C0000F040C040A040704050402040004FD03AF
:1032D000FB03F803F603F303F103EE03EC03E90346
:1032E000E703E403E203DF03DD03DA03D803D503D6
:1032F000D303D003CE03CB03C903C603C403C10366
:10330000BF03BD03BA03B803B503B303B003AE03F1
:10331000AC03A903A703A403A203A0039D039B037B
:1033200098039603940391038F038C038A03880305
:103330008503830381037E037C037A03770375038C
:10334000730370036E036C03690367036503620311
:1033500060035E035B035903570354035203500396
:103360004E034B03490347034403420340033E0318
:103370003B03390337033503320330032E032C0399
:10338000290327032503230321031E031C031A0318
:1033900018031603130311030F030D030B03080394
:1033A0000603040302030003FE02FB02F902F70214
:1033B000F502F302F102EE02EC02EA02E802E60292
:1033C000E402E202E002DD02DB02D902D702D5020A
:1033D000D302D102CF02CD02CB02C802C602C40280
:1033E000C202C002BE02BC02BA02B802B602B402F5
:1033F000B202B002AE02AC02AA02A802A602A40265
:10340000A202A0029E029C029A02980296029402D4
:10341000920290028E028C028A0288028602840244
:10342000820280027E027C027A02780276027402B4
:10343000720270026E026C026A0268026702650222
:10344000630261025F025D025B025902570255028C
:103450005402520250024E024C024A0248024602F4
:103460004502430241023F023D023B023A0238025A
:1034700036023402320230022F022D022B022902C0
:10348000270226022402220220021E021D021B0223
:103490001902170215021402120210020E020D0286
:1034A0000B02090207020602040202020002FF01E7
:1034B000FD01FB01FA01F801F601F401F301F1014C
:1034C000EF01EE01EC01EA01E901E701E501E401A8
:1034D000E201E001DF01DD01DB01DA01D801D60103
:1034E000D501D301D101D001CE01CC01CB01C9015D
:1034F000C801C601C401C301C101C001BE01BC01B4
:10350000BB01B901B801B601B401B301B101B00109
:10351000AE01AD01AB01A901A801A601A501A3015E
:10352000A201A0019F019D019C019A0199019701AF
:10353000960194019301910190018E018D018B01FF
:103540008A018801870185018401820181017F014F
:103550007E017C017B01790178017701750174019D
:10356000720171016F016E016D016B016A016801E9
:103570006701660164016301610160015F015D0132
:103580005C015A015901580156015501540152017B
:10359000510150014E014D014C014A0149014801C0
:1035A0004601450144014201410140013E013D0106
:1035B0003C013A0139013801370135013401330149
:1035C000310130012F012E012C012B012A0129018B
:1035D00027012601250124012201210120011F01CB
:1035E0001E011C011B011A01190118011601150108
:1035F00014011301120110010F010E010D010C0144
:103600000B0109010801070106010501040102017E
:1036100001010001FF00FE00FD00FC00FB00F900BD
:10362000F800F700F600F500F400F300F200F100F6
:10363000F000EE00ED00EC00EB00EA00E900E8002D
:10364000E700E600E500E400E300E200E100E0005E
:10365000DF00DE00DD00DC00DB00DA00D900D8008E
:10366000D700D600D500D400D300D200D100D000BE
:10367000CF00CE00CD00CC00CB00CA00C900C800EE
:10368000C700C600C500C400C300C200C100C0001E
:10369000BF00BE00BE00BD00BC00BB00BA00B90048
:1036A000B800B700B600B500B500B400B300B20072
:1036B000B100B000AF00AE00AE00AD00AC00AB009A
:1036C000AA00A900A900A800A700A600A500A400C0
:1036D000A400A300A200A100A000A0009F009E00E3
:1036E0009D009C009C009B009A0099009800980007
:1036F0009700960095009500940093009200920028
:10370000910090008F008F008E008D008D008C0046
:103710008B008A008A008900880088008700860064
:10372000860085008400840083008200820081007E
:10373000800080007F007E007E007D007C007C0099
:103740007B007A007A0079007900780077007700B2
:1037500076007600750074007400730073007200C8
:1037600071007100700070006F006F006E006D00DE
:103770006D006C006C006B006B006A006A006900F1
:103780006900680068006700670066006600650001
:103790006500640064006300630062006200610011
:1037A0006100600060005F005F005E005E005D0021
:1037B0005D005D005C005C005B005B005A005A002D
:1037C0005A00590059005800580058005700570037
:1037D0005600560056005500550054005400540041
:1037E0005300530053005200520052005100510048
:1037F00051005000500050004F004F004F004E004D
:103800004E004E004D004D004D004C004C004C0051
:103810004C004B004B004B004A004A004A004A0053
:103820004900490049004900480048004800480054
:103830004700470047004700470046004600460053
:10384000460046004500450045004500450044004F
:10385000440044004400440044004300430043004B
:103860004300430043004200420042004200420045
:10387000420042004200410041004100410041003D
:103880004100410041004100410040004000400033
:103890004000400040004000400040004000400028
:1038A0004000400040004000400040004000400018
:1038B0004000400040004000400040000100020085
:1038C0000300040005000600070008000A000E00BF
:1038D000120016001A001E00220026002E003600DC
:1038E0003E004600400040004000400040004000D4
:1038F00040004000400040004000400040004000C8
:1039000040004000400040004000400040004000B7
:1039100040004000400041004100410041004100A2
:10392000410041004100410041004200420042008C
:103930004200420042004200420043004300430074
:10394000430043004300440044004400440044005A
:10395000440045004500450045004500460046003E
:103960004600460046004700470047004700470022
:103970004800480048004800490049004900490003
:103980004A004A004A004A004B004B004B004C00E2
:103990004C004C004C004D004D004D004E004E00C0
:1039A0004E004F004F004F0050005000500051009B
:1039B0005100510052005200520053005300530076
:1039C000540054005400550055005600560056004F
:1039D00057005700580058005800590059005A0025
:1039E0005A005A005B005B005C005C005D005D00FB
:1039F0005D005E005E005F005F00600060006100CF
:103A0000610062006200630063006400640065009E
:103A1000650066006600670067006800680069006E
:103A200069006A006A006B006B006C006C006D003E
:103A30006D006E006F006F0070007000710071000B
:103A400072007300730074007400750076007600D5
:103A5000770077007800790079007A007A007B009F
:103A60007C007C007D007E007E007F008000800066
:103A7000810082008200830084008400850086002B
:103A8000860087008800880089008A008A008B00F1
:103A90008C008D008D008E008F008F0090009100B3
:103AA0009200920093009400950095009600970074
:103AB0009800980099009A009B009C009C009D0033
:103AC0009E009F00A000A000A100A200A300A400EF
:103AD000A400A500A600A700A800A900A900AA00AC
:103AE000AB00AC00AD00AE00AE00AF00B000B10066
:103AF000B200B300B400B500B500B600B700B8001E
:103B0000B900BA00BB00BC00BD00BE00BE00BF00D3
:103B1000C000C100C200C300C400C500C600C70089
:103B2000C800C900CA00CB00CC00CD00CE00CF0039
:103B3000D000D100D200D300D400D500D600D700E9
:103B4000D800D900DA00DB00DC00DD00DE00DF0099
:103B5000E000E100E200E300E400E500E600E70049
:103B6000E800E900EA00EB00EC00ED00EE00F000F8
:103B7000F100F200F300F400F500F600F700F800A1
:103B8000F900FB00FC00FD00FE00FF000001010148
:103B900002010401050106010701080109010B01E9
:103BA0000C010D010E010F0110011201130114018E
:103BB00015011601180119011A011B011C011E0132
:103BC0001F012001210122012401250126012701D5
:103BD00029012A012B012C012E012F013001310175
:103BE0003301340135013701380139013A013C0113
:103BF0003D013E01400141014201440145014601B0
:103C0000480149014A014C014D014E015001510149
:103C10005201540155015601580159015A015C01E4
:103C20005D015F016001610163016401660167017B
:103C300068016A016B016D016E016F017101720112
:103C4000740175017701780179017B017C017E01A6
:103C50007F018101820184018501870188018A0138
:103C60008B018D018E0190019101930194019601C8
:103C7000970199019A019C019D019F01A001A20158
:103C8000A301A501A601A801A901AB01AD01AE01E7
:103C9000B001B101B301B401B601B801B901BB0172
:103CA000BC01BE01C001C101C301C401C601C801FC
:103CB000C901CB01CC01CE01D001D101D301D50185
:103CC000D601D801DA01DB01DD01DF01E001E2010B
:103CD000E401E501E701E901EA01EC01EE01EF0190
:103CE000F101F301F401F601F801FA01FB01FD0114
:103CF000FF010002020204020602070209020B028F
:103D00000D020E021002120214021502170219020D
:103D10001B021D021E02200222022402260227028A
:103D200029022B022D022F02300232023402360207
:103D300038023A023B023D023F0241024302450281
:103D4000460248024A024C024E02500252025402FB
:103D50005502570259025B025D025F026102630273
:103D60006502670268026A026C026E0270027202E9
:103D70007402760278027A027C027E02800282025B
:103D80008402860288028A028C028E0290029202CB
:103D90009402960298029A029C029E02A002A2023B
:103DA000A402A602A802AA02AC02AE02B002B202AB
:103DB000B402B602B802BA02BC02BE02C002C2021B
:103DC000C402C602C802CB02CD02CF02D102D30286
:103DD000D502D702D902DB02DD02E002E202E402F0
:103DE000E602E802EA02EC02EE02F102F302F50258
:103DF000F702F902FB02FE020003020304030603BA
:103E000008030B030D030F03110313031603180319
:103E10001A031C031E03210323032503270329037D
:103E20002C032E03300332033503370339033B03DE
:103E30003E03400342034403470349034B034E033D
:103E4000500352035403570359035B035E0360039B
:103E500062036503670369036C036E0370037303F6
:103E6000750377037A037C037E0381038303850351
:103E700088038A038C038F039103940396039803AA
:103E80009B039D03A003A203A403A703A903AC0300
:103E9000AE03B003B303B503B803BA03BD03BF0356
:103EA000C103C403C603C903CB03CE03D003D303AA
:103EB000D503D803DA03DD03DF03E203E403E703FA
:103EC000E903EC03EE03F103F303F603F803FB034A
:103ED000FD0300040204050407040A040C040F0493
:103EE00011041404170419041C041E0421042304DF
:103EF000260429042B042E04300433043604380429
:103F00003B043D0440044304450448044A044D0472
:103F100050045204550458045A045D0460046204B9
:103F2000650468046A046D047004720475047804FE
:103F30007A047D0480048204850488048A048D0444
:103F400090049304950498049B049D04A004A30486
:103F5000A604A804AB04AE04B104B304B604B904C7
:103F6000BC04BE04C104C404C704CA04CC04CF0406
:103F7000D204D504D804DA04DD04E004E304E60442
:103F8000E804EB04EE04F104F404F704F904FC047F
:103F9000FF040205050508050A050D0510051305B2
:103FA000160519051C051F052105240527052A05E9
:103FB0002D0530053305360539053C053E0541051F
:103FC000440547054A054D05500553055605590555
:103FD0005C055F056205650568056B056E05710585
:103FE000740577057A057D058005830586058905B5
:103FF0008C058F059205950598059B059E05A105E5
:10400000A405A705AA05AD05B005B305B605B90514
:10401000BC05BF05C205C505C805CB05CE05D20543
:10402000D505D805DB05DE05E105E405E705EA056C
:10403000ED05F105F405F705FA05FD050006030693
:1040400006060A060D0610061306160619061D06B4
:1040500020062306260629062C06300633063606D9
:1040600039063C0640064306460649064C065006FD
:104070005306560659065C06600663066606690620
:104080006D067006730676067A067D068006830640
:1040900087068A068D069106940697069A069E065E
:1040A000A106A406A806AB06AE06B206B506B8067B
:1040B000BC06BF06C206C606C906CC06D006D30695
:1040C000D606DA06DD06E006E406E706EA06EE06B0
:1040D000F106F506F806FB06FF06020706070907C4
:1040E0000C071007130717071A071D0721072407D6
:1040F00028072B072F073207350739073C074007EA
:10410000430747074A074E075107550758075C07FB
:104110005F07630766076A076D077107740778070B
:104120007B077F078207860789078D07900794071B
:1041300097079B079E07A207A507A907AD07B0072A
:10414000B407B707BB07BE07C207C607C907CD0735
:10415000D007D407D807DB07DF07E207E607EA073F
:10416000ED07F107F407F807FC07FF070308070846
:104170000A080E081208150819081D082008240846
:1041800028082B082F08330836083A083E0841084B
:10419000450849084C085008540858085B085F084F
:1041A000630866086A086E087208750879087D0851
:1041B0008108840888088C089008930897089B0851
:1041C0009F08A308A608AA08AE08B208B608B9084E
:1041D000BD08C108C508C908CC08D008D408D8084B
:1041E000DC08E008E308E708EB08EF08F308F70845
:1041F000FA08FE08020906090A090E091209160939
:1042000019091D092109250929092D09310935092E
:1042100039093D094009440948094C095009540924
:1042200058095C096009640968096C097009740916
:1042300078097C098009840988098C099009940906
:1042400098099C09A009A409A809AC09B009B409F6
:10425000B809BC09C009C409C809CC09D009D409E6
:10426000D809DC09E009E409E809EC09F009F409D6
:10427000F809FC09000A050A090A0D0A110A150ABB
:10428000190A1D0A210A250A290A2E0A320A360AA3
:104290003A0A3E0A420A460A4A0A4F0A530A570A8B
:1042A0005B0A5F0A630A680A6C0A700A740A780A71
:1042B0007C0A810A850A890A8D0A910A960A9A0A55
:1042C0009E0AA20AA60AAB0AAF0AB30AB70ABB0A39
:1042D000C00AC40AC80ACC0AD10AD50AD90ADD0A1A
:1042E000E20AE60AEA0AEE0AF30AF70AFB0A000BF8
:1042F000040B080B0C0B110B150B190B1E0B220BCF
:10430000260B2B0B2F0B330B380B3C0B400B450BA9
:10431000490B4D0B520B560B5A0B5F0B630B670B84
:104320006C0B700B740B790B7D0B820B860B8A0B5D
:104330008F0B930B980B9C0BA00BA50BA90BAE0B33
:10434000B20BB60BBB0BBF0BC40BC80BCD0BD10B09
:10435000D50BDA0BDE0BE30BE70BEC0BF00BF50BDD
:10436000F90BFE0B020C070C0B0C100C140C190CA7
:104370001D0C220C260C2B0C2F0C340C380C3D0C75
:10438000410C460C4A0C4F0C530C580C5C0C610C45
:10439000650C6A0C6F0C730C780C7C0C810C850C12
:1043A0008A0C8F0C930C980C9C0CA10CA60CAA0CDC
:1043B000AF0CB30CB80CBD0CC10CC60CCA0CCF0CA6
:1043C000D40CD80CDD0CE20CE60CEB0CF00CF40C6D
:1043D000F90CFE0C020D070D0C0D100D150D1A0D2C
:1043E0001E0D230D280D2C0D310D360D3A0D3F0DF0
:1043F000440D490D4D0D520D570D5B0D600D650DB2
:104400006A0D6E0D730D780D7D0D810D860D8B0D72
:10441000900D940D990D9E0DA30DA80DAC0DB10D31
:10442000B60DBB0DC00DC40DC90DCE0DD30DD80DED
:10443000DC0DE10DE60DEB0DF00DF50DF90DFE0DAA
:10444000030E080E0D0E120E160E1B0E200E250E5C
:104450002A0E2F0E340E390E3D0E420E470E4C0E14
:10446000510E560E5B0E600E650E6A0E6E0E730ECA
:10447000780E7D0E820E870E8C0E910E960E9B0E80
:10448000A00EA50EAA0EAF0EB40EB90EBE0EC30E30
:10449000C80ECD0ED20ED70EDC0EE10EE60EEB0EE0
:1044A000F00EF50EFA0EFF0E040F090F0E0F130F8C
:1044B000180F1D0F220F270F2C0F310F360F3B0F38
:1044C000400F450F4A0F4F0F540F590F5E0F640FE7
:1044D000690F6E0F730F780F7D0F820F870F8C0F90
:1044E000910F970F9C0FA10FA60FAB0FB00FB50F39
:1044F000BA0FC00FC50FCA0FCF0FD40FD90FDF0FE0
:10450000E40FE90FEE0FF30FF80FFE0F0310081082
:104510000D10121018101D10221027102C10321020
:1045200037103C10411046104C10511056105B10C3
:10453000611066106B10701076107B108010851063
:104540008B10901095109B10A010A510AA10B01001
:10455000B510BA10C010C510CA10D010D510DA109E
:10456000E010E510EA10F010F510FA100011051136
:104570000A11101115111A11201125112A113011CB
:1045800035113B11401145114B11501156115B1162
:10459000601166116B11711176117B1181118611F9
:1045A0008C11911197119C11A111A711AC11B2118D
:1045B000B711BD11C211C811CD11D311D811DE111F
:1045C000E311E911EE11F411F911FF1104120A12AD
:1045D0000F1215121A12201225122B123012361237
:1045E0003B12411246124C12511257125D126212C6
:1045F00068126D12731278127E12841289128F1251
:1046000094129A12A012A512AB12B012B612BC12DA
:10461000C112C712CC12D212D812DD12E312E91263
:10462000EE12F412FA12FF1205130B1310131613E5
:104630001C13211327132D13321338133E13431366
:1046400049134F1354135A13601366136B137113EA
:1046500077137C13821388138E13931399139F136C
:10466000A513AA13B013B613BC13C113C713CD13EC
:10467000D313D913DE13E413EA13F013F613FB1369
:10468000011407140D14131418141E1424142A14DE
:10469000301436143B14411447144D145314591458
:1046A0005E1464146A14701476147C1482148814D2
:1046B0008D14931499149F14A514AB14B114B7144A
:1046C000BD14C314C814CE14D414DA14E014E614C0
:1046D000EC14F214F814FE1404150A15101516152E
:1046E0001C15221528152E1534153A15401546159A
:1046F0004C15521558155E1564156A15701576150A
:104700007C15821588158E1594159A15A015A61579
:10471000AC15B215B815BE15C415CA15D015D615E9
:10472000DC15E215E815EF15F515FB150116071652
:104730000D16131619161F1625162C1632163816B6
:104740003E1644164A16501656165D16631669161E
:104750006F1675167B16821688168E1694169A1684
:10476000A016A716AD16B316B916BF16C616CC16E8
:10477000D216D816DE16E516EB16F116F716FD164C
:1047800004170A17101716171D17231729172F17A5
:1047900036173C17421748174F1755175B17621704
:1047A00068176E1774177B17811787178E17941762
:1047B0009A17A117A717AD17B417BA17C017C717BD
:1047C000CD17D317DA17E017E617ED17F317F91718
:1047D000001806180C1813181918201826182C1869
:1047E00033183918401846184C18531859186018BF
:1047F00066186C1873187918801886188D18931815
:104800009918A018A618AD18B318BA18C018C71868
:10481000CD18D418DA18E118E718EE18F418FB18B8
:10482000011908190E1915191B19221928192F1900
:1048300035193C19421949194F1956195C19631950
:104840006919701977197D1984198A19911997199D
:104850009E19A519AB19B219B819BF19C619CC19E7
:10486000D319D919E019E719ED19F419FA19011A30
:10487000081A0E1A151A1C1A221A291A301A361A70
:104880003D1A441AFFFFFDFFFAFFF7FFF4FFF1FFA7
:10489000EEFFEBFFE5FFDFFFD9FFD3FFCDFFC7FF43
:1048A000C1FFBBFFB2FFA9FFA0FF97FF2564002552
:1048B0003033640025303464002020202020202064
:1048C0002020202020202020202020202020000028
:1048D000F048000800000020080100005C0100080A
:1048E000F8490008080100200807000078010008C6
:1048F00000000000000000000000000000000000B8
:1049000000000000000000000000000000000000A7
:104910000000000000000000000000000000000097
:104920000000000000000000000000000000000087
:104930000000000000000000000000000000000077
:104940000000000000000000000000000000000067
:104950000000000000000000000000000000000057
:104960000000000000000000000000000000000047
:104970000000000000000000000000000000000037
:104980000000000000000000000000000000000027
:104990000000000000000000000000000000000017
:1049A0000000000000000000000000000000000007
:1049B00000000000000000000000000000000000F7
:1049C00000000000000000000000000000000000E7
:1049D00000DF00E0001B5200BC02BC02BC02010070
:1049E0000100FF0F1B5B303B3048BC02010001009F
:0849F000FF0FBC020100BC0234
:04000005080001C529
:00000001FF
