:020000040800F2
:1000000088090020050200080D0200080F02000800
:100010001102000813020008150200080000000089
:1000200000000000000000000000000017020008AF
:1000300019020008000000001B0200081D02000851
:100040001F0200081F0200081F0200081F0200080C
:100050001F0200081F0200081F0200081F020008FC
:100060001F0200081F0200081F0200080D090008F7
:10007000250900083D090008550900086D09000818
:10008000850900089D0900081F0200080000000003
:100090000000000000000000000000001F02000837
:1000A0001F0200083D1000081F0200081F02000880
:1000B0001F02000891100008ED1000081F02000840
:1000C0001F0200081F0200081F0200081F0200088C
:1000D0001F020008A11400081F0200081F020008E8
:1000E0001F0200081F0200081F0200080000000095
:1000F0000000000000000000000000000000000000
:1001000000000000000000000000000000000000EF
:1001100000000000000000001F020008711100082C
:1001200000F002F800F05FF80AA090E8000C8244AA
:100130008344AAF10107DA4501D100F054F8AFF287
:10014000090EBAE80F0013F0010F18BFFB1A43F0B5
:100150000103184784210000A42100000A444FF045
:10016000000C10F8013B13F0070408BF10F8014B16
:100170001D1108BF10F8015B641E05D010F8016B5B
:10018000641E01F8016BF9D113F0080F1EBF10F8BF
:10019000014BAD1C0C1B09D16D1E58BF01F801CBE2
:1001A000FAD505E014F8016B01F8016B6D1EF9D565
:1001B0009142D6D37047000000230024002500267A
:1001C000103A28BF78C1FBD8520728BF30C148BFBA
:1001D0000B607047642900F07180002070471FB5E4
:1001E0001FBD10B510BD00F02EFA1146FFF7F7FF46
:1001F00001F0EEFA00F04CFA03B4FFF7F2FF03BC93
:1002000000F054FA0948804709480047FEE7FEE736
:10021000FEE7FEE7FEE7FEE7FEE7FEE7FEE7FEE7B6
:1002200004480549054A064B70470000110F0008B5
:10023000210100088803002088090020880500208B
:10024000880500200FB41CB5074B06AA7B446946FD
:100250000090059800F0BDF90020694600F0CCF947
:100260001CBC5DF814FB0000A903000070B5044637
:1002700085690068C10601D5302600E02026C00748
:1002800007D070BDD4E9012130469047206A401C58
:1002900020626D1EF6D570BD70B504468569007884
:1002A000C00707D170BDD4E9012120209047206A02
:1002B000401C20626D1EF6D570BD00002DE9F04196
:1002C0000646002410687529314616A510D0AFF3F4
:1002D0000080002802DA404213A507E031688A074F
:1002E00001D512A502E0490704D511A5012401E0BA
:1002F000AFF3008000210A2206F1240709E0B0FBD9
:10030000F2FCB0FBF2F302FB1C00303078541846CC
:10031000491C0028F3D123462A463046BDE8F04167
:1003200000F0F9B8000000002D0000002B000000D4
:10033000200000002DE9F05F894604464FF0000AD6
:10034000DFF824B1FB44C0F820A02046E1688847CC
:1003500000287DD0252806D0D4E901219047206AC5
:10036000401C2062F1E700255F462046E16888478F
:100370002028064607DB312E05D2B81910F8200CCC
:1003800008B10543F1E7A80701D525F00405C4F835
:100390001CA00027C4F818A02A2E09D0304601F06E
:1003A0007DFF38B304EB8708303EC8F8186019E0C9
:1003B00059F8041B204604EB87029161E1688847E5
:1003C000012F064618D1E069002820DA25F0200523
:1003D0001DE0D8F8180000EB800006EB4000303834
:1003E000C8F818002046E1688847064601F056FF25
:1003F0000028EED1012F0AD02E2E08D12046E16828
:1004000088477F1C0646022F45F02005C4DBA06903
:10041000002803DA404245F00105A061E80701D059
:1004200025F01005A6B1A6F14100192802D8203602
:1004300045F400654A463146204625604D46FFF7A3
:10044000C9FE60B1012807D0ED1D25F0070000E0CE
:1004500007E000F1080978E705F1040975E730467F
:100460007AE7206ABDE8F09F621F00004FF00002AB
:1004700000B5134694469646203922BFA0E80C509A
:10048000A0E80C50B1F12001BFF4F7AF090728BF75
:10049000A0E80C5048BF0CC05DF804EB890028BFF1
:1004A00040F8042B08BF704748BF20F8022B11F01A
:1004B000804F18BF00F8012B704710B5044610F0AC
:1004C000030F08BF11F0030F40F015804FF0013EFD
:1004D000121FC0F20E8051F8043BA3EB0E0C2CEA65
:1004E000030C1CEACE1C08BF40F8043BF0D0A1F17D
:1004F000040102F10402521E08DB11F8013B00F86E
:10050000013B002BF7D1114600F07BF8204610BDCF
:100510007047704770472DE9F0470D46994692465F
:10052000044600F124080168880604D5E06921F03A
:100530001001216000E00120A84201DD471B00E01E
:100540000027A1697A1902EB0900081AA061207836
:10055000C00602D42046FFF789FE002608E0D4E951
:1005600001211AF806009047206A401C761C206280
:100570004E45F4DB2078C0060AD52046FFF776FE0C
:1005800006E0D4E9012130209047206A401C206217
:10059000381EA7F10107F4DC07E0D4E9012118F8BF
:1005A00005009047206A401C2062281EA5F1010525
:1005B000F3DC2046FFF770FE2078000602D502200B
:1005C000BDE8F0870120FBE701694A1C0261087859
:1005D000704700B58FB0CDE9013100210591054983
:1005E0007944CDE9031011466846FFF7A3FE0FB02A
:1005F00000BD0000E5FFFFFF0A6802F8010B0A607A
:1006000070474FF000020429C0F0128010F0030C74
:100610003FF42EAFCCF1040CBCF1020F18BF00F870
:10062000012BA8BF20F8022BA1EB0C01FFF720BF84
:100630005FEAC17C24BF00F8012B00F8012B48BF02
:1006400000F8012B7047754600F02CF8AE46050007
:100650006946534620F00700854618B020B5FFF7DD
:10066000DFFDBDE820404FF000064FF000074FF0DF
:1006700000084FF0000BAC46ACE8C009ACE8C0097C
:10068000ACE8C009ACE8C00921F007018D4670470D
:1006900010B50446AFF300802046BDE81040FFF7D8
:1006A000ABBD000000487047D80200200149182067
:1006B000ABBEFEE7260002007047000082680029FA
:1006C00022F0010218BF013282607047826800295F
:1006D00022F4807218BF02F58072826070470000B9
:1006E0008068C0F3800070478068C0F3C000704726
:1006F00080B542684FF6FF63CFF6F07302EA030C51
:100700000B680A7943EA0C0343EA022242608268DA
:100710004FF2FD73CFF6F17302EA030CD1E902E266
:100720004B7942EA0C0242EA0E0242EA430282603C
:10073000C26A097C22F470020139C9B242EA01514D
:10074000C16280BDB0B501EB410C4FF0100E09291C
:1007500088BFACF11E0C88BF4FF00C0E50F80E4055
:10076000072505FA0CF5AC4303FA0CF32343062ADC
:1007700040F80E3004D834306FF0040308E000BFB6
:100780000C2A87BF2C306FF0400330306FF022030B
:1007900002EB820205681A441F23934025EA0303F3
:1007A000914019430160B0BD816841F0080181604A
:1007B000704700008268002922F4A00218BF02F5E9
:1007C000A002826070470000816841F004018160EE
:1007D00070470000002101608180C0E90211012101
:1007E0000174704742F20841C4F201010A6800280E
:1007F00022F4000218BF02F500020A6070470000F0
:1008000010B540F22B24C2F20004207800F0B4FFAF
:10081000607800F0B1FFA07800F0AEFFE07800F063
:10082000ABFFBDE8104001F059BC000010B540F22C
:100830003F04C2F20004E07800F09EFF207900F04F
:100840009BFF607900F098FFA07900F095FF01F020
:1008500045FC20783521A17000F08EFF607800F013
:100860008BFFA07800F088FFBDE8104001F036BC97
:1008700070B561B140F22B160C46451EC2F200065F
:1008800015F8010F305C00F077FF013CF8D1BDE8AE
:10089000704001F023BC0000B0B582B042F2CF2519
:1008A0000C463121C0F60005ADF80610ADF8041075
:1008B000421C0DF106002946FFF7C4FC621C01A88A
:1008C0002946FFF7BFFC9DF8060040F2B524C2F2AE
:1008D000000420719DF804102078A17000F04CFFF6
:1008E000607800F049FFA07800F046FFE07800F063
:1008F00043FF207900F040FF607900F03DFF02B037
:10090000BDE8B04001F0EABB704700000021C4F22E
:100910000201086800F00F004860FFF7F5BF000013
:10092000704700000021C4F202010868C0F3031000
:1009300002014A60FFF7F4BF704700000021C4F2D3
:1009400002010868C0F3032002024A60FFF7F4BF07
:10095000704700000021C4F202010868C0F30330B0
:1009600002034A60FFF7F4BF704700000021C4F2A1
:1009700002010868C0F3034002044A60FFF7F4BFB5
:10098000704700000021C4F202010868C0F3035060
:1009900002054A60FFF7F4BF704700000021C4F26F
:1009A00002010868C0F3036002064A60FFF7F4BF63
:1009B00002684FF6FE7C42F00103002908BF02EAFC
:1009C0000C030360704700002DE9F047026847F60A
:1009D000F073D1E9026A9A4301F11007B0CF01F137
:1009E0001C0E3243D1E900899EE80A501A43224383
:1009F0002A433A43114341EA0C0141EA0E010160E6
:100A0000C0F804A0C0F80880C0F80C90BDE8F087DA
:100A100080B52C21FFF72AFD80BD0000B0B5CB7852
:100A200003F00F0CDA0644BF8A784CEA020C0988FE
:100A30005FEA016E00F0F0800268282B16D0482B88
:100A40002ED1CC075ED18C0764D44C076AD40C0736
:100A500070D4CC0677D48C0600F17E804C0600F171
:100A60008480BEF1000F00F18980D4E0CC0740F013
:100A70008D808C0700F193804C0700F199800C0762
:100A800000F19F80CC0600F1A5808C0600F1AB80C0
:100A90004C0600F1B180BEF1000F00F1B680BAE063
:100AA00022F00F04CD0718BF44EA0C0222F0F00434
:100AB0008D0748BF44EA0C1222F470644D0748BF0A
:100AC00044EA0C2222F470440D0748BF44EA0C3279
:100AD00022F47024CD0648BF44EA0C4222F470048C
:100AE0008D0648BF44EA0C5222F070644D0648BFA0
:100AF00044EA0C62BEF1000F44BF22F0704242EAA9
:100B00000C7288E022F00F0242EA0C020124046118
:100B10008C079AD522F0F00242EA0C1202240461FA
:100B20004C0794D522F4706242EA0C22042404613A
:100B30000C078ED522F4704242EA0C32082404617C
:100B4000CC067FF588AF22F4702242EA0C421024D2
:100B500004618C067FF582AF22F4700242EA0C52E7
:100B6000202404614C067FF57CAF22F0706242EADB
:100B70000C6240240461BEF1000F4CD522F070429B
:100B8000802542EA0C72056145E000BF22F00F02A9
:100B900042EA0C02012444618C077FF56DAF22F01C
:100BA000F00242EA0C12022444614C077FF567AF61
:100BB00022F4706242EA0C22042444610C077FF59F
:100BC00061AF22F4704242EA0C3208244461CC0640
:100BD0007FF55BAF22F4702242EA0C42102444619C
:100BE0008C067FF555AF22F4700242EA0C522024A5
:100BF00044614C067FF54FAF22F0706242EA0C620E
:100C000040244461BEF1000F05D522F070428025DA
:100C100042EA0C7245610260B1F5807F38BFB0BD19
:100C20004268282B16D0482B2CD1CB055CD48B05E1
:100C300063D44B056AD40B0571D4CB0479D48B04EF
:100C400000F181804B0400F18880090400F18F805D
:100C50004260B0BDCB0500F193808B0500F19A8016
:100C60004B0500F1A1800B0500F1A880CB0400F139
:100C7000AF808B0400F1B6804B0400F1BD80090405
:100C8000E6D5C3E022F00F03CD0548BF43EA0C02CE
:100C900022F0F0038D0548BF43EA0C1222F4706382
:100CA0004D0548BF43EA0C2222F470430D0548BFAE
:100CB00043EA0C3222F47023CD0448BF43EA0C42CD
:100CC00022F470038D0448BF43EA0C5222F0706393
:100CD0004D0448BF43EA0C62090444BF22F070414E
:100CE00041EA0C724260B0BD22F00F0242EA0C02EF
:100CF0004FF4807303618B059BD522F0F00242EA2A
:100D00000C124FF4007303614B0594D522F470620A
:100D100042EA0C224FF4806303610B058DD522F467
:100D2000704242EA0C324FF400630361CB047FF55A
:100D300086AF22F4702242EA0C424FF480530361E2
:100D40008B047FF57FAF22F4700242EA0C524FF41D
:100D5000005303614B047FF578AF22F0706242EAE2
:100D60000C624FF48043036109047FF571AF22F0F8
:100D7000704141EA0C724FF4004101614260B0BD24
:100D800022F00F0242EA0C024FF4807343618B059C
:100D90007FF566AF22F0F00242EA0C124FF40073C6
:100DA00043614B057FF55FAF22F4706242EA0C228B
:100DB0004FF4806343610B057FF558AF22F4704216
:100DC00042EA0C324FF400634361CB047FF551AF2C
:100DD00022F4702242EA0C424FF4805343618B04A8
:100DE0007FF54AAF22F4700242EA0C524FF40053EE
:100DF00043614B047FF543AF22F0706242EA0C621C
:100E00004FF48043436109047FF522AF22F0704123
:100E100041EA0C724FF4004141614260B0BD0000F4
:100E20004FF6FF71C0F2024101607047002941F2A4
:100E30001401C4F202010A680CBF22EA0000104348
:100E400008607047002941F21C01C4F202010A68DF
:100E50000CBF22EA0000104308607047002941F2ED
:100E60001801C4F202010A680CBF22EA0000104314
:100E70000860704710B541F20404C4F2020422680D
:100E800002F00C02082A41F20022C0F27A0219D1C3
:100E90002368D4F800C0C3F3834E5FEACC330EF16D
:100EA000020C07D440F60012C0F23D020CFB02F225
:100EB00008E000BFA36A03F00F030133B2FBF3F2B3
:100EC00002FB0CF20260236842F2BF21C3F303135A
:100ED000C0F60001CB5CDA4042602368C3F3022312
:100EE000CB5C22FA03F383602368C3F3C223C95C9B
:100EF00042F2BB2322FA01F1C1602268C0F600036E
:100F0000C2F381329A5CB1FBF2F1016110BD0000C5
:100F100082B041F20400C4F2020050F8041C002226
:100F200041F0010140F8041C0168CFF6FF021140B6
:100F3000016050F8041C4FF6FF72CFF6F6621140C4
:100F400040F8041C50F8041C21F4802140F8041CD3
:100F5000016821F4FE0101604FF41F01416000218E
:100F600081620191009150F8041C41F4803140F8F5
:100F7000041C00BF50F8041C01F4003100910199D9
:100F800001310191009919B90199B1F5A06FF1D121
:100F900050F8041C890354BF0021012100910099DD
:100FA000012941D1016801600168016001680160A7
:100FB000016821F47C110160016841F4981101601D
:100FC00050F8041C41F0807140F8041C50F8041CD7
:100FD00089015FBF50F8041C5FEA811150F8041CBE
:100FE0005FEA811103D450F8041C8901EED5016831
:100FF00021F003010160016841F00201016000BFBE
:10100000016801F00C0108290ED0016801F00C0103
:10101000082909D0016801F00C01082904D00168F1
:1010200001F00C010829EBD14EF60850CEF2000079
:101030004FF00061016002B07047000042F61040BE
:10104000C4F20100018821F00101018000218182A8
:1010500040F28130C2F200000178A9B140F27E3145
:10106000C2F200010A7840F60C4082F00103C4F29B
:1010700001000B700168002A0CBF41F0400121F013
:1010800040010160704700BF0121017070470000FE
:1010900040F21040C4F20000018821F001010180FB
:1010A0000021818240F26730C2F200004178C9B16C
:1010B00040F26A31C2F200010A8840F2AE23C2F265
:1010C00000031A804A8840F2D023C2F200031A803B
:1010D000898840F27C320378C2F200021180591CE8
:1010E00001707047012141707047000040F6100008
:1010F000C4F20000018821F00101018000218182F9
:1011000040F28230C2F20000017869B340F27E30D2
:1011100040F60C41C2F20000C4F2010100780A68F6
:10112000002822F4805218BF02F580520A6040F273
:10113000AE2040F27831C2F20000C2F20001008815
:101140000988884218BF00F041BF40F2D02040F229
:101150007A31C2F20000C2F2000100880988884298
:1011600008BF704700F032BF0121017070470000D6
:1011700080B541F21040C4F20000018821F0010165
:1011800001800021818240F23A30C2F200000178F1
:10119000B1B1417881F00102427040F60C40C4F2D6
:1011A00001000268002922F4806208BF02F5806213
:1011B000026000F031FABDE8804000F067BA00BF7D
:1011C0000121017080BD0000C94301827047000009
:1011D0000288002918BF012122F001021144018078
:1011E00070470000B0F808C011435FFA8CFC41EA78
:1011F000032141EA0C010181018941F4804101810F
:1012000070470000002A82890CBF22EA01011143C5
:1012100081817047B0B5028C22F001020284038CF8
:101220008288B0F818C00C8923F002032343A0F190
:1012300080444D88A4F59634B1F800E04FEAB42418
:10124000072C43EA050313D8012505FA04F414F02A
:10125000E50F0DD04C8923F00C0324F004048D8895
:1012600023438C892B4322F44072CD8922432A43A5
:101270002CF0730545EA0E0582800583C9888186B6
:101280000384B0BDB0B5028C43F2004422F01002DA
:101290000284028C8588B0F818C00B8922F02002E5
:1012A00042EA03124B88C4F20104B1F800E0A04204
:1012B00042EA031205D042F60043C4F20103984209
:1012C00012D14B896FF0400422F0C00204EA0313EC
:1012D0008C881A4342EA04128C8925F44063CD8934
:1012E00043EA840343EA85052CF4E64343EA0E23EC
:1012F00085800383C98801870284B0BDB0B5028CA4
:1013000043F2004422F480720284028C8588B0F893
:101310001CC00B8922F4007242EA03224B88C4F2FB
:101320000104B1F800E0A04242EA032205D042F6EF
:101330000043C4F20103984212D14B8940F2FF44AA
:101340001B0222F44062A3438C881A4342EA04221F
:101350008C8925F44053CD8943EA041343EA0515EB
:101360002CF0730343EA0E0385808383C988818749
:101370000284B0BD70B5028C43F2004622F4805264
:101380000284048C8288838BB1F800E00D89B1F867
:1013900002C0C4F20106B04205D042F60046C4F2D3
:1013A0000106B04204D18E8922F4804242EA8612BC
:1013B00023F4E64343EA0E2324F40054828083831B
:1013C00044EA0534C98844EA0C32A0F8401002848B
:1013D00070BD00000021C160816041600160704704
:1013E00040F6FF33B0F800C0C4F2000398420FDCAF
:1013F000B0F1804F1ED040F20043C4F20003984287
:1014000018D040F60003C4F20003984212D016E050
:1014100040F60043C4F2000398420BD043F200436D
:10142000C4F20103984205D042F60043C4F201031E
:10143000984204D14B882CF0700243EA020C41F22E
:10144000004240F48063C4F20002934204D0CA8890
:101450002CF4407342EA030CA0F800C08A8882850D
:10146000A0F18042A2F596320B884FEAB222072AF9
:10147000038507D8012303FA02F212F0E50F1CBF1F
:10148000097A018601218182704700000022002133
:10149000CFF6FF720180C180C0F802200172704750
:1014A00070B540F23835C2F20005687843F60004A2
:1014B000C4F2010450B32088400612D501262E70D4
:1014C00000F04AF968B90020287040F24600C2F2E4
:1014D000000080F8E46000F05DF90146204600F06D
:1014E0008DF840F60C41C4F2010128780A68002802
:1014F00022F4006218BF02F500620A60204640F242
:101500002661BDE8704000F00BB800BF0120687094
:10151000204640F22661BDE8704000F001B80000AE
:10152000090A012202FA01F1C94301807047000053
:101530008289002918BF012122F4005242EA413178
:101540008181704770B586B00446008A0D46C9880F
:1015500020F4405008432082A0894EF6F311084041
:10156000A9882A896B89084310431843A081A08A5F
:10157000A98920F44070084301AEA0823046FFF7ED
:1015800079FC43F6000106F10800C4F201018C4227
:1015900008BF06F10C0000681922B4F90C10504382
:1015A0002A680123B1F1FF3FC8BF022302FA03F109
:1015B000B0FBF1F048F21F51C5F2EB11A0FB012383
:1015C0005A096FF0630302FB0300B4F90C300326E1
:1015D000B3F1FF3FC8BF042600FA06F000F1320065
:1015E000A0FB01014FF00700C8BF0F2000EA511017
:1015F00040EA0210208106B070BD00006FF35F2149
:10160000818070474FF4165100224FF4402380E848
:101610000E0082817047000040F60C01C4F2010107
:1016200040F27F3251F8040CC2F20002137840F607
:101630000C4CC007C4F2010C10D07BB90120107013
:10164000086840F480700860086840F40060086032
:10165000DCF8000040F4004115E000BF51F8040C34
:101660009BB110F0010018BF70470020107008688F
:1016700020F480700860086820F400600860DCF8DE
:10168000000020F40041CCF80010704780B541F212
:101690000841C4F2010140F280300B68C2F2000040
:1016A00002785B0716D5AAB90121017040F60C40FB
:1016B000C4F20100016841F020010160016841F0BD
:1016C0004001016000F070FC00F04AFCBDE8804081
:1016D00000F058BC0968002A08BF80BD11F0040161
:1016E00016D10021017040F60C40C4F201000168DF
:1016F00021F020010160016821F04001016000F04B
:1017000015FC00F0D5FBBDE8804000F0FFBB00BF3A
:1017100080BD0000B0B541F22405C4F200050446C6
:101720000021284620F824190121FFF751FD00BFB0
:101730002888A04208D22888A04205D22888A04242
:1017400002D22888A042F3D3A5F124000021BDE8ED
:10175000B040FFF73DBD000040F24601C2F200017B
:1017600091F8E2000028B0FA80F04FEA501004BF70
:10177000002281F8E420704740F24601C2F20001E5
:1017800091F8E220885491F8E200013081F8E200FB
:101790007047000040F24601C2F2000191F8E000FB
:1017A0004FF0000C085C91F8E03001F803C091F8AC
:1017B000E03091F8E220934202BF81F8E0C081F866
:1017C000E2C0704791F8E020013281F8E0207047D4
:1017D00098B040F24600C2F20000DF2142F200441D
:1017E00080F8E110E0214FF00008C4F2010480F815
:1017F000E31080F8E48080F8E28000F061F900F006
:101800002DFB00F069FA00F015FA00F00DF900F078
:10181000DFF900F0BFFA00F0F3FA00F025F900F06C
:101820008DFA4EF21940CEF20000102180F80080AF
:10183000C17001714171817701200121FFF702FB25
:1018400015AD2846FFF722FE182015904FF4806949
:101850004FF0804029468DF85C80CDF85890FFF716
:10186000BFFD11AD2846FFF7B5FD6020C0F20100B5
:1018700011904FF480774FF080402946ADF84A70C0
:10188000FFF700FD4FF080402946FFF737FD4FF08E
:1018900080402946FFF76EFD4FF400700121FFF7ED
:1018A000DDFA01200121FFF7C1FA0DF1300A50469F
:1018B000FEF790FF01AE3046FFF7AAF840F26A301B
:1018C000C2F200000290802006902020099004F1CE
:1018D0004C000797082701904FF40050C4F202070C
:1018E00004250A9038463146CDE90385CDF82C8091
:1018F000CDF82090CDF81480FFF766F83846012126
:10190000FFF756F84FF460200E9040F20110ADF84A
:10191000340020465146CDF83C80CDF830808DF81B
:101920004050FEF7E5FE2046042101220723FEF782
:1019300009FF2046052102220723FEF703FF204668
:10194000102103220723FEF7FDFE20461121042269
:101950000723FEF7F7FE20460121FEF7AFFE2046E3
:101960000121FEF7B3FE0120FEF73CFF2046FEF703
:101970001BFF00BF2046FEF7B7FE0028FAD1204625
:10198000FEF722FF2046FEF7ABFE0028FAD12046E4
:101990000121FEF793FE20460121FEF797FE204627
:1019A0000121FEF707FF4FF080400121FFF710FCF7
:1019B00004F5A0500121FFF7BBFD00F089FA00F00B
:1019C0009BFA00F08FFA00F0C1FA4FF4487000F073
:1019D00023F84FF4487000F00FF84FF4487000F00F
:1019E00013F84FF4B770FFF795FEFEF71FFF00F0F6
:1019F00091FB00BFFEE7000044F62C01C4F2010198
:101A0000088040080881704744F22C41C4F201016B
:101A1000088040080881704744F22C01C4F201019B
:101A20000880400808817047B0B584B010200121BB
:101A3000FFF708FA01AC2046FFF728FD002041F22D
:101A40000005ADF80A008DF80C0045F6C050C4F250
:101A50000005019028462146FFF7C2FC288840F087
:101A60000100288004B0B0BDB0B588B04FF480202C
:101A70000121FFF7F3F905AC2046FFF707FD002031
:101A80008DF81C00182044F6000505902020C4F2B3
:101A90000105069028462146FFF7A2FC01AC20462E
:101AA000FFF798FC6020C0F2010001901020ADF813
:101AB0000A0028462146FFF7ADFB08B0B0BD000084
:101AC0002DE9F04381B0042001214FF00408FFF715
:101AD000C5F908200121FFF7C1F9102001214FF0BD
:101AE0001009FFF7BBF920200121FFF7B7F96C4679
:101AF0002046FFF795F9012040F60005C2F60200E6
:101B0000C4F20105009028462146FEF787FF802099
:101B100005F58066ADF8000030462146FEF77EFFF1
:101B20000F2005F50067ADF8000038462146FEF7A6
:101B300075FF05F540602146ADF80080FEF76EFFA9
:101B40004FF41060ADF80000284621468DF8039050
:101B5000FEF764FF4BF6E040ADF80000304621464A
:101B6000FEF75CFF4FF6C070ADF800003846214626
:101B7000FEF754FF00208DF80300F020ADF80000C0
:101B800028462146FEF74AFF0320ADF80000304604
:101B90002146FEF743FF3020ADF8000038462146CD
:101BA000FEF73CFF18208DF8030041F20E60ADF8FF
:101BB000000028462146FEF731FF4FF48640ADF87D
:101BC000000030462146FEF729FF01B0BDE8F08352
:101BD00070B584B020200121FFF734F901AC204614
:101BE000FFF754FC45F6C05041F200450190152026
:101BF000C4F2000500260290284621468DF80C60AC
:101C0000FFF7EEFBAE84A88A1E2140F00100A882F7
:101C10002846FFF7D9FA284601210122FFF7F2FAF8
:101C20004EF20410CEF200004FF40001016004B047
:101C300070BD00002DE9F04184B040F60004C4F20C
:101C400000042046012100220026FFF7DBFA4EF2B5
:101C50000018CEF200084FF08047C8F88070BFF33C
:101C60004F8F04200121BFF36F8FFFF7EBF801AD19
:101C70002846FFF70BFC45F6C05001903220029039
:101C8000204629468DF80C60FFF7AAFBA684A08A9F
:101C90001E2140F00100A0822046FFF795FA204661
:101CA00001210122FFF7AEFA40F23C3540F2BB249D
:101CB000C8F80070C2F20005C2F20004681C214698
:101CC0001522FEF7FAFB05F1160021461522FEF754
:101CD000F4FB04B0BDE8F08170B584B002200121AE
:101CE000FFF7B0F801AC2046FFF7D0FB45F6C05037
:101CF00040F2004501900A20C4F20005002602903F
:101D0000284621468DF80C60FFF76AFBAE84A88A4E
:101D10001E2140F00100A8822846FFF755FA284608
:101D200001210122FFF76EFA4EF20010CEF2000000
:101D30004FF00051016004B070BD0000B0B588B034
:101D40004FF400300121FFF789F805AC2046FFF77A
:101D50009DFB00208DF81C00182044F200450590E2
:101D60002020C4F20105069028462146FFF738FBE3
:101D700001AC2046FFF72EFB6020C0F2010001906D
:101D80001020ADF80A0028462146FFF743FA08B0B4
:101D9000B0BD0000B0B588B04FF480300121FFF72E
:101DA0005DF801200121FFF759F81C20C4F2010061
:101DB000016805AC41F0010101602046FFF766FBB8
:101DC00000208DF81C00182044F20005059020200A
:101DD000C4F20105069028462146FFF701FB01AC3D
:101DE0002046FFF7F7FA6020C0F2010001901020B2
:101DF000ADF80A0028462146FFF70CFA08B0B0BD3E
:101E0000B0B584B04FF400600121FFF727F801ACB2
:101E10002046FFF73BFB002042F600458DF80C0002
:101E200001904FF44860C4F2010502902846214613
:101E3000FFF7D6FA2846002100220023FFF7D2F947
:101E4000284601210122FFF7DDF94EF20010CEF203
:101E500000004FF00071016004B0B0BDB0B584B0B7
:101E60004FF480400121FEF7F9FF6C462046FFF752
:101E7000C9FB4FF4165043F60C05009000204FF4B8
:101E80000021C4F20105ADF80C00CDE90101A5F176
:101E90000C002146FFF756FB2888202140F0400027
:101EA00028804EF20410CEF20000016004B0B0BDF4
:101EB00044F60000C4F20100018841F001010180F4
:101EC000B0F8441041F40041A0F8441070470000FD
:101ED00041F20040C4F20000018841F0010101809C
:101EE0007047000040F60000C4F20000018841F095
:101EF000010101807047000040F20040C4F2000080
:101F0000018841F0010101807047000044F2004067
:101F1000C4F20100018841F001010180B0F84410D1
:101F200041F40041A0F844107047000044F2000062
:101F3000C4F20100018841F001010180B0F84410B1
:101F400041F40041A0F844107047000042F6004000
:101F5000C4F20100018841F00101018070470000D6
:101F600044F60000C4F20100018821F00101018063
:101F7000B0F844106FF3DF31A0F8441000218184E1
:101F80007047000044F20040C4F20100018821F0D3
:101F900001010180B0F844106FF3DF31A0F8441064
:101FA000002181847047000044F20000C4F2010067
:101FB000018821F001010180B0F844106FF3DF3196
:101FC000A0F8441000218184704700002DE9F047FB
:101FD00082B040F2AE28C2F2000842F2D225B8F830
:101FE0000020C0F600050DF1030420462946FEF747
:101FF00029F940F23C3740F2B026C2F20007C2F2A3
:102000000006781C31460422FEF757FAB81D214617
:102010000422FEF752FA40F2D029C2F20009B9F8C0
:10202000002020462946FEF70DF907F10D00314644
:102030000422FEF742FA07F1120021460422FEF7BD
:102040003CFA40F27C3AC2F2000ABAF8002020467C
:102050002946FEF7F7F807F1160031460422FEF78D
:102060002CFA07F11B0021460422FEF726FA3A78E3
:1020700020462946FEF7E6F807F122003146042201
:10208000FEF71BFA07F1270021460422FEF715FA96
:10209000B8F8000040F27831C2F200010880B9F8C7
:1020A000000040F27A31C2F200010880BAF8000064
:1020B00040F27631C2F20001088040F27230C2F282
:1020C0000000008840F274313A78C2F200010880C2
:1020D000501C387002B0BDE8F087000080B5FFF7F3
:1020E0003BFB002818BF80BD40F24600C2F2000052
:1020F00090F8E41001B180BD012180F8E410FFF7F1
:1021000049FB014643F60000C4F20100BDE88040EF
:10211000FFF774BA2DE9F04381B000200021FEF7EB
:10212000BBFB40F22F28C2F2000840461521FEF703
:102130009FFB3220FFF7EEFA00200021FEF7ACFBF8
:1021400040F24429C2F2000948461521FEF790FBEF
:102150003220FFF7DFFA00200021FEF79DFB40F25E
:102160005927C2F2000738461521FEF781FB3220BD
:10217000FFF7D0FA00200021FEF78EFB40F26E241C
:10218000C2F2000420461521FEF772FB3220FFF751
:10219000C1FA00200021FEF77FFB40F28325C2F246
:1021A000000528461521FEF763FB3220FFF7B2FA3F
:1021B00000200021FEF770FB40F29820C2F20000E0
:1021C0001521FEF755FB00200121FEF765FB40F2CB
:1021D0000006C2F2000630461521FEF749FB40F228
:1021E000B630FFF797FA00200021FEF755FB28468E
:1021F0001521FEF73DFB3220FFF78CFA002000216D
:10220000FEF74AFB20461521FEF732FB3220FFF78E
:1022100081FA00200021FEF73FFB38461521FEF72A
:1022200027FB3220FFF776FA00200021FEF734FB6F
:1022300048461521FEF71CFB3220FFF76BFA002001
:102240000021FEF729FB40461521FEF711FB4FF454
:102250009670FFF75FFA00200021FEF71DFBFEF7E6
:10226000CFFA00200121FEF717FB06F1150015211A
:10227000FEF7FEFA40F2E240FFF74CFA002001219F
:10228000FEF70AFB06F12A001521FEF7F1FA40F2EB
:10229000E24001B0BDE8F043FFF73CBA30380A280D
:1022A00001D20120704700207047040000080000A0
:1022B00000000000000200010000100204060800F7
:1022C00000000001020304010203040607080925B7
:1022D0006400253034640000F8220008000000206B
:1022E000D40200005C01000860240008D80200202D
:1022F000B0060000B8010008101552414944454E8F
:10230000204D45495B56335D202033356D6D1015EA
:1023100046573A2052454C5F312E30202031312E25
:1023200032303235480B564B3A7A617A31323820A6
:10233000013915131B5205E11B5B324A12DF22E003
:1023400010970102030405060708090A0B0C0D0E7D
:102350000F101112131415161718191A1B1C1D1E15
:102360001F202122232425262728292A2B2C2D2E05
:102370002F303132333435363738393A3B3C3D3EF5
:102380003F404142434445464748494A4B4C4D4EE5
:102390004F505152535455565758595A5B5C5D5ED5
:1023A0005F606162636465666768696A6B6C6D6EC5
:1023B0006F707172737475767778797A7B7C7D7EB5
:1023C0007F898182838485868788898A8B8C8D8E9C
:1023D0008FCDCCB9DBFBFEFD455E7FDBB063B5C6C0
:1023E000F2F063F1FCDA8040383690919293949544
:1023F000969798999A9B9C9D9E9FA0A1A2A3A4A505
:10240000A6A7A8A9AAABACADAEAFE0E1E2E3E4E5D4
:10241000E6E7E8E9EAEBECEDEEEF1B5B304B200181
:102420004809CBF3F72D312D33350E1129058A924A
:10243000156A9115AA90154A9015CA90151916118A
:102440001914D9151390201905E915229017FF0FBB
:10245000C0D6CF3A198A4C3B30487ED90123FF0FB2
:0400000508000205E8
:00000001FF
