:020000040800F2
:10000000C80800201102000819020008890D000824
:100010001D0200081F020008210200080000000065
:1000200000000000000000000000000023020008A3
:10003000250200080000000027020008290200082D
:100040002B0200082B0200082B0200082B020008DC
:100050002B0200082B0200082B0200082B020008CC
:100060002B0200082B0200082B02000835090008AB
:100070002B0200082B0200082B0200082B020008AC
:100080002B0200082B0200082B02000800000000D1
:100090000000000000000000000000002B0200082B
:1000A0002B020008FD0F00082B0200082B0200089D
:1000B0002B02000871100008051400082B0200082C
:1000C0002B0200082B0200082B0200082B0200085C
:1000D0002B020008CD1700082B0200082B02000895
:1000E0002B0200082B0200082B0200080000000071
:1000F0000000000000000000000000000000000000
:1001000000000000000000000000000000000000EF
:1001100000000000000000002B020008C5140008C9
:1001200000F002F800F065F814A696E8000CB2445E
:10013000B344DA4501D100F05CF8BAE80F000FA62D
:1001400096E83000A5EB040504EB0607AAEB0704CC
:10015000A7F101074FEA15154FEA3414A4F1010481
:10016000AC4201D300F045F813F0010F18BFFB1AA1
:1001700043F0010300F001F8DBE71847345E0000AC
:10018000545E00000A4410F8014B14F00F0508BF3C
:1001900010F8015B240908BF10F8014B6D1E05D053
:1001A00010F8013B6D1E01F8013BF9D1641E03D02C
:1001B000641E01F8015BFBD19142E4D3704700005B
:1001C000704700000023002400250026103A28BFB5
:1001D00078C1FBD8520728BF30C148BF0B607047B9
:1001E000642900F07180002070471FB51FBD10B555
:1001F00010BD00F02EFA1146FFF7F7FF02F06EFA7D
:1002000000F04CFA03B4FFF7F2FF03BC00F054FA1D
:100210000948804709480047FEE7FEE7FEE7FEE79A
:10022000FEE7FEE7FEE7FEE7FEE7FEE704480549D6
:10023000054A064B70470000D10E00082101000856
:10024000C8020020C8080020C8040020C8040020FC
:100250000FB41CB5074B06AA7B446946009005986D
:1002600000F0BDF90020694600F0CCF91CBC5DF837
:1002700014FB0000A903000070B5044685690068FE
:10028000C10601D5302600E02026C00707D070BD8A
:10029000D4E9012130469047206A401C20626D1E3F
:1002A000F6D570BD70B5044685690078C00707D1E2
:1002B00070BDD4E9012120209047206A401C2062B3
:1002C0006D1EF6D570BD00002DE9F04106460024F4
:1002D00010687529314616A510D0AFF300800028AC
:1002E00002DA404213A507E031688A0701D512A55A
:1002F00002E0490704D511A5012401E0AFF3008015
:1003000000210A2206F1240709E0B0FBF2FCB0FB51
:10031000F2F302FB1C00303078541846491C0028C8
:10032000F3D123462A463046BDE8F04100F0F9B843
:10033000000000002D0000002B0000002000000045
:100340002DE9F05F894604464FF0000ADFF824B13A
:10035000FB44C0F820A02046E168884700287DD0F3
:10036000252806D0D4E901219047206A401C20624C
:10037000F1E700255F462046E168884720280646C9
:1003800007DB312E05D2B81910F8200C08B105434F
:10039000F1E7A80701D525F00405C4F81CA0002743
:1003A000C4F818A02A2E09D0304603F0F6FB38B363
:1003B00004EB8708303EC8F8186019E059F8041BB0
:1003C000204604EB87029161E1688847012F0646C9
:1003D00018D1E069002820DA25F020051DE0D8F8C2
:1003E000180000EB800006EB40003038C8F8180019
:1003F0002046E1688847064603F0CFFB0028EED18F
:10040000012F0AD02E2E08D12046E16888477F1C94
:100410000646022F45F02005C4DBA069002803DA58
:10042000404245F00105A061E80701D025F0100524
:10043000A6B1A6F14100192802D8203645F400657E
:100440004A463146204625604D46FFF7C9FE60B159
:10045000012807D0ED1D25F0070000E007E000F1BE
:10046000080978E705F1040975E730467AE7206A5C
:10047000BDE8F09F543800004FF0000200B513466D
:1004800094469646203922BFA0E80C50A0E80C50B4
:10049000B1F12001BFF4F7AF090728BFA0E80C5065
:1004A00048BF0CC05DF804EB890028BF40F8042B5E
:1004B00008BF704748BF20F8022B11F0804F18BFCB
:1004C00000F8012B704710B5044610F0030F08BF69
:1004D00011F0030F40F015804FF0013E121FC0F2E3
:1004E0000E8051F8043BA3EB0E0C2CEA030C1CEA23
:1004F000CE1C08BF40F8043BF0D0A1F1040102F18A
:100500000402521E08DB11F8013B00F8013B002BEE
:10051000F7D1114600F07BF8204610BD70477047B8
:1005200070472DE9F0470D4699469246044600F182
:1005300024080168880604D5E06921F010012160D3
:1005400000E00120A84201DD471B00E00027A1696F
:100550007A1902EB0900081AA0612078C00602D4BB
:100560002046FFF789FE002608E0D4E901211AF8A9
:1005700006009047206A401C761C20624E45F4DB42
:100580002078C0060AD52046FFF776FE06E0D4E9BB
:10059000012130209047206A401C2062381EA7F1BC
:1005A0000107F4DC07E0D4E9012118F805009047C1
:1005B000206A401C2062281EA5F10105F3DC2046BC
:1005C000FFF770FE2078000602D50220BDE8F08714
:1005D0000120FBE701694A1C02610878704700B5F9
:1005E0008FB0CDE901310021059105497944CDE96C
:1005F000031011466846FFF7A3FE0FB000BD0000D0
:10060000E5FFFFFF0A6802F8010B0A6070474FF030
:1006100000020429C0F0128010F0030C3FF42EAF4A
:10062000CCF1040CBCF1020F18BF00F8012BA8BFDD
:1006300020F8022BA1EB0C01FFF720BF5FEAC17C81
:1006400024BF00F8012B00F8012B48BF00F8012B54
:100650007047754600F02CF8AE46050069465346D3
:1006600020F00700854618B020B5FFF7DFFDBDE894
:1006700020404FF000064FF000074FF000084FF009
:10068000000BAC46ACE8C009ACE8C009ACE8C00956
:10069000ACE8C00921F007018D46704710B504464B
:1006A000AFF300802046BDE81040FFF7ABBD00006F
:1006B000004870478801002001491820ABBEFEE7C2
:1006C00026000200704700008268002922F0010223
:1006D00018BF0132826070478268002922F480725C
:1006E00018BF02F580728260704700008068C0F316
:1006F000800070478068C0F3C000704780B54268D2
:100700004FF6FF63CFF6F07302EA030C0B680A7929
:1007100043EA0C0343EA0222426082684FF2FD730F
:10072000CFF6F1731A40D1E902C391F805E01A43FC
:1007300042EA0C0242EA4E028260C26A097C22F45A
:1007400070020139C9B242EA0151C16280BD0000A4
:10075000B0B501EB410C4FF0100E092988BFACF188
:100760001E0C88BF4FF00C0E50F80E40072505FAFE
:100770000CF5AC4303FA0CF323432C256FF0400433
:1007800040F80E300D2A38BF302538BF6FF02204F4
:1007900002EB8203072A3CBF34256FF004041A19C8
:1007A00043591F249440A343914019434151B0BD84
:1007B000816841F00801816070470000826800296B
:1007C00022F4A00218BF02F5A00282607047000068
:1007D000816841F0040181607047000000210160E0
:1007E0008180C0E9021101210174704742F2084181
:1007F000C4F201010A68002822F4000218BF02F5C1
:1008000000020A607047000080B51B2001F0D6FE90
:100810005B2001F0D3FE322001F0D0FE4A2001F02F
:10082000CDFEBDE8804003F0B7B8000080B51B20C6
:1008300001F0C4FE5B2001F0C1FE302001F0BEFEDD
:100840004B2001F0BBFEBDE8804003F0A5B80000DE
:1008500010B51B2001F0B2FE5B2001F0AFFE32208C
:1008600001F0ACFE4A2001F0A9FE03F095F840F239
:100870004014C2F2000420783521A17001F09EFEE0
:10088000607801F09BFEA07801F098FEBDE8104072
:1008900003F082B8002908BF03F07EB870B543F6B4
:1008A000CD360C46451EC0F6000600BF15F8010FF8
:1008B000305C01F083FE013CF8D1BDE8704003F0EC
:1008C0006BB80000B0B582B045F686750C46312194
:1008D000C0F60005ADF80610ADF80410421C0DF18D
:1008E00006002946FFF7B4FC621C01A82946FFF761
:1008F000AFFC9DF8060040F25414C2F200042071CF
:100900009DF804102078A17001F058FE607801F085
:1009100055FEA07801F052FEE07801F04FFE2079FC
:1009200001F04CFE607901F049FE02B0BDE8B04034
:1009300003F032B870B50420C4F20200022140F284
:10094000EC1340F2501C0160C2F20003C2F2000C32
:100950001888BCF8001040F2621E084482B240F2CF
:1009600006255008C2F2000EC2F20005ACF80000E5
:100970005888BEF800109C882E880844311989B226
:1009800040F25A244908C2F200042980D9882588F7
:1009900080B2294489B249082180198940F216237E
:1009A000C2F200031C884508214489B24908B2F507
:1009B0007A6FAEF80050198024BF40F2CF71ACF8C6
:1009C0000010B0F57A6F24BF40F2CF70AEF800008F
:1009D00070BD000002684FF6FE7C42F00103002962
:1009E00008BF02EA0C03036070470000002A026897
:1009F0000CBF22EA01011143016070472DE9F04765
:100A0000026847F6F073D1E9026A9A4301F11007D0
:100A1000B0CF01F11C0E3243D1E900899EE80A50A3
:100A20001A4322432A433A43114341EA0C0141EA63
:100A30000E010160C0F804A0C0F80880C0F80C9056
:100A4000BDE8F08780B52C21FFF716FD80BD0000C2
:100A500091F803C00CF00F035FEACC6244BF8A78C0
:100A6000134370B509885FEA016E00F0F0800268F8
:100A70005FFA8CF4282C17D0482C2FD1CC075FD1EB
:100A80008C0764D44C076AD40C0770D4CC0677D496
:100A90008C0600F17E804C0600F18480BEF1000FD0
:100AA00000F18980D2E000BFCC0740F08B808C073A
:100AB00000F190804C0700F196800C0700F19C80BB
:100AC000CC0600F1A2808C0600F1A8804C0600F153
:100AD000AE80BEF1000F00F1B380B7E022F00F044A
:100AE000CD0718BF44EA030222F0F0048D0748BF87
:100AF00044EA031222F470644D0748BF44EA03221B
:100B000022F470440D0748BF44EA033222F47024F3
:100B1000CD0648BF44EA034222F470048D0648BF64
:100B200044EA035222F070644D0648BF44EA03626F
:100B3000BEF1000F44BF22F0704242EA037285E02A
:100B400022F00F021A43012404618C079AD522F087
:100B5000F00242EA0312022404614C0794D522F405
:100B6000706242EA0322042404610C078ED522F449
:100B7000704242EA033208240461CC067FF588AF54
:100B800022F4702242EA0342102404618C067FF5AD
:100B900082AF22F4700242EA0352202404614C0620
:100BA0007FF57CAF22F0706242EA03624024046168
:100BB000BEF1000F4AD522F07042802642EA03724D
:100BC000066143E022F00F021A43012444618C07BE
:100BD0007FF570AF22F0F00242EA03120224446172
:100BE0004C077FF56AAF22F4706242EA03220424C4
:100BF00044610C077FF564AF22F4704242EA03328D
:100C000008244461CC067FF55EAF22F4702242EAEC
:100C10000342102444618C067FF558AF22F4700221
:100C200042EA0352202444614C067FF552AF22F081
:100C3000706242EA036240244461BEF1000F05D5B0
:100C400022F07042802642EA037246610260B1F5EA
:100C5000807F38BF70BD4268CC0500F1100E00F1F6
:100C600014040DD522F00F025FFA8CF61A43282ED9
:100C7000254602D0482E03D175464FF480762E606B
:100C80008D050ED522F0F0025FFA8CF642EA0312CF
:100C9000482E754602D0282E03D125464FF4007603
:100CA0002E604D050ED522F470625FFA8CF642EA92
:100CB0000322482E754602D0282E03D125464FF434
:100CC00080662E600D050ED522F470425FFA8CF618
:100CD00042EA0332482E754602D0282E03D125461B
:100CE0004FF400662E60CD040ED522F470225FFA18
:100CF0008CF642EA0342482E754602D0282E03D1D4
:100D000025464FF480562E608D040ED522F47002D5
:100D10005FFA8CF642EA0352482E754602D0282E1E
:100D200003D125464FF400562E604D040ED522F017
:100D300070625FFA8CF642EA0362482E754602D072
:100D4000282E03D125464FF480462E6009B2B1F11A
:100D5000FF3F01DD426070BD22F070425FFA8CF10E
:100D6000482942EA037202D02829F3D1A6464FF45B
:100D70000041CEF80010426070BD00004FF6FF71D8
:100D8000C0F202410160704700F0CCFD10B5C1789F
:100D900000294EF20011CEF200011BD04EF60C528B
:100DA000CEF200021268072323EA12220F23C2F1B7
:100DB000040C23FA02F24378847890F800E003FAF6
:100DC0000CF322401A43120101EB0E0383F80023B7
:100DD00001E000BF80310078012300F01F0203FA18
:100DE00002F2C0F3421041F8202010BD002941F268
:100DF0001401C4F202010A680CBF22EA0000104389
:100E000008607047002941F21C01C4F202010A681F
:100E10000CBF22EA0000104308607047002941F22D
:100E20001801C4F202010A680CBF22EA0000104354
:100E30000860704710B541F20404C4F2020422684D
:100E400002F00C02082A41F20022C0F27A0219D103
:100E50002368D4F800C0C3F3834E5FEACC330EF1AD
:100E6000020C07D440F60012C0F23D020CFB02F265
:100E700008E000BFA36A03F00F030133B2FBF3F2F3
:100E800002FB0CF20260236843F6BD31C3F3031387
:100E9000C0F60001CB5CDA4042602368C3F3022352
:100EA000CB5C22FA03F383602368C3F3C223C95CDB
:100EB00043F6B93322FA01F1C1602268C0F600039B
:100EC000C2F381329A5CB1FBF2F1016110BD000006
:100ED00082B041F20400C4F2020050F8041C002267
:100EE00041F0010140F8041C0168CFF6FF021140F7
:100EF000016050F8041C4FF6FF72CFF6F662114005
:100F000040F8041C50F8041C21F4802140F8041C13
:100F1000016821F4FE0101604FF41F0141600021CE
:100F200081620191009150F8041C41F4803140F835
:100F3000041C00BF50F8041C01F400310091019919
:100F400001310191009919B90199B1F5A06FF1D161
:100F500050F8041C890354BF00210121009100991D
:100F6000012941D1016801600168016001680160E7
:100F7000016821F47C110160016841F4981101605D
:100F800050F8041C41F0807140F8041C50F8041C17
:100F900089010CD450F8041C89015CBF50F8041C72
:100FA0005FEA811103D450F8041C8901EED5016871
:100FB00021F003010160016841F00201016000BFFE
:100FC000016801F00C0108290ED0016801F00C0144
:100FD000082909D0016801F00C01082904D0016832
:100FE00001F00C010829EBD14EF60850CEF20000BA
:100FF0004FF00061016002B070470000B0B542F6EA
:101000001044C4F20104208820F00100208040F246
:10101000B620C2F20000017831B344F20000C4F2FD
:1010200001000188002521F001010180B0F8441081
:101030006FF3DF31A0F8441040F2BC20C2F2000090
:10104000057040F26410C2F200004FF4FA710180A2
:101050004FF4FA7001F088FC40F2BD20C2F20000AB
:101060002D210170A582B0BD01210170B0BD00002D
:101070002DE9F04381B040F21040C4F20000018835
:1010800040F2E81621F00101018000218182C2F2C4
:1010900000063078002800F03D8040F2BD20C2F20A
:1010A0000000017840F23F19243940F2092740F24C
:1010B000BC2840F208242D29C2F20009C2F2000720
:1010C000C2F20008C2F2000400F2B680DFE801F0CC
:1010D00018442868B4B4B46EB436B44E5EB4B4B434
:1010E000B4B4B4B4B4B4B4B4B4B4B4B4B4B4B4B4C0
:1010F000B4B4B4B4B4B4B4B4B4B4B4B4B47E00BF8F
:101100002178002940F0988000217170718026219B
:1011100091E000BF0120307001B0BDE8F08300BF56
:101120007188012200293A7064D02829C0F0848097
:1011300000217170718030217DE000BF718800292D
:1011400058D0962978D340F2C321C2F20001097821
:10115000002971D124216EE040F22721C2F2000162
:10116000097800294AD02B2165E000BF40F26322B4
:10117000C2F20002127840F22821C2F200010123DB
:10118000002A0B704AD0272155E000BF22780021A9
:10119000002A397050D07170718051214BE000BF2E
:1011A00040F22420C2F20000002144E040F252113B
:1011B0000020C2F20001087040F26611C2F2000184
:1011C000012238700A7089F800203EE040F2C02207
:1011D000C2F200027188128891422DD340F250224F
:1011E000C2F200021388002171707180591C1180B5
:1011F000252120E0002070701EE000BF98F800005C
:10120000D0B940F26410C2F200004FF4FA710180CC
:10121000012088F8000001F0E3FE0DE040F2C32158
:1012200040F2C422C2F20001C2F200020978127830
:10123000114301D12321017040F26610C2F2000077
:101240000078B0FA80F040098001717840F60C0512
:101250000023C4F201057288002908BF531C738063
:10126000D5F8001421F040010843C5F8000499F8AE
:101270000000D5F80014002821F0200108BF20311B
:10128000C5F800143878D5F80018002821F48051EA
:1012900018BF01F58051C5F8001898F8000018B182
:1012A00001F09EFE02E000BF01F0FCFE40F22A20A9
:1012B000C2F20000007818B101F048FE02E000BF61
:1012C00001F0BAFE40F29126C2F20006307818B161
:1012D00001F070FE02E000BF01F0CEFE40F20620F9
:1012E000C2F2000001882078B1F5AF6F02D908B9C9
:1012F000012004E04909182902D808B10020207013
:1013000040F25017C2F200073A8840F22C2040F217
:101310004C21C2F20000C2F2000101F0D3F940F208
:101320006214C2F20004228840F2942040F2B421F8
:10133000C2F20000C2F2000101F0C4F940F24E20F6
:10134000C2F200000178286861B140F48070286022
:10135000286820F400602860D5F8000420F40040DC
:101360000BE000BF20F480702860286840F4006023
:101370002860D5F8000440F40040C5F8000440F2AD
:101380002C20C2F2000001F07BF93A8840F24A11A9
:10139000C2F20001012300F0DBFA01F0ADFA40F2E5
:1013A0005E10C2F20000027840F25F10C2F200004C
:1013B00001785AB100291EBF00213170017001F07F
:1013C00029F901B0BDE8F04301F0CEBA11B901210D
:1013D0003170017040F29420C2F2000001F050F927
:1013E000228840F25A11C2F20001002300F0B0FA44
:1013F00001F09EFA01F00EF901B0BDE8F04301F0F2
:10140000B3BA000010B540F61000C4F20000018825
:1014100021F0010101800021818240F2BA20C2F254
:1014200000000178002949D040F60C44C4F20104C0
:1014300001F068FE40F25320C2F200000078D4F8B8
:101440000014002821F4006140F2522018BF01F579
:101450000061C4F80014C2F200000078216800287E
:1014600021F4805140F2C32018BF01F58051216062
:10147000C2F2000000782168002821F4005140F2F7
:10148000C42018BF01F500512160C2F200000078AD
:101490002168002821F4006140F2642018BF01F5A2
:1014A00000612160C2F200000178206800290CBFB1
:1014B00020F4806040F48060206010BD0121017044
:1014C00010BD000041F21040C4F20000018821F07C
:1014D000010101800021818240F2BB20C2F20000A4
:1014E000017849B180B500F03DFE00F0BDFBBDE8DC
:1014F000804000F019BF00BF01210170704700005B
:10150000C9430182704700000288002918BF0121E9
:1015100022F001021144018070470000B0F808C0B9
:1015200011435FFA8CFC41EA032141EA0C0101817D
:10153000018941F48041018170470000002A8289BD
:101540000CBF22EA0101114381817047B0B5028CC2
:1015500022F001020284038C8288B0F818C00C8942
:1015600023F002032343A0F180444D88A4F5963470
:10157000B1F800E04FEAB424072C43EA050313D87E
:10158000012505FA04F414F0E50F0DD04C8923F081
:101590000C0324F004048D8823438C892B4322F40C
:1015A0004072CD8922432A432CF0730545EA0E058B
:1015B00082800583C98881860384B0BDB0B5028C62
:1015C00022F010020284038C8288B0F818E00C89A3
:1015D0004D88B1F800C02C4343F2004523F02003AE
:1015E000C4F20105A84243EA041305D042F60044C0
:1015F000C4F20104A04211D14C896FF0400523F0E0
:10160000C00305EA04148D88234343EA05138C893B
:10161000CD8922F440622C4342EA84022EF4E6454E
:1016200045EA0C2582800583C98801870384B0BD03
:10163000B0B5028C22F480720284038C8288B0F8E8
:101640001CE00C894D88B1F800C02C4343F20045E2
:1016500023F40073C4F20105A84243EA042305D031
:1016600042F60044C4F20104A04211D14C8940F278
:10167000FF45240223F44063AC438D88234343EAAF
:1016800005238C89CD8922F440522C4342EA04126E
:101690002EF0730545EA0C0582808583C988818711
:1016A0000384B0BD70B5028C43F2004622F4805230
:1016B0000284038C8288B0F81CE0B1F800C00C8969
:1016C0004D88C4F20106B04205D042F60046C4F28D
:1016D0000106B04204D18E8922F4804242EA861289
:1016E0002EF4E64646EA0C268280868323F40053D5
:1016F0002C43C98843EA0432A0F84010028470BD2C
:101700000021C160816041600160704740F6FF3395
:10171000B0F800C0C4F2000398420FDCB0F1804F73
:101720001ED040F20043C4F20003984218D040F6A5
:101730000003C4F20003984212D016E040F60043C2
:10174000C4F2000398420BD043F20043C4F20103F9
:10175000984205D042F60043C4F20103984204D1F6
:101760004B882CF0700243EA020C41F2004240F434
:101770008063C4F20002934204D0CA882CF4407300
:1017800042EA030CA0F800C08A888285A0F180425A
:10179000A2F596320B884FEAB222072A038507D8B2
:1017A000012303FA02F212F0E50F1CBF097A018649
:1017B000012181827047000000220021CFF6FF72D4
:1017C0000180C180C0F802200172704710B540F25C
:1017D000BE20C2F20000017843F60004C4F2010406
:1017E000D1B1208840060FD500F0D8FE60B940F294
:1017F0005400C2F20000012180F8E41000F0ECFE79
:101800000146204600F080F8204640F22661BDE8FF
:10181000104000F00BB800BF01210170204640F2DB
:101820002661BDE8104000F001B80000090A01225D
:1018300002FA01F1C9430180704700008289002942
:1018400018BF012122F4005242EA413181817047E0
:1018500070B586B00446008A0D46C98820F4405011
:1018600008432082A0894EF6F3110840A9882A89EE
:101870006B89084310431843A081A08AA98920F4EA
:101880004070084301AEA0823046FFF7D3FA43F61A
:10189000000106F10800C4F201018C4208BF06F104
:1018A0000C0000681922B4F90C1050432A68012377
:1018B000B1F1FF3FC8BF022302FA03F1B0FBF1F020
:1018C00048F21F51C5F2EB11A0FB01235A096FF03A
:1018D000630302FB0300B4F90C300326B3F1FF3FAE
:1018E000C8BF042600FA06F000F13200A0FB010197
:1018F0004FF00700C8BF0F2000EA511040EA021065
:10190000208106B070BD00006FF35F2181807047B9
:101910004FF4165100224FF4402380E80E008281DC
:10192000704700004EF60C50BFF34F8FCEF2000010
:101930000168042201F4E061C0F2FA52114301602F
:10194000BFF34F8F00BF00BF00BF00BFFAE700002A
:1019500010B5B0F5FA6F09D343B1088844F62A519F
:10196000C0F6000101EB4000008810BDB1F800C0D6
:10197000B0F5FA6F08D33BB943F6CE40C0F600008D
:1019800000EB4C00008810BD63B140F22B2EC2F278
:10199000000E9EF80030BCF5E16F11D983B9002329
:1019A000012414E040F2922EC2F2000E9EF80030A4
:1019B00040F2FC54A44521D803BB0023012424E0B9
:1019C0004FEADC04E02C09D843B1012300248EF84F
:1019D000004040F22A24C2F200042370844527D13B
:1019E000088040F22920C2F200000022027040F27A
:1019F0004D20C2F200000270AFE700BF40F2FE547B
:101A0000A44509D343B1012300248EF8004040F2DD
:101A10009124C2F200042370844545D1088043F626
:101A2000CE41C0F6000101EB4000008810BD00BFB0
:101A300040F24C1EC2F2000EBEF90030844571D84F
:101A400003EB0C04B4F5FA6F6CDABCEB020248BF8E
:101A500052424BF6520392B2C0F21E53A2FB032332
:101A600044F60254DAB203F0FC03C0F60004132B70
:101A700088BF132240F2292334F81240C2F2000337
:101A80001A70AEF800400A8840F2CF7C224492B22D
:101A9000624538BF9446A1F800C0BEF900206244F8
:101AA0008242A8BF844676E040F25C1EC2F2000E7D
:101AB000BEF90030844500F2898003EB0C04B4F5D4
:101AC000FA6F80F28380B2EB0C0248BF524202F000
:101AD000FC03132B40F2B523C2F2000388BF13228C
:101AE0001A7045F65E73D2B2C0F6000333F81220C6
:101AF00040F26013C2F200031A800C8804EB020C5F
:101B00001FFA8CF212097C2A88BF4FF0000CA1F852
:101B100000C0B3F900201FFA8CF39A1A8242D8BF92
:101B2000844685E0844538D3634536DAB2EB0C024F
:101B300048BF52424BF6520392B2C0F21E53A2FB70
:101B40000323DAB203F0FC03132B40F24D23C2F25D
:101B5000000388BF13221A7045F65E73C0F60003B7
:101B600033F8122040F24E13C2F200031A800C88A0
:101B700004EB020C1FFA8CF212097C2A88BF4FF08A
:101B8000000CA1F800C0B3F900201FFA8CF31A442E
:101B90008242D8BF8446A1F800C044F62A521FFAF8
:101BA0008CF0C0F600024FF6D82302EB4000CFF6CF
:101BB000FF73C05A40F24413C2F200031880088831
:101BC00002EB4000A0F5A560008810BD844531D32C
:101BD00063452FDABCEB020248BF52424BF6520378
:101BE00092B2C0F21E53A2FB032344F60254DAB2AF
:101BF00003F0FC03C0F60004132B88BF132240F24D
:101C0000902334F81240C2F200031A70AEF800407C
:101C10000A8840F2CF7C224492B2624538BF944693
:101C2000A1F800C0BEF9002062448242A8BF8446E9
:101C3000A1F800C043F6CE421FFA8CF0C0F60002B5
:101C40004FF6B84302EB4000CFF6FF73C05A40F2A4
:101C50004613C2F200031880088802EB4000A0F58A
:101C60005270008810BD0000B0B540F2BD25C2F230
:101C70000005287840F255241F383128C2F20004AC
:101C800000F22A82DFE810F032009A005E0028029B
:101C9000BE00280228022802E2006A00A000A60076
:101CA000280128020A01280228024E0028022802E0
:101CB00028022802280228022802280228022802D4
:101CC00028022802280228022802280228022802C4
:101CD00028022802280228022802280228022802B4
:101CE00028022802280228022802840021780F29CD
:101CF00040F020812020287040F26020C2F20000D5
:101D00000021018040F22520C2F20000017040F263
:101D10005E2040F22622C2F20000C2F200020078E9
:101D200011700FE12078142840F0D68140F2242071
:101D3000C2F200000078FF213028217080F0C980B5
:101D4000CAE100BF21780F2940F0CC8040F2282062
:101D5000C2F200000121017040E000BF21780F298C
:101D600040F0DA802920287040F26020C2F20000A2
:101D70000021018040F22520C2F20000017040F2F3
:101D80002620C2F200000170FF202070B0BD00BF0D
:101D900020780F2800F08C81072800F07D8105282D
:101DA00040F0988140F2C220C2F20000017801396F
:101DB000C9B20D2928BF0D2101708BE121780F29AF
:101DC00040F0CA8021200AE021780F2940F0D68017
:101DD0002A2004E021780F2940F0FA80032028709F
:101DE00040F26020C2F200000021018040F2252074
:101DF000C2F20000017040F22620C2F20000017021
:101E000068E100BF2078142800F26681DFE810F056
:101E100040006401640164012401640164016401FF
:101E20003A01640164016401640160016401160007
:101E300064016401640164011A0100BF4FF4FA7087
:101E400000F092FD01F02EF944E100BF207840F24D
:101E50000921C2F20001002214280A7000F23C811C
:101E6000DFE810F016003A013A013A01FA003A01AF
:101E70003A013A0110013A013A013A013A013601B8
:101E80003A013A013A013A013A013A01F00000BF41
:101E900040F24E20C2F200000021E2E040F2242095
:101EA000C2F2000001782F2900F2B6804A1C0270AD
:101EB000A1F12F00B0FA80F0400921780F2900F03D
:101EC000B080142940F00881FF210028217000F023
:101ED00003812B202870FFE040F20920C2F20000AD
:101EE00072E000BF40F25C25C2F20005287800F0E5
:101EF00073FA40F25E21C2F200010978FF22002944
:101F00002870227040F0818040F25D21C2F2000111
:101F1000097800294DD078E040F25E25C2F2000534
:101F2000287800F059FA3821C4F20001287008819D
:101F3000287807E040F25E25C2F20005287800F01C
:101F40004BFA2870FF21002821705ED140F25D20FD
:101F5000C2F20000007826E040F25D25C2F20005E2
:101F6000287800F039FA40F25E21C2F200010978C7
:101F7000FF2228702270B1B147E000BF40F25D251A
:101F8000C2F20005287800F027FA3821C4F20001D7
:101F90002870088040F25E20C2F200000078FF2125
:101FA000217090BB287880BB40F25C20C2F2000018
:101FB000007850BB40F26220C2F20000007820BBE3
:101FC00040F25320C2F200000021017084E000BF03
:101FD00040F25C25C2F20005287800F0FDF93821B6
:101FE000C4F200012870888040F25E20C2F2000036
:101FF0000078FF21217040B940F25D20C2F200005C
:10200000007810B928780028D4D040F25320C2F2CA
:102010000000012101705FE0012021780F297FF489
:1020200050AF01F055F840F28F20C2F200000021BD
:1020300001702720287040F26320C2F200000121C5
:10204000017047E000F0E2FF40F28F20C2F2000092
:102050000121017002203CE040F24E20C2F200005B
:102060000121017040F25420C2F200000178B42036
:10207000002908BF4FF4E17000F076FC00F0B0FFDB
:102080002AE000BF40F25420C2F20000017881F043
:10209000010101701CE000BF40F2C220C2F200004A
:1020A00001780131CAB20D2A88BF0021017011E008
:1020B00040F2C220C2F20000007840F26A11C2F27F
:1020C000000131F8100040F2C021C2F20001088086
:1020D00001202870FF20207040F60840C4F2010063
:1020E00040F258210368C2F200010A781B0609D5A4
:1020F00042B901220A701421217021780C2909D0DB
:1021000018E000BF0368002A1CBF00220A70217873
:102110000C290FD140F28F21C2F20001097849B990
:1021200040F25211C2F200010A7882F001020A70F4
:10213000FF21217040F25E11C2F20001097809B15D
:10214000002003E0D0F80004C0F3802040F22721F3
:10215000C2F20001087040F26421C2F2000108706E
:10216000B0BD000041F20C0CC4F2010CDCF8001010
:1021700041F04001CCF800105CF8041CC90779D18B
:102180005CF8040C800700F183805CF8040C4007C5
:1021900000F188805CF8040C000700F18D80DCF809
:1021A000000020F07F00CCF80000DCF8000040F0D8
:1021B0008000CCF800005CF8040CC00740F09C8064
:1021C0005CF8040C800700F199805CF8040C40076F
:1021D00000F196805CF8040C000700F19380DCF8B5
:1021E000000020F0FF00CCF80000DCF8000040F414
:1021F0008070CCF800005CF8040CC00740F08480CC
:102200005CF8040C800700F181805CF8040C400746
:1022100000F17E805CF8040C000700F17B80DCF8A4
:10222000000040F2FF118843CCF80000DCF8000009
:1022300040F40070CCF800005CF8040CC0076BD1CF
:102240005CF8040C800769D45CF8040C400767D480
:102250005CF8040C000765D4DCF8000040F2FF31A4
:102260008843CCF8000040F25620C2F20000002162
:1022700001707047002140F25622C2F2000213782A
:1022800083BB40F255208B00C2F20000037021E0B6
:10229000002140F25622C2F20002107810BB8800E2
:1022A000013012E0002140F25622C2F20002107802
:1022B000C0B98800023008E0002140F25622C2F284
:1022C0000002107870B98800033040F25523C2F242
:1022D0000003187040F25720C2F200000023037080
:1022E000012010706FF07F00DCF800208840104063
:1022F000CCF80000704700BF0121BCE70121C8E70E
:102300000121D0E70121D8E70221B4E70221C0E78B
:102310000221C8E70221D0E70321ACE70321B8E797
:102320000321C0E70321C8E741F20840C4F20100DD
:1023300040F253110368C2F200010A785B0725D509
:1023400022B340F22823C2F200031B78F3B100222B
:102350000A7040F24811C2F200010A7040F26611A0
:10236000C2F200010A7040F23F11C2F200010A708D
:1023700044F22401C4F201010A8040F26411C2F265
:1023800000014FF4FA720A8015E000BF03685B0792
:1023900011D482B901220A7040F24811C2F2000140
:1023A0000A7040F26611C2F200010A7040F23F1159
:1023B000C2F200010A704FF60001CFF6FF714058DB
:1023C000012100F0040081EA900040F25E11C2F2A7
:1023D000000108707047000010B54A1E0D2A00F277
:1023E0007F804FF0000EDFE802F01818077B0F1116
:1023F000137B0B15097B730D03210CE009210AE007
:10240000072108E0002108E0042104E0052102E0A2
:10241000062100E008214FF0010E40F2252CC2F207
:10242000000C9CF8004040F22623C2F20003022C6C
:10243000197013D9CD225043C00A00EB800001EB84
:102440004000FF2888BF0846012140F26022C2F206
:1024500000021080C0B28CF8001010BDA31E8EF0D8
:10246000010218BF01231A4306D103208CF8000093
:10247000FF20C0B210BD00BF022C39D0012CD9D131
:102480000A280DD32923CD22434342431B0BD20AF2
:1024900043EA8303A2EB430202EB8202A0EB420079
:1024A00001EB81014900C9B2084481B2B1F5807FD6
:1024B0004AD345F62941C0B2C0F28F21A0FB0112D8
:1024C0006421642828BF02FB11000221BDE700BF80
:1024D00040F22521C2F2000100200870C0B210BDF8
:1024E00040F22621C2F20001FF22C0B20A7010BDE4
:1024F00029224243120B6423642828BF02FB1300E5
:10250000C0B201FB030040F26021C2F20001B0F54D
:10251000807F08801AD3C0B2CD214843C00A00EBA7
:1025200080004000C0B20A280CD329224243414314
:10253000120BC90A42EA8202A1EB420101EB8101BE
:10254000A0EB4100032180E702217EE70321C0B216
:102550008CF8001010BD0000B0B541F22405C4F2A3
:10256000000504460021284620F824190121FEF721
:10257000CBFF00BF2888A04208D22888A04205D2FD
:102580002888A04202D22888A042F3D3A5F12400D3
:102590000021BDE8B040FEF7B7BF000040F2540193
:1025A000C2F2000191F8E2000028B0FA80F04FEA90
:1025B000501004BF002281F8E420704740F254011B
:1025C000C2F2000191F8E220885491F8E200013053
:1025D00081F8E2007047000040F25401C2F20001AD
:1025E00091F8E0004FF0000C085C91F8E03001F841
:1025F00003C091F8E03091F8E220934202BF81F8E5
:10260000E0C081F8E2C0704791F8E020013281F823
:10261000E020704742F62440C4F20100008840F6F2
:102620005531884240F26410C2F200000AD340F2F1
:102630006711C2F2000191F9001002881144018073
:1026400088B2704740F2BC21C2F20001097899B10A
:1026500040F26711C2F2000191F9003040F26811B6
:102660000288C2F200010988D21A8A42C8BF114604
:10267000018088B2704700BF4FF6FF7188B2704783
:1026800001884288C3881144828811440289194410
:102690004389114482891944C3891144028A194427
:1026A000438A1144828A1944C38A1144028B194413
:1026B000438B1144828B1944C08B11440844C0F3EE
:1026C0000F1070470B78102B24BF00230B7020F8DD
:1026D0001320087801300870704700008CB040F279
:1026E0005400C2F20000DF2142F2004480F8E11001
:1026F000E0210026C4F2010480F8E31080F8E460D1
:1027000080F8E26000F0E4F900F0F6FB00F01CFB5A
:1027100000F092FA00F040F900F05AFA00F082FB63
:1027200000F0C4FB00F09AF900F042FB00F0D8FA88
:10273000012001210127FEF765FB0DF12605284642
:10274000FFF73AF84FF4C070CDF82A004FF0804000
:1027500029468DF82E60CDF82670FEF7D7FF0DF1D3
:1027600016052846FEF7CCFF6020C0F20100CDF828
:1027700016004FF080402946ADF81C60FEF71EFFA2
:102780004FF080402946FEF753FF4FF08040294626
:10279000FEF788FF00F022F94FF400700121FEF7E8
:1027A0003DFB6D462846FEF719F84FF46020029075
:1027B00006208DF8100040F20110ADF8040020460C
:1027C000294603960096FDF799FF20460421012231
:1027D0000723FDF7BDFF2046052102220723FDF751
:1027E000B7FF20460E2103220723FDF7B1FF204645
:1027F0000F2104220723FDF7ABFF204610210522FD
:102800000723FDF7A5FF2046112106220723FDF728
:102810009FFF20460121FDF757FF20460121FDF7CC
:102820005BFF0120FDF7E2FF2046FDF7C1FF00BF7F
:102830002046FDF75FFF0028FAD12046FDF7C8FFCC
:102840002046FDF753FF0028FAD12046012101263A
:10285000FDF73AFF20460121FDF73EFF204601210A
:10286000FDF7ACFF4FF080400121FEF74DFE04F56F
:10287000A05420460121FEF7E1FF40F26710C2F2AA
:1028800000001221017040F26810C2F200005025D1
:10289000058040F22A20C2F20000067040F291202A
:1028A000C2F20000067020460121FEF7C7FF40F289
:1028B0006410C2F20000008800F056F800F05CFBE3
:1028C00000F06EFB40F60C40C4F20100016841F4D8
:1028D000004101604FF48570FFF73EFEFDF7B8FF41
:1028E00001F076F800F052FB40F2BD20C2F2000089
:1028F000057000BFFEE7000044F62401C4F20101A8
:102900000A880A89824208BF704740F218234208A9
:10291000C2F2000308810A82188040F21A23C2F230
:1029200000031A800A88824284BF013808807047F9
:1029300044F22441C4F201010A880A89824208BF94
:10294000704740F220234208C2F2000308810A8245
:10295000188040F22223C2F200031A800A888242C1
:1029600084BF01380880704744F22401C4F2010199
:102970000A880B89834208BF7047430808810B828D
:102980000B88834284BF013808800889B0EB420F6E
:1029900084BF500008807047B0B584B0102001217A
:1029A000FEF730FA0DF106042046FEF705FF002081
:1029B00041F20005ADF80C008DF80E0045F6C05050
:1029C000C4F20005CDF8060028462146FEF79EFE1B
:1029D000288840F00100288004B0B0BDB0B58CB0AC
:1029E00001200121FEF702FA01AC2046FEF72AF889
:1029F00040F2EC11C2F2000102914FF480610891A3
:102A00008021069120210620099142F24C41049038
:102A10000020C4F20101082503900B9001914FF4AE
:102A2000807105904FF40050C4F2020507910A909E
:102A300028462146FDF7E2FF28460121FDF7CAFF9F
:102A4000284602210122FDF7D1FF4EF20010CEF2FE
:102A500000004FF4006101600CB0B0BDB0B588B0AB
:102A60004FF480200121FEF7D9F90DF1160420461C
:102A7000FEF7A2FE00208DF81E00182044F6000587
:102A8000CDF816004FF4AF60C4F20105CDF81A007E
:102A900028462146FEF73AFE0DF106042046FEF7D1
:102AA0002FFE6020C0F20100CDF806004FF42F7019
:102AB000ADF80C0028462146FEF748FD40F60C0014
:102AC000C4F20100016821F48071016008B0B0BD5A
:102AD0002DE9F04182B0042001214FF00408FEF7F7
:102AE0009DF908200121FEF799F9102001211027F6
:102AF000FEF794F920200121FEF790F901AC204661
:102B0000FEF73CF9842040F60045C2F60200C4F20C
:102B10000105019028462146FDF79AFF0F2005F593
:102B20008066ADF8040030462146FDF791FF05F5BB
:102B300000602146ADF80480FDF78AFF8DF807702C
:102B400040F60110A5F58067ADF80400384621462F
:102B5000FDF77EFF4BF6E440ADF804002846214621
:102B6000FDF776FF4FF6C070ADF804003046214601
:102B7000FDF76EFF00208DF80700F020ADF804008F
:102B800038462146FDF764FF0320ADF804002846CF
:102B90002146FDF75DFF3020ADF8040030462146A8
:102BA000FDF756FF18208DF8070041F20E60ADF8D2
:102BB000040038462146FDF74BFF4FF48640ADF840
:102BC000040028462146FDF743FF02B0BDE8F0812E
:102BD00070B584B020200121FEF714F90DF1060430
:102BE0002046FEF7E9FD45F6C05041F20045CDF81C
:102BF00006001520C4F200050026CDF80A0028467C
:102C000021468DF80E60FEF781FDAE84A88A1E2154
:102C100040F00100A8822846FEF772FC28460121F8
:102C20000122FEF78BFC4EF20410CEF200004FF4AE
:102C30000001016004B070BD2DE9F04184B040F6A0
:102C40000004C4F200042046012100220026FEF701
:102C500075FC4EF20018CEF200084FF08047C8F81D
:102C60008070BFF34F8F04200121BFF36F8FFEF7F9
:102C7000C9F80DF106052846FEF79EFD45F6C05041
:102C8000CDF806005D20CDF80A00204629468DF8D3
:102C90000E60FEF73BFDA684A08A1E2140F00100D5
:102CA000A0822046FEF72CFC204601210122FEF7DF
:102CB00045FC45F69874C8F8007040F26520C0F6EF
:102CC0000004C2F2000021461522FDF7FCFB15307E
:102CD00021461522FDF7F7FB04B0BDE8F0810000A6
:102CE00010B582B01920C0F2011001AC019020464D
:102CF000FEF74CF840F21D20C0F20610019020466D
:102D0000FEF744F840F21E40C0F206100190204643
:102D1000FEF73CF840F23630C0F206100190204633
:102D2000FEF734F840F23730C0F20610019020462A
:102D3000FEF72CF840F22560C0F209100190204601
:102D4000FEF724F802B010BD70B584B00220012156
:102D50000125FEF757F80DF106042046FEF72CFD7D
:102D6000CDF80A5040F2004545F6C050C4F20005C7
:102D70000026CDF80600284621468DF80E60FEF7A5
:102D8000C5FCAE84A88A1E2140F00100A882284616
:102D9000FEF7B6FB284601210122FEF7CFFB4EF2DB
:102DA0000010CEF200004FF00051016004B070BD81
:102DB000B0B588B04FF400300121FEF72FF80DF1C7
:102DC00016042046FEF7F8FC00208DF81E0018209F
:102DD00044F20045CDF816004FF4AF60C4F201058F
:102DE000CDF81A0028462146FEF790FC0DF10604A6
:102DF0002046FEF785FC6020C0F20100CDF80600F9
:102E00004FF42F70ADF80C0028462146FEF79EFBCC
:102E100040F60C00C4F20100016841F40061016059
:102E200008B0B0BD70B588B04FF480300121FDF717
:102E3000F5FF01200121FDF7F1FF1C26C4F2010678
:102E400030680DF1160440F0010030602046FEF7B6
:102E5000B3FC00208DF81E00182044F20005CDF8C8
:102E600016004FF4AF60C4F20105CDF81A002846F1
:102E70002146FEF74BFC0DF106042046FEF740FC10
:102E80006020C0F20100CDF806004FF42F70ADF8BD
:102E90000C0028462146FEF759FBD6F8F00B20F42B
:102EA0000040C6F8F00B08B070BD0000B0B584B0AB
:102EB0004FF400600121FDF7B1FF0DF1060420463B
:102EC000FEF77AFC002042F600458DF80E00CDF8A2
:102ED000060040F67F40C4F20105CDF80A002846FE
:102EE0002146FEF713FC2846002100220023FEF7AE
:102EF00015FB04B0B0BD0000B0B584B04FF4804005
:102F00000121FDF78BFF6C462046FEF701FD4FF4D3
:102F1000165043F60C05009000204FF40021C4F237
:102F20000105ADF80C00CDE90101A5F10C00214629
:102F3000FEF78EFC2888202140F0400028804EF2C9
:102F40000410CEF20000016004B0B0BD44F60000F1
:102F5000C4F20100018841F001010180B0F8441081
:102F600041F40041A0F8441040F2C320C2F2000036
:102F7000012101707047000041F20040C4F20000DE
:102F8000018841F0010101807047000040F6000017
:102F9000C4F20000018841F0010101807047000087
:102FA00040F20040C4F20000018841F001010180BC
:102FB0007047000044F20040C4F20100018841F073
:102FC00001010180B0F8441041F40041A0F8441020
:102FD00040F2C420C2F200000121017070470000DD
:102FE00044F20000C4F20100018841F001010180B7
:102FF000B0F8441041F40041A0F8441040F25220CF
:10300000C2F20000012101707047000080B542F655
:103010000040C4F201000188012241F00101018059
:103020000121FEF78BFA4EF20010CEF200004FF0B5
:103030000071016080BD000044F60000C4F2010090
:10304000018821F001010180B0F844106FF3DF31F5
:10305000A0F844100021818440F2C320C2F2000095
:103060000170704740F20040C4F20000018821F076
:10307000010101807047000044F20040C4F20100E9
:10308000018821F001010180B0F844106FF3DF31B5
:10309000A0F8441040F2C420C2F2000000210170E8
:1030A0007047000044F20000C4F20100018821F0E2
:1030B00001010180B0F844106FF3DF31A0F8441033
:1030C0000021818440F25220C2F20000017070475A
:1030D00080B542F60040C4F201000188002221F0D0
:1030E000010101800121FEF729FA4EF28010CEF293
:1030F00000004FF000710160BFF34F8FBFF36F8F7F
:1031000080BD00002DE9F04740F2BD2640F2042AC0
:10311000C2F20006C2F2000A30789AF8001040F2BB
:1031200057278842C2F2000704D13878002818BF18
:10313000BDE8F08740F25215C2F200052878002859
:1031400040F23800C4F2000012D040F25E21C2F218
:10315000000109780122018140F25D21C2F20001E3
:103160000978018040F25C21C2F20001097803E095
:1031700000210022018101808180307840F25321BA
:1031800040F26524C2F200016A28C2F200040A700B
:1031900000F29583DFE810F0A2014602D00154014D
:1031A000930393039303930393039303930393036F
:1031B000930393039303930393039303930393035F
:1031C000930393039303930393039303930393034F
:1031D00093039303930368016C00860093039A01A1
:1031E000A000EE00120310021C026C008600CA024E
:1031F000BA02A80028012803A0009303AE0018011A
:10320000CE008A01BE0062039303930393039303EA
:1032100093039303930393039303930393039303FE
:1032200093039303930393039303930393039303EE
:1032300093039303930393033E0393039303930333
:1032400093039303930393039303930393039303CE
:1032500093039303930393039303930393039303BE
:10326000E6004401B2024C017E03DE00C20200BF50
:103270005B21A1715D21217340F25D21C2F2000149
:1032800040F20E2520200A78C2F2000545F68E7124
:103290002070A074C0F600012846FCF7D9FF04F1A5
:1032A0000900ADE1202040F25C212070A0715B207C
:1032B000C2F2000140F20A2520735D200A78C2F2B2
:1032C000000545F68E71A074C0F600012846FCF793
:1032D000BFFF04F10F0093E1902084F8220004F175
:1032E0001505202070E200BF2A2004F1150584F89E
:1032F000220083E245F60561C0F600012046152252
:10330000FDF7E1F845F6596104F11505C0F6000135
:10331000B2E200BF45F6EC61C0F60001204615227E
:10332000FDF7D1F845F61A6104F11505C0F6000164
:10333000A2E200BF45F69861C0F6000120461522C2
:10334000FDF7C1F845F6AD6104F11505C0F60001C1
:1033500092E200BF45F6095104F11505C0F60001DF
:103360009EE200BF45F6485104F11505C0F6000184
:1033700096E200BF40F250219920C2F2000140F2D3
:10338000391584F8220020200A88C2F2000545F68B
:10339000937184F82400C0F60001284604F1150852
:1033A000FCF756FF04F11A0029460522FDF78BF8B9
:1033B000002001210125FDF785FA40461521FDF782
:1033C00069FA30783D7078E245F66E61C0F600012A
:1033D00020461522FDF777F845F6836104F11505BF
:1033E000C0F6000148E200BF40F24810C2F20000FF
:1033F0000078002800F0B48204F1150545F68751E5
:10340000C0F6000128461522FDF75DF800200121D5
:10341000FDF758FA28461521FDF73CFA88E000BF71
:1034200045F6DF4104F11505C0F6000138E200BFA2
:1034300045F6335104F11505C0F6000130E200BF36
:1034400020202070A0712073A07400200021FDF7BF
:1034500039FA20461521FDF71DFA30788AF8000068
:103460002E2030702BE200BF5B2040F25E212070E6
:103470005D20C2F2000140F21225A07120200A78DE
:10348000C2F2000545F68E712073A074C0F60001EB
:103490002846FCF7DDFEE01C29460322FDF713F861
:1034A00000200021FDF70EFA20463BE045F6C26100
:1034B000C0F6000120461522FDF705F845F6D76154
:1034C00004F11505C0F60001D6E100BF45F6DB5159
:1034D00004F11505C0F6000174E000BFFDF794F992
:1034E00040F25529C2F2000940F21C2599F800204B
:1034F000C2F2000545F68971C0F600012846FCF7C6
:10350000A7FE40F26528C2F2000840462946022282
:10351000FCF7D9FFFF2089F8000000200021FDF70B
:10352000D1F940461521FDF7B5F930788AF8000049
:1035300001203870C3E100BF012004F1150745F6F2
:10354000B1512870C0F6000138461522FCF7BBFFC8
:1035500040F25020C2F2000040F239180288C2F254
:10356000000845F69371C0F600014046FCF770FE76
:1035700004F11A0041460522FCF7A5FF28786FF0F8
:103580006301002808BF6FF0640184F82010002058
:1035900001210025FDF796F938461521FDF77AF946
:1035A00040F26320C2F20000017800290EBF2420FF
:1035B00005702D20307082E145F6C65104F11505E5
:1035C000C0F6000128461522FCF77DFFFEE000BF93
:1035D0005B2040F25E2120705D20C2F2000140F2CB
:1035E0001225A07120200A78C2F2000545F68E71DE
:1035F0002073A074C0F600012846FCF729FEE01CE9
:1036000029460322FCF75FFF00200021FDF75AF94D
:1036100020461521FDF73EF93178012038708AF8EF
:1036200000104CE145F67251C0F60001204615220B
:10363000FCF749FF04F1150845F65D51C0F600019D
:1036400040461522FCF73FFF40F25E20C2F2000028
:1036500040F2122545F68E790278C2F20005C0F6D6
:10366000000928464946FCF7F3FDE01C29460322E1
:10367000FCF729FF40F25D20C2F2000040F20E2567
:103680000278C2F2000528464946FCF7E1FD04F144
:10369000090029460322FCF716FF40F25C20C2F223
:1036A000000040F20A250278C2F200052846494689
:1036B000FCF7CEFD04F10F0029460322FCF703FFBF
:1036C00000200021FDF7FEF820461521FDF7E2F865
:1036D00000200121FDF7F6F840461521FDF7DAF844
:1036E00040F26320C2F200000078317800288AF8A6
:1036F00000100CBF1F2028203070E0E045F61E515E
:1037000004F11505C0F60001CAE000BF45F6F0510E
:1037100004F11505C0F60001C2E000BF45F6F44112
:1037200004F11505C0F60001BAE000BFFFF784FC04
:10373000FFF7A2FC40F22A20C2F200000021017033
:1037400040F29120C2F20000017040F22B20C2F240
:1037500000004FF0010880F8008040F29220C2F291
:10376000000080F80080FFF77DFC04F1150545F6A8
:103770009C51C0F6000128461522FCF7A4FE00204B
:103780000121FDF79FF828461521FDF783F840F247
:103790005020C2F2000040F239150288C2F2000542
:1037A00045F69371C0F600012846FCF751FD04F17F
:1037B000210029460522FCF786FE11E0902084F8BE
:1037C000220004F115053C2084F82400002001218A
:1037D0004FF00108FDF776F828461521FDF75AF855
:1037E000307887F8008068E004F1150545F64871E7
:1037F000C0F6000128461522FCF765FE00200121D5
:103800000126FDF75FF828461521FDF743F83E70C5
:1038100055E000BF45F60171C0F6000120461522B3
:10382000FCF751FE04F1150545F61671C0F60001CE
:1038300028461522FCF747FE40F2C220C2F20000E3
:10384000007845F62C71C0F6000103287CD831F8C9
:10385000102004F10A004EA193E000BF45F62F614D
:10386000C0F6000120461522FCF72DFE45F6446106
:1038700004F11505C0F6000128461522FCF723FEC9
:1038800000200021FDF71EF820461521FDF702F863
:103890000AE000BF45F6CA4104F11505C0F6000173
:1038A00028461522FCF70FFE00200121FDF70AF83B
:1038B00028461521FCF7EEFF30788AF8000040F228
:1038C0005010C2F20000008840F2FE11C2F2000166
:1038D000088040F26210C2F20000008840F200212D
:1038E000C2F20001088040F21620C2F200000088F7
:1038F00040F2FC11C2F20001088040F2F810C2F25E
:103900000000008840F2FA11C2F20001088040F283
:10391000B820C2F20000008840F20221C2F2000189
:10392000088000200021FCF7CDFF20461521FCF780
:10393000B1FF00200121FCF7C5FF04F1150015219E
:10394000BDE8F047FCF7A6BF06280FD831F81020D5
:1039500045F6897104F10A00C0F6000111E000BFCC
:103960002E208AF800002F203070E1E531F8102079
:10397000092804F10A008EBF03A145F68E71C0F636
:103980000001FCF765FC7BE7253034640000000093
:10399000253031640000000080B5FEF7FFFD0028EF
:1039A00018BF80BD40F25400C2F2000090F8E4104D
:1039B00001B180BD012180F8E410FEF70DFE014643
:1039C00043F60000C4F20100BDE88040FDF79CBF53
:1039D0002DE9F04700200021FCF774FF44F66E4803
:1039E000C0F6000840461521FCF754FF3220FEF7D0
:1039F000B3FD00200021FCF765FF44F68349C0F6C3
:103A0000000948461521FCF745FF3220FEF7A4FDCA
:103A100000200021FCF756FF44F6984AC0F6000A41
:103A200050461521FCF736FF3220FEF795FD0020A9
:103A30000021FCF747FF44F6AD44C0F600042046E1
:103A40001521FCF727FF3220FEF786FD002000211C
:103A5000FCF738FF44F6C245C0F60005284615219C
:103A6000FCF718FF3220FEF777FD00200021FCF75D
:103A700029FF44F6D747C0F6000738461521FCF762
:103A800009FF3220FEF768FD00200021FCF71AFF35
:103A900044F6EC40C0F600001521FCF7FBFE0020C8
:103AA0000121FCF70FFF40F20006C2F2000630468B
:103AB0001521FCF7EFFE40F2B630FEF74DFD002079
:103AC0000021FCF7FFFE38461521FCF7E3FE32200B
:103AD000FEF742FD00200021FCF7F4FE28461521E8
:103AE000FCF7D8FE3220FEF737FD00200021FCF75E
:103AF000E9FE20461521FCF7CDFE3220FEF72CFD15
:103B000000200021FCF7DEFE50461521FCF7C2FE26
:103B10003220FEF721FD00200021FCF7D3FE4846AD
:103B20001521FCF7B7FE3220FEF716FD002000211C
:103B3000FCF7C8FE40461521FCF7ACFE4FF496702A
:103B4000FEF70AFD00200021FCF7BCFEFCF76EFE2C
:103B500000200021FCF7B6FE06F12A001521FCF733
:103B600099FE00200121FCF7ADFE06F1150015219C
:103B7000FCF790FE40F2E240FEF7EEFC002001214F
:103B8000FCF7A0FE06F13F001521FCF783FE40F292
:103B9000DC50BDE8F047FEF7DFBC30380A2801D220
:103BA000012070470020704704000008000000005A
:103BB00000000002000100001002040608000000DE
:103BC00000010203040102030406070809000102C0
:103BD000030405060708090A0B0C0D0E0F1011123D
:103BE000131415161718191A1B1C1D1E1F2021222D
:103BF000232425262728292A2B2C2D2E2F3031321D
:103C0000333435363738393A3B3C3D3E3F4041420C
:103C1000434445464748494A4B4C4D4E4F505152FC
:103C2000535455565758595A5B5C5D5E5F606162EC
:103C3000636465666768696A6B6C6D6E6F707172DC
:103C4000737475767778797A7B7C7D7E7F898182C3
:103C5000838485868788898A8B8C8D8E8FCDCCB91D
:103C6000DBFBFEFD005E7FDBB0B1B20000B5C6003D
:103C70000000000000F00000000000000000000054
:103C80000000000000F1FCBA00000000008081820A
:103C9000838485868788898A8B8C8D8E8F9091927C
:103CA000939495969798999A9B9C9D9E9FA0A1A26C
:103CB000A3A4A5A6A7A8A9AAABACADAEAFE0E1E2CC
:103CC000E3E4E5E6E7E8E9EAEBECEDEEEF00441AC1
:103CD0003D1A361A301A291A221A1C1A151A0E1AE7
:103CE000081A011AFA19F419ED19E719E019D91986
:103CF000D319CC19C619BF19B819B219AB19A5191E
:103D00009E19971991198A1984197D1977197019B3
:103D1000691963195C1956194F19491942193C1947
:103D200035192F19281922191B1915190E190819D7
:103D30000119FB18F418EE18E718E118DA18D4186E
:103D4000CD18C718C018BA18B318AD18A618A018FF
:103D5000991893188D1886188018791873186C188C
:103D600066186018591853184C1846184018391816
:103D700033182C1826182018191813180C180618A0
:103D80000018F917F317ED17E617E017DA17D3172E
:103D9000CD17C717C017BA17B417AD17A717A117B4
:103DA0009A1794178E17871781177B1774176E173A
:103DB000681762175B1755174F17481742173C17BC
:103DC00036172F17291723171D17161710170A173D
:103DD0000417FD16F716F116EB16E516DE16D816C3
:103DE000D216CC16C616BF16B916B316AD16A71640
:103DF000A0169A1694168E16881682167B167516BD
:103E00006F16691663165D16561650164A16441636
:103E10003E16381632162C1625161F1619161316AE
:103E20000D1607160116FB15F515EF15E815E21529
:103E3000DC15D615D015CA15C415BE15B815B215A2
:103E4000AC15A615A0159A1594158E158815821512
:103E50007C15761570156A1564155E155815521582
:103E60004C15461540153A1534152E1528152215F2
:103E70001C15161510150A150415FE14F814F21465
:103E8000EC14E614E014DA14D414CE14C814C314D9
:103E9000BD14B714B114AB14A5149F149914931442
:103EA0008D14881482147C14761470146A146414AB
:103EB0005E14591453144D14471441143B14361412
:103EC00030142A1424141E14181413140D14071477
:103ED0000114FB13F613F013EA13E413DE13D913E2
:103EE000D313CD13C713C113BC13B613B013AA1346
:103EF000A5139F13991393138E13881382137C13A6
:103F0000771371136B13661360135A1354134F1303
:103F1000491343133E13381332132D132713211360
:103F20001C13161310130B130513FF12FA12F412BD
:103F3000EE12E912E312DD12D812D212CC12C7121D
:103F4000C112BC12B612B012AB12A512A0129A1274
:103F500094128F12891284127E12781273126D12CB
:103F6000681262125D12571251124C12461241121F
:103F70003B12361230122B12251220121A12151271
:103F80000F120A120412FF11F911F411EE11E911C6
:103F9000E311DE11D811D311CD11C811C211BD1119
:103FA000B711B211AC11A711A1119C119711911168
:103FB0008C11861181117B11761171116B116611B3
:103FC00060115B11561150114B11451140113B11FD
:103FD000351130112A11251120111A111511101146
:103FE0000A1105110011FA10F510F010EA10E51091
:103FF000E010DA10D510D010CA10C510C010BA10D9
:10400000B510B010AA10A510A0109B10951090101C
:104010008B10851080107B10761070106B1066105E
:1040200061105B10561051104C10461041103C109E
:10403000371032102C10271022101D1018101210DB
:104040000D1008100310FE0FF80FF30FEE0FE90F1D
:10405000E40FDF0FD90FD40FCF0FCA0FC50FC00F5A
:10406000BA0FB50FB00FAB0FA60FA10F9C0F970F94
:10407000910F8C0F870F820F7D0F780F730F6E0FCC
:10408000690F640F5E0F590F540F4F0F4A0F450F02
:10409000400F3B0F360F310F2C0F270F220F1D0F34
:1040A000180F130F0E0F090F040FFF0EFA0EF50E67
:1040B000F00EEB0EE60EE10EDC0ED70ED20ECD0E9C
:1040C000C80EC30EBE0EB90EB40EAF0EAA0EA50ECC
:1040D000A00E9B0E960E910E8C0E870E820E7D0EFC
:1040E000780E730E6E0E6A0E650E600E5B0E560E27
:1040F000510E4C0E470E420E3D0E390E340E2F0E51
:104100002A0E250E200E1B0E160E120E0D0E080E78
:10411000030EFE0DF90DF50DF00DEB0DE60DE10DA5
:10412000DC0DD80DD30DCE0DC90DC40DC00DBB0DCA
:10413000B60DB10DAC0DA80DA30D9E0D990D940DEE
:10414000900D8B0D860D810D7D0D780D730D6E0D0F
:104150006A0D650D600D5B0D570D520D4D0D490D2E
:10416000440D3F0D3A0D360D310D2C0D280D230D4C
:104170001E0D1A0D150D100D0C0D070D020DFE0C68
:10418000F90CF40CF00CEB0CE60CE20CDD0CD80C8A
:10419000D40CCF0CCA0CC60CC10CBD0CB80CB30CA3
:1041A000AF0CAA0CA60CA10C9C0C980C930C8F0CB9
:1041B0008A0C850C810C7C0C780C730C6F0C6A0CCF
:1041C000650C610C5C0C580C530C4F0C4A0C460CE3
:1041D000410C3D0C380C340C2F0C2B0C260C220CF3
:1041E0001D0C190C140C100C0B0C070C020CFE0B04
:1041F000F90BF50BF00BEC0BE70BE30BDE0BDA0B1B
:10420000D50BD10BCD0BC80BC40BBF0BBB0BB60B27
:10421000B20BAE0BA90BA50BA00B9C0B980B930B31
:104220008F0B8A0B860B820B7D0B790B740B700B3B
:104230006C0B670B630B5F0B5A0B560B520B4D0B42
:10424000490B450B400B3C0B380B330B2F0B2B0B47
:10425000260B220B1E0B190B150B110B0C0B080B4D
:10426000040B000BFB0AF70AF30AEE0AEA0AE60A55
:10427000E20ADD0AD90AD50AD10ACC0AC80AC40A58
:10428000C00ABB0AB70AB30AAF0AAB0AA60AA20A57
:104290009E0A9A0A960A910A8D0A890A850A810A53
:1042A0007C0A780A740A700A6C0A680A630A5F0A50
:1042B0005B0A570A530A4F0A4A0A460A420A3E0A4A
:1042C0003A0A360A320A2E0A290A250A210A1D0A42
:1042D000190A150A110A0D0A090A050A000AFC0939
:1042E000F809F409F009EC09E809E409E009DC0936
:1042F000D809D409D009CC09C809C409C009BC0926
:10430000B809B409B009AC09A809A409A0099C0915
:104310009809940990098C098809840980097C0905
:104320007809740970096C096809640960095C09F5
:104330005809540950094C094809440940093D09E4
:104340003909350931092D092909250921091D09CD
:104350001909160912090E090A0906090209FE08B7
:10436000FA08F708F308EF08EB08E708E308E008A5
:10437000DC08D808D408D008CC08C908C508C1088A
:10438000BD08B908B608B208AE08AA08A608A3086E
:104390009F089B089708930890088C088808840851
:1043A00081087D087908750872086E086A08660831
:1043B00063085F085B085808540850084C0849080F
:1043C000450841083E083A08360833082F082B08EC
:1043D0002808240820081D081908150812080E08C6
:1043E0000A0807080308FF07FC07F807F407F107A6
:1043F000ED07EA07E607E207DF07DB07D807D40780
:10440000D007CD07C907C607C207BE07BB07B70756
:10441000B407B007AD07A907A507A2079E079B072A
:104420009707940790078D078907860782077F07FC
:104430007B077807740771076D076A0766076307CC
:104440005F075C075807550751074E074A0747079C
:10445000430740073C073907350732072F072B076B
:104460002807240721071D071A0717071307100736
:104470000C07090706070207FF06FB06F806F50604
:10448000F106EE06EA06E706E406E006DD06DA06D1
:10449000D606D306D006CC06C906C606C206BF0697
:1044A000BC06B806B506B206AE06AB06A806A4065C
:1044B000A1069E069A069706940691068D068A0620
:1044C0008706830680067D067A06760673067006E2
:1044D0006D0669066606630660065C0659065606A2
:1044E000530650064C0649064606430640063C065F
:1044F00039063606330630062C062906260623061C
:1045000020061D0619061606130610060D060A06D5
:10451000060603060006FD05FA05F705F405F10594
:10452000ED05EA05E705E405E105DE05DB05D8054F
:10453000D505D205CE05CB05C805C505C205BF0505
:10454000BC05B905B605B305B005AD05AA05A705B7
:10455000A405A1059E059B059805950592058F0567
:104560008C0589058605830580057D057A05770517
:10457000740571056E056B056805650562055F05C7
:104580005C0559055605530550054D054A05470577
:10459000440541053E053C05390536053305300522
:1045A0002D052A052705240521051F051C051905CC
:1045B0001605130510050D050A0508050505020574
:1045C000FF04FC04F904F704F404F104EE04EB0422
:1045D000E804E604E304E004DD04DA04D804D504C6
:1045E000D204CF04CC04CA04C704C404C104BE046A
:1045F000BC04B904B604B304B104AE04AB04A8040B
:10460000A604A304A0049D049B04980495049304A9
:1046100090048D048A0488048504820480047D0447
:104620007A0478047504720470046D046A046804E2
:104630006504620460045D045A045804550452047D
:1046400050044D044A0448044504430440043D0416
:104650003B0438043604330430042E042B042904AC
:104660002604230421041E041C0419041704140442
:1046700011040F040C040A040704050402040004D6
:10468000FD03FB03F803F603F303F103EE03EC036E
:10469000E903E703E403E203DF03DD03DA03D803FE
:1046A000D503D303D003CE03CB03C903C603C4038E
:1046B000C103BF03BD03BA03B803B503B303B0031B
:1046C000AE03AC03A903A703A403A203A0039D03A5
:1046D0009B0398039603940391038F038C038A032F
:1046E00088038503830381037E037C037A037703B6
:1046F0007503730370036E036C036903670365033B
:10470000620360035E035B035903570354035203C0
:1047100050034E034B034903470344034203400342
:104720003E033B03390337033503320330032E03C3
:104730002C03290327032503230321031E031C0342
:104740001A0318031603130311030F030D030B03BE
:1047500008030603040302030003FE02FB02F9023E
:10476000F702F502F302F102EE02EC02EA02E802BD
:10477000E602E402E202E002DD02DB02D902D70235
:10478000D502D302D102CF02CD02CB02C802C602AB
:10479000C402C202C002BE02BC02BA02B802B60221
:1047A000B402B202B002AE02AC02AA02A802A60291
:1047B000A402A202A0029E029C029A029802960201
:1047C0009402920290028E028C028A028802860271
:1047D0008402820280027E027C027A0278027602E1
:1047E0007402720270026E026C026A026802670250
:1047F0006502630261025F025D025B0259025702B9
:1048000055025402520250024E024C024A02480221
:1048100046024502430241023F023D023B023A0288
:10482000380236023402320230022F022D022B02ED
:104830002902270226022402220220021E021D0251
:104840001B021902170215021402120210020E02B4
:104850000D020B0209020702060204020202000214
:10486000FF01FD01FB01FA01F801F601F401F3017A
:10487000F101EF01EE01EC01EA01E901E701E501D7
:10488000E401E201E001DF01DD01DB01DA01D80131
:10489000D601D501D301D101D001CE01CC01CB018C
:1048A000C901C801C601C401C301C101C001BE01E3
:1048B000BC01BB01B901B801B601B401B301B1013A
:1048C000B001AE01AD01AB01A901A801A601A5018E
:1048D000A301A201A0019F019D019C019A019901E0
:1048E0009701960194019301910190018E018D0130
:1048F0008B018A0188018701850184018201810180
:104900007F017E017C017B017901780177017501CE
:104910007401720171016F016E016D016B016A0119
:1049200068016701660164016301610160015F0163
:104930005D015C015A0159015801560155015401AC
:104940005201510150014E014D014C014A014901F2
:1049500048014601450144014201410140013E0137
:104960003D013C013A01390138013701350134017B
:104970003301310130012F012E012C012B012A01BD
:1049800029012701260125012401220121012001FD
:104990001F011E011C011B011A011901180116013A
:1049A000150114011301120110010F010E010D0177
:1049B0000C010B01090108010701060105010401B1
:1049C000020101010001FF00FE00FD00FC00FB00F0
:1049D000F900F800F700F600F500F400F300F2002B
:1049E000F100F000EE00ED00EC00EB00EA00E90061
:1049F000E800E700E600E500E400E300E200E10093
:104A0000E000DF00DE00DD00DC00DB00DA00D900C2
:104A1000D800D700D600D500D400D300D200D100F2
:104A2000D000CF00CE00CD00CC00CB00CA00C90022
:104A3000C800C700C600C500C400C300C200C10052
:104A4000C000BF00BE00BE00BD00BC00BB00BA007D
:104A5000B900B800B700B600B500B500B400B300A7
:104A6000B200B100B000AF00AE00AE00AD00AC00CF
:104A7000AB00AA00A900A900A800A700A600A500F5
:104A8000A400A400A300A200A100A000A0009F0019
:104A90009E009D009C009C009B009A00990098003D
:104AA000980097009600950095009400930092005E
:104AB0009200910090008F008F008E008D008D007D
:104AC0008C008B008A008A0089008800880087009B
:104AD00086008600850084008400830082008200B6
:104AE0008100800080007F007E007E007D007C00D1
:104AF0007C007B007A007A007900790078007700EA
:104B000077007600760075007400740073007300FF
:104B1000720071007100700070006F006F006E0015
:104B20006D006D006C006C006B006B006A006A0029
:104B30006900690068006800670067006600660039
:104B40006500650064006400630063006200620049
:104B500061006100600060005F005F005E005E0059
:104B60005D005D005D005C005C005B005B005A0066
:104B70005A005A0059005900580058005800570070
:104B8000570056005600560055005500540054007A
:104B90005400530053005300520052005200510081
:104BA000510051005000500050004F004F004F0086
:104BB0004E004E004E004D004D004D004C004C008C
:104BC0004C004C004B004B004B004A004A004A008E
:104BD0004A0049004900490049004800480048008F
:104BE000480047004700470047004700460046008E
:104BF000460046004600450045004500450045008A
:104C00004400440044004400440044004300430086
:104C10004300430043004300420042004200420080
:104C20004200420042004200410041004100410078
:104C3000410041004100410041004100400040006E
:104C40004000400040004000400040004000400064
:104C50004000400040004000400040004000400054
:104C60004000400040004000400040004000202044
:104C700020202020CBF3F72D312D3335202020208C
:104C800020202020202020BA20CBF3F72D312D33F7
:104C90003520BA2020202020202020209220CBF375
:104CA000F72D312D33352091202020202020202069
:104CB000909220CBF3F72D312D3335209190202089
:104CC0002020202090909220CBF3F72D312D3335EA
:104CD00020919090202020209090909220CBF3F76C
:104CE0002D312D33352091909090202090909090F0
:104CF0009220CBF3F72D312D333520919090909069
:104D00009000010002000400060008000A000C00E8
:104D10000E00120016001A001E00220026002A00B3
:104D20002E0034003A0040004600400040004000A1
:104D30004000400040004000400040004000400073
:104D40004000400040004000400040004000400063
:104D50004000400040004000400040004100410051
:104D6000410041004100410041004100410041003B
:104D70004200420042004200420042004200420023
:104D80004300430043004300430043004400440009
:104D900044004400440044004500450045004500EF
:104DA00045004600460046004600460047004700D2
:104DB00047004700470048004800480048004900B5
:104DC0004900490049004A004A004A004A004B0095
:104DD0004B004B004C004C004C004C004D004D0073
:104DE0004D004E004E004E004F004F004F0050004F
:104DF000500050005100510051005200520052002A
:104E00005300530053005400540054005500550003
:104E100056005600560057005700580058005800DA
:104E2000590059005A005A005A005B005B005C00B0
:104E30005C005D005D005D005E005E005F005F0085
:104E40006000600061006100620062006300630056
:104E50006400640065006500660066006700670026
:104E600068006800690069006A006A006B006B00F6
:104E70006C006C006D006D006E006F006F007000C4
:104E80007000710071007200730073007400740090
:104E90007500760076007700770078007900790059
:104EA0007A007A007B007C007C007D007E007E0022
:104EB0007F008000800081008200820083008400E7
:104EC00084008500860086008700880088008900AD
:104ED0008A008A008B008C008D008D008E008F0070
:104EE0008F00900091009200920093009400950032
:104EF0009500960097009800980099009A009B00F2
:104F00009C009C009D009E009F00A000A000A100AE
:104F1000A200A300A400A400A500A600A700A8006A
:104F2000A900A900AA00AB00AC00AD00AE00AE0025
:104F3000AF00B000B100B200B300B400B500B500DE
:104F4000B600B700B800B900BA00BB00BC00BD0095
:104F5000BE00BE00BF00C000C100C200C300C4004C
:104F6000C500C600C700C800C900CA00CB00CC00FD
:104F7000CD00CE00CF00D000D100D200D300D400AD
:104F8000D500D600D700D800D900DA00DB00DC005D
:104F9000DD00DE00DF00E000E100E200E300E4000D
:104FA000E500E600E700E800E900EA00EB00EC00BD
:104FB000ED00EE00F000F100F200F300F400F50067
:104FC000F600F700F800F900FB00FC00FD00FE0011
:104FD000FF000001010102010401050106010701B2
:104FE000080109010B010C010D010E010F01100157
:104FF00012011301140115011601180119011A01FA
:105000001B011C011E011F0120012101220124019D
:1050100025012601270129012A012B012C012E013E
:105020002F013001310133013401350137013801DD
:1050300039013A013C013D013E014001410142017B
:10504000440145014601480149014A014C014D0115
:105050004E015001510152015401550156015801B0
:1050600059015A015C015D015F0160016101630149
:1050700064016601670168016A016B016D016E01DF
:105080006F01710172017401750177017801790175
:105090007B017C017E017F01810182018401850108
:1050A000870188018A018B018D018E019001910198
:1050B000930194019601970199019A019C019D0128
:1050C0009F01A001A201A301A501A601A801A901B8
:1050D000AB01AD01AE01B001B101B301B401B60144
:1050E000B801B901BB01BC01BE01C001C101C301CE
:1050F000C401C601C801C901CB01CC01CE01D00158
:10510000D101D301D501D601D801DA01DB01DD01DE
:10511000DF01E001E201E401E501E701E901EA0163
:10512000EC01EE01EF01F101F301F401F601F801E8
:10513000FA01FB01FD01FF01000202020402060266
:10514000070209020B020D020E02100212021402E3
:105150001502170219021B021D021E022002220262
:1051600024022602270229022B022D022F023002DE
:1051700032023402360238023A023B023D023F025A
:10518000410243024502460248024A024C024E02D4
:105190005002520254025502570259025B025D024C
:1051A0005F02610263026502670268026A026C02C2
:1051B0006E02700272027402760278027A027C0237
:1051C0007E02800282028402860288028A028C02A7
:1051D0008E02900292029402960298029A029C0217
:1051E0009E02A002A202A402A602A802AA02AC0287
:1051F000AE02B002B202B402B602B802BA02BC02F7
:10520000BE02C002C202C402C602C802CB02CD0264
:10521000CF02D102D302D502D702D902DB02DD02CE
:10522000E002E202E402E602E802EA02EC02EE0236
:10523000F102F302F502F702F902FB02FE0200039B
:1052400002030403060308030B030D030F031103FA
:105250001303160318031A031C031E03210323035D
:105260002503270329032C032E03300332033503C0
:10527000370339033B033E03400342034403470320
:1052800049034B034E03500352035403570359037E
:105290005B035E03600362036503670369036C03DA
:1052A0006E0370037303750377037A037C037E0335
:1052B00081038303850388038A038C038F0391038F
:1052C0009403960398039B039D03A003A203A403E6
:1052D000A703A903AC03AE03B003B303B503B8033C
:1052E000BA03BD03BF03C103C403C603C903CB0391
:1052F000CE03D003D303D503D803DA03DD03DF03E2
:10530000E203E403E703E903EC03EE03F103F30331
:10531000F603F803FB03FD0300040204050407047D
:105320000A040C040F0411041404170419041C04C7
:105330001E0421042304260429042B042E04300413
:105340003304360438043B043D044004430445045C
:1053500048044A044D0450045204550458045A04A5
:105360005D0460046204650468046A046D047004EA
:105370007204750478047A047D0480048204850430
:1053800088048A048D0490049304950498049B0473
:105390009D04A004A304A604A804AB04AE04B104B5
:1053A000B304B604B904BC04BE04C104C404C704F5
:1053B000CA04CC04CF04D204D504D804DA04DD0432
:1053C000E004E304E604E804EB04EE04F104F4046E
:1053D000F704F904FC04FF040205050508050A05A5
:1053E0000D0510051305160519051C051F052105DA
:1053F000240527052A052D05300533053605390511
:105400003C053E054105440547054A054D05500547
:105410005305560559055C055F0562056505680578
:105420006B056E057105740577057A057D058005A8
:105430008305860589058C058F05920595059805D8
:105440009B059E05A105A405A705AA05AD05B00508
:10545000B305B605B905BC05BF05C205C505C80538
:10546000CB05CE05D205D505D805DB05DE05E10562
:10547000E405E705EA05ED05F105F405F705FA058C
:10548000FD050006030606060A060D0610061306AD
:10549000160619061D0620062306260629062C06D2
:1054A00030063306360639063C06400643064606F5
:1054B00049064C0650065306560659065C06600619
:1054C0006306660669066D067006730676067A063A
:1054D0007D068006830687068A068D069106940659
:1054E00097069A069E06A106A406A806AB06AE0677
:1054F000B206B506B806BC06BF06C206C606C90691
:10550000CC06D006D306D606DA06DD06E006E406AB
:10551000E706EA06EE06F106F506F806FB06FF06C4
:105520000207060709070C071007130717071A07D2
:105530001D072107240728072B072F0732073507E8
:1055400039073C074007430747074A074E075107FB
:10555000550758075C075F07630766076A076D070B
:105560007107740778077B077F078207860789071B
:105570008D079007940797079B079E07A207A5072B
:10558000A907AD07B007B407B707BB07BE07C20737
:10559000C607C907CD07D007D407D807DB07DF0741
:1055A000E207E607EA07ED07F107F407F807FC074B
:1055B000FF07030807080A080E081208150819084B
:1055C0001D082008240828082B082F08330836084F
:1055D0003A083E084108450849084C085008540854
:1055E00058085B085F08630866086A086E08720856
:1055F000750879087D088108840888088C08900857
:10560000930897089B089F08A308A608AA08AE0855
:10561000B208B608B908BD08C108C508C908CC0851
:10562000D008D408D808DC08E008E308E708EB084D
:10563000EF08F308F708FA08FE08020906090A0944
:105640000E091209160919091D0921092509290937
:105650002D093109350939093D094009440948092D
:105660004C095009540958095C0960096409680922
:105670006C097009740978097C0980098409880912
:105680008C099009940998099C09A009A409A80902
:10569000AC09B009B409B809BC09C009C409C809F2
:1056A000CC09D009D409D809DC09E009E409E809E2
:1056B000EC09F009F409F809FC09000A050A090ACD
:1056C0000D0A110A150A190A1D0A210A250A290AB2
:1056D0002E0A320A360A3A0A3E0A420A460A4A0A9A
:1056E0004F0A530A570A5B0A5F0A630A680A6C0A80
:1056F000700A740A780A7C0A810A850A890A8D0A66
:10570000910A960A9A0A9E0AA20AA60AAB0AAF0A48
:10571000B30AB70ABB0AC00AC40AC80ACC0AD10A2B
:10572000D50AD90ADD0AE20AE60AEA0AEE0AF30A0B
:10573000F70AFB0A000B040B080B0C0B110B150BE3
:10574000190B1E0B220B260B2B0B2F0B330B380BBD
:105750003C0B400B450B490B4D0B520B560B5A0B98
:105760005F0B630B670B6C0B700B740B790B7D0B72
:10577000820B860B8A0B8F0B930B980B9C0BA00B49
:10578000A50BA90BAE0BB20BB60BBB0BBF0BC40B1F
:10579000C80BCD0BD10BD50BDA0BDE0BE30BE70BF4
:1057A000EC0BF00BF50BF90BFE0B020C070C0B0CC2
:1057B000100C140C190C1D0C220C260C2B0C2F0C8D
:1057C000340C380C3D0C410C460C4A0C4F0C530C5D
:1057D000580C5C0C610C650C6A0C6F0C730C780C2B
:1057E0007C0C810C850C8A0C8F0C930C980C9C0CF7
:1057F000A10CA60CAA0CAF0CB30CB80CBD0CC10CC0
:10580000C60CCA0CCF0CD40CD80CDD0CE20CE60C88
:10581000EB0CF00CF40CF90CFE0C020D070D0C0D4A
:10582000100D150D1A0D1E0D230D280D2C0D310D0B
:10583000360D3A0D3F0D440D490D4D0D520D570DCE
:105840005B0D600D650D6A0D6E0D730D780D7D0D90
:10585000810D860D8B0D900D940D990D9E0DA30D50
:10586000A80DAC0DB10DB60DBB0DC00DC40DC90D0D
:10587000CE0DD30DD80DDC0DE10DE60DEB0DF00DC9
:10588000F50DF90DFE0D030E080E0D0E120E160E7F
:105890001B0E200E250E2A0E2F0E340E390E3D0E35
:1058A000420E470E4C0E510E560E5B0E600E650EEC
:1058B0006A0E6E0E730E780E7D0E820E870E8C0EA3
:1058C000910E960E9B0EA00EA50EAA0EAF0EB40E54
:1058D000B90EBE0EC30EC80ECD0ED20ED70EDC0E04
:1058E000E10EE60EEB0EF00EF50EFA0EFF0E040FB3
:1058F000090F0E0F130F180F1D0F220F270F2C0F5C
:10590000310F360F3B0F400F450F4A0F4F0F540F0B
:10591000590F5E0F640F690F6E0F730F780F7D0FB5
:10592000820F870F8C0F910F970F9C0FA10FA60F5F
:10593000AB0FB00FB50FBA0FC00FC50FCA0FCF0F07
:10594000D40FD90FDF0FE40FE90FEE0FF30FF80FAD
:10595000FE0F031008100D10121018101D10221049
:1059600027102C10321037103C10411046104C10EC
:10597000511056105B10611066106B10701076108D
:105980007B10801085108B10901095109B10A0102C
:10599000A510AA10B010B510BA10C010C510CA10CA
:1059A000D010D510DA10E010E510EA10F010F51064
:1059B000FA10001105110A11101115111A112011F8
:1059C00025112A11301135113B11401145114B1190
:1059D000501156115B11601166116B117111761126
:1059E0007B11811186118C11911197119C11A111BC
:1059F000A711AC11B211B711BD11C211C811CD114F
:105A0000D311D811DE11E311E911EE11F411F911DE
:105A1000FF1104120A120F1215121A122012251267
:105A20002B12301236123B12411246124C125112F6
:105A300057125D12621268126D12731278127E1282
:105A4000841289128F1294129A12A012A512AB120C
:105A5000B012B612BC12C112C712CC12D212D81296
:105A6000DD12E312E912EE12F412FA12FF1205131C
:105A70000B13101316131C13211327132D1332139A
:105A800038133E13431349134F1354135A1360131F
:105A900066136B13711377137C13821388138E13A1
:105AA000931399139F13A513AA13B013B613BC1322
:105AB000C113C713CD13D313D913DE13E413EA13A1
:105AC000F013F613FB13011407140D141314181418
:105AD0001E1424142A14301436143B144114471491
