:020000040800F2
:10000000B0080020E5010008ED010008310E0008ED
:10001000F1010008F3010008F501000800000000EC
:10002000000000000000000000000000F7010008D0
:10003000F901000800000000FB010008FD010008B4
:10004000FF010008FF010008FF010008FF01000890
:10005000FF010008FF010008FF010008FF01000880
:10006000FF010008FF010008FF0100080509000862
:10007000FF010008FF010008FF010008FF01000860
:10008000FF010008FF010008FF0100080000000058
:10009000000000000000000000000000FF01000858
:1000A000FF010008A5100008FF010008FF0100087B
:1000B000FF0100081911000875140008FF0100086D
:1000C000FF010008FF010008FF010008FF01000810
:1000D000FF01000849180008FF010008FF0100089F
:1000E000FF010008FF010008FF01000800000000F8
:1000F0000000000000000000000000000000000000
:1001000000000000000000000000000000000000EF
:100110000000000000000000FF0100083515000885
:1001200000F002F800F04FF80AA090E8000C8244BA
:100130008344AAF10107DA4501D100F044F8AFF297
:10014000090EBAE80F0013F0010F18BFFB1A43F0B5
:100150000103184744610000646100000A4410F87C
:10016000014B14F00F0508BF10F8015B240908BF0C
:1001700010F8014B6D1E05D010F8013B6D1E01F803
:10018000013BF9D1641E03D0641E01F8015BFBD171
:100190009142E4D37047000000230024002500268C
:1001A000103A28BF78C1FBD8520728BF30C148BFDA
:1001B0000B607047642900F07180002070471FB504
:1001C0001FBD10B510BD00F02EFA1146FFF7F7FF66
:1001D00002F0BAFA00F04CFA03B4FFF7F2FF03BCE6
:1001E00000F054FA0948804709480047FEE7FEE757
:1001F000FEE7FEE7FEE7FEE7FEE7FEE7FEE7FEE7D7
:1002000004480549054A064B70470000790F00086D
:1002100021010008B0020020B0080020B004002036
:10022000B00400200FB41CB5074B06AA7B446946F6
:100230000090059800F0BDF90020694600F0CCF967
:100240001CBC5DF814FB0000A903000070B5044657
:1002500085690068C10601D5302600E02026C00768
:1002600007D070BDD4E9012130469047206A401C78
:1002700020626D1EF6D570BD70B5044685690078A4
:10028000C00707D170BDD4E9012120209047206A22
:10029000401C20626D1EF6D570BD00002DE9F041B6
:1002A0000646002410687529314616A510D0AFF314
:1002B0000080002802DA404213A507E031688A076F
:1002C00001D512A502E0490704D511A5012401E0DA
:1002D000AFF3008000210A2206F1240709E0B0FBF9
:1002E000F2FCB0FBF2F302FB1C00303078541846ED
:1002F000491C0028F3D123462A463046BDE8F04188
:1003000000F0F9B8000000002D0000002B000000F4
:10031000200000002DE9F05F894604464FF0000AF6
:10032000DFF824B1FB44C0F820A02046E1688847EC
:1003300000287DD0252806D0D4E901219047206AE5
:10034000401C2062F1E700255F462046E1688847AF
:100350002028064607DB312E05D2B81910F8200CEC
:1003600008B10543F1E7A80701D525F00405C4F855
:100370001CA00027C4F818A02A2E09D0304603F08C
:10038000A8FD38B304EB8708303EC8F8186019E0C0
:1003900059F8041B204604EB87029161E168884705
:1003A000012F064618D1E069002820DA25F0200543
:1003B0001DE0D8F8180000EB800006EB4000303854
:1003C000C8F818002046E1688847064603F081FD1A
:1003D0000028EED1012F0AD02E2E08D12046E16848
:1003E00088477F1C0646022F45F02005C4DBA06924
:1003F000002803DA404245F00105A061E80701D07A
:1004000025F01005A6B1A6F14100192802D8203622
:1004100045F400654A463146204625604D46FFF7C3
:10042000C9FE60B1012807D0ED1D25F0070000E0EE
:1004300007E000F1080978E705F1040975E730469F
:100440007AE7206ABDE8F09FB83B00004FF0000259
:1004500000B5134694469646203922BFA0E80C50BA
:10046000A0E80C50B1F12001BFF4F7AF090728BF95
:10047000A0E80C5048BF0CC05DF804EB890028BF11
:1004800040F8042B08BF704748BF20F8022B11F03A
:10049000804F18BF00F8012B704710B5044610F0CC
:1004A000030F08BF11F0030F40F015804FF0013E1D
:1004B000121FC0F20E8051F8043BA3EB0E0C2CEA85
:1004C000030C1CEACE1C08BF40F8043BF0D0A1F19D
:1004D000040102F10402521E08DB11F8013B00F88E
:1004E000013B002BF7D1114600F07BF8204610BDF0
:1004F0007047704770472DE9F0470D469946924680
:10050000044600F124080168880604D5E06921F05A
:100510001001216000E00120A84201DD471B00E03E
:100520000027A1697A1902EB0900081AA061207856
:10053000C00602D42046FFF789FE002608E0D4E971
:1005400001211AF806009047206A401C761C2062A0
:100550004E45F4DB2078C0060AD52046FFF776FE2C
:1005600006E0D4E9012130209047206A401C206237
:10057000381EA7F10107F4DC07E0D4E9012118F8DF
:1005800005009047206A401C2062281EA5F1010545
:10059000F3DC2046FFF770FE2078000602D502202B
:1005A000BDE8F0870120FBE701694A1C0261087879
:1005B000704700B58FB0CDE90131002105910549A3
:1005C0007944CDE9031011466846FFF7A3FE0FB04A
:1005D00000BD0000E5FFFFFF0A6802F8010B0A609A
:1005E00070474FF000020429C0F0128010F0030C95
:1005F0003FF42EAFCCF1040CBCF1020F18BF00F891
:10060000012BA8BF20F8022BA1EB0C01FFF720BFA4
:100610005FEAC17C24BF00F8012B00F8012B48BF22
:1006200000F8012B7047754600F02CF8AE46050027
:100630006946534620F00700854618B020B5FFF7FD
:10064000DFFDBDE820404FF000064FF000074FF0FF
:1006500000084FF0000BAC46ACE8C009ACE8C0099C
:10066000ACE8C009ACE8C00921F007018D4670472D
:1006700010B50446AFF300802046BDE81040FFF7F8
:10068000ABBD0000004870477001002001491820F0
:10069000ABBEFEE72600020070470000826800291A
:1006A00022F0010218BF013282607047826800297F
:1006B00022F4807218BF02F58072826070470000D9
:1006C0008068C0F3800070478068C0F3C000704746
:1006D00080B542684FF6FF63CFF6F07302EA030C71
:1006E0000B680A7943EA0C0343EA022242608268FB
:1006F0004FF2FD73CFF6F17302EA030CD1E902E287
:100700004B7942EA0C0242EA0E0242EA430282605C
:10071000C26A097C22F470020139C9B242EA01516D
:10072000C16280BDB0B501EB410C4FF0100E09293C
:1007300088BFACF11E0C88BF4FF00C0E50F80E4075
:10074000072505FA0CF5AC4303FA0CF32343062AFC
:1007500040F80E3004D834306FF0040308E000BFD6
:100760000C2A87BF2C306FF0400330306FF022032B
:1007700002EB820205681A441F23934025EA030313
:10078000914019430160B0BD816841F0080181606A
:10079000704700008268002922F4A00218BF02F509
:1007A000A002826070470000816841F0040181600E
:1007B00070470000002101608180C0E90211012121
:1007C0000174704742F20841C4F201010A6800282E
:1007D00022F4000218BF02F500020A607047000010
:1007E00080B51B2001F020FF5B2001F01DFF3220AF
:1007F00001F01AFF4A2001F017FFBDE8804003F026
:1008000067BA000080B51B2001F00EFF5B2001F0ED
:100810000BFF302001F008FF4B2001F005FFBDE881
:10082000804003F055BA000010B51B2001F0FCFE1B
:100830005B2001F0F9FE322001F0F6FE4A2001F0C3
:10084000F3FE03F045FA40F24014C2F200042078AF
:100850003521A17001F0E8FE607801F0E5FEA07896
:1008600001F0E2FEBDE8104003F032BA70B561B1AC
:1008700043F605760C46451EC0F6000615F8010F36
:10088000305C01F0D1FE013CF8D1BDE8704003F0CE
:100890001FBA0000B0B582B046F276250C46312171
:1008A000C0F60005ADF80610ADF80410421C0DF1BD
:1008B00006002946FFF7B6FC621C01A82946FFF78F
:1008C000B1FC9DF8060040F25414C2F200042071FD
:1008D0009DF804102078A17001F0A6FE607801F068
:1008E000A3FEA07801F0A0FEE07801F09DFE207943
:1008F00001F09AFE607901F097FE02B0BDE8B040C9
:1009000003F0E6B970B50420C4F20200022140F2FF
:10091000D41340F2501C0160C2F20003C2F2000C7A
:100920001888BCF8001040F2621E084482B240F2FF
:10093000EE155008C2F2000EC2F20005ACF800003D
:100940005888BEF800109C882E880844311989B256
:1009500040F242244908C2F200042980D98825883F
:1009600080B2294489B249082180198940F2FE13D6
:10097000C2F200031C884508214489B24908B2F537
:100980007A6FAEF80050198024BF40F2CF71ACF8F6
:100990000010B0F57A6F24BF40F2CF70AEF80000BF
:1009A00070BD000002684FF6FE7C42F00103002992
:1009B00008BF02EA0C03036070470000002A0268C7
:1009C0000CBF22EA01011143016070472DE9F04795
:1009D000026847F6F073D1E9026A9A4301F1100701
:1009E000B0CF01F11C0E3243D1E900899EE80A50D4
:1009F0001A4322432A433A43114341EA0C0141EA94
:100A00000E010160C0F804A0C0F80880C0F80C9086
:100A1000BDE8F08780B52C21FFF718FD80BD0000F0
:100A2000B0B5CB7803F00F0CDA0644BF8A784CEAF5
:100A3000020C09885FEA016E00F0F0800268282B42
:100A400016D0482B2ED1CC075ED18C0764D44C072E
:100A50006AD40C0770D4CC0677D48C0600F17E8063
:100A60004C0600F18480BEF1000F00F18980D4E0D3
:100A7000CC0740F08D808C0700F193804C0700F18B
:100A800099800C0700F19F80CC0600F1A5808C06B0
:100A900000F1AB804C0600F1B180BEF1000F00F117
:100AA000B680BAE022F00F04CD0718BF44EA0C026A
:100AB00022F0F0048D0748BF44EA0C1222F470645F
:100AC0004D0748BF44EA0C2222F470440D0748BF8A
:100AD00044EA0C3222F47024CD0648BF44EA0C42AA
:100AE00022F470048D0648BF44EA0C5222F0706470
:100AF0004D0648BF44EA0C62BEF1000F44BF22F02D
:100B0000704242EA0C7288E022F00F0242EA0C02C4
:100B1000012404618C079AD522F0F00242EA0C12FB
:100B2000022404614C0794D522F4706242EA0C223C
:100B3000042404610C078ED522F4704242EA0C3280
:100B400008240461CC067FF588AF22F4702242EAC3
:100B50000C42102404618C067FF582AF22F47002EF
:100B600042EA0C52202404614C067FF57CAF22F04F
:100B7000706242EA0C6240240461BEF1000F4CD561
:100B800022F07042802542EA0C72056145E000BF08
:100B900022F00F0242EA0C02012444618C077FF527
:100BA0006DAF22F0F00242EA0C12022444614C07BD
:100BB0007FF567AF22F4706242EA0C22042444619C
:100BC0000C077FF561AF22F4704242EA0C32082430
:100BD0004461CC067FF55BAF22F4702242EA0C42FE
:100BE000102444618C067FF555AF22F4700242EA6E
:100BF0000C52202444614C067FF54FAF22F0706206
:100C000042EA0C6240244461BEF1000F05D522F097
:100C10007042802542EA0C7245610260B1F5807F26
:100C200038BFB0BD4268282B16D0482B2CD1CB053D
:100C30005CD48B0563D44B056AD40B0571D4CB040B
:100C400079D48B0400F181804B0400F18880090481
:100C500000F18F804260B0BDCB0500F193808B0521
:100C600000F19A804B0500F1A1800B0500F1A880EE
:100C7000CB0400F1AF808B0400F1B6804B0400F18F
:100C8000BD800904E6D5C3E022F00F03CD0548BFBF
:100C900043EA0C0222F0F0038D0548BF43EA0C1230
:100CA00022F470634D0548BF43EA0C2222F47043DE
:100CB0000D0548BF43EA0C3222F47023CD0448BF2F
:100CC00043EA0C4222F470038D0448BF43EA0C52FD
:100CD00022F070634D0448BF43EA0C62090444BF2C
:100CE00022F0704141EA0C724260B0BD22F00F0266
:100CF00042EA0C024FF4807303618B059BD522F00E
:100D0000F00242EA0C124FF4007303614B0594D5D4
:100D100022F4706242EA0C224FF4806303610B05F7
:100D20008DD522F4704242EA0C324FF40063036125
:100D3000CB047FF586AF22F4702242EA0C424FF4D6
:100D4000805303618B047FF57FAF22F4700242EA87
:100D50000C524FF4005303614B047FF578AF22F03F
:100D6000706242EA0C624FF48043036109047FF52C
:100D700071AF22F0704141EA0C724FF40041016101
:100D80004260B0BD22F00F0242EA0C024FF48073C1
:100D900043618B057FF566AF22F0F00242EA0C1248
:100DA0004FF4007343614B057FF55FAF22F470622F
:100DB00042EA0C224FF4806343610B057FF558AF84
:100DC00022F4704242EA0C324FF400634361CB04D8
:100DD0007FF551AF22F4702242EA0C424FF4805367
:100DE00043618B047FF54AAF22F4700242EA0C5251
:100DF0004FF4005343614B047FF543AF22F0706220
:100E000042EA0C624FF48043436109047FF522AF4C
:100E100022F0704141EA0C724FF40041416142609E
:100E2000B0BD00004FF6FF71C0F202410160704793
:100E300000F0B6FD10B5C17800294EF20011CEF2D7
:100E400000011BD04EF60C52CEF2000212680723AE
:100E500023EA12220F23C2F1040C23FA02F2437890
:100E6000847890F800E003FA0CF322401A43120150
:100E700001EB0E0383F8002301E000BF803100780E
:100E8000012300F01F0203FA02F2C0F3421041F8FE
:100E9000202010BD002941F21401C4F202010A68A9
:100EA0000CBF22EA0000104308607047002941F29D
:100EB0001C01C4F202010A680CBF22EA00001043C0
:100EC00008607047002941F21801C4F202010A6863
:100ED0000CBF22EA000010430860704710B541F2D1
:100EE0000404C4F20204226802F00C02082A41F24F
:100EF0000022C0F27A0219D12368D4F800C0C3F3EB
:100F0000834E5FEACC330EF1020C07D440F6001298
:100F1000C0F23D020CFB02F208E000BFA36A03F03E
:100F20000F030133B2FBF3F202FB0CF20260236801
:100F300043F6F561C3F30313C0F60001CB5CDA405E
:100F400042602368C3F30223CB5C22FA03F383607D
:100F50002368C3F3C223C95C43F6F16322FA01F1AB
:100F6000C1602268C0F60003C2F381329A5CB1FB13
:100F7000F2F1016110BD000082B041F20400C4F240
:100F8000020050F8041C002241F0010140F8041C4A
:100F90000168CFF6FF021140016050F8041C4FF6C3
:100FA000FF72CFF6F662114040F8041C50F8041CA2
:100FB00021F4802140F8041C016821F4FE01016045
:100FC0004FF41F014160002181620191009150F8AE
:100FD000041C41F4803140F8041C00BF50F8041C8C
:100FE00001F400310091019901310191009919B981
:100FF0000199B1F5A06FF1D150F8041C890354BFD9
:101000000021012100910099012941D1016801606D
:101010000168016001680160016821F47C110160D0
:10102000016841F49811016050F8041C41F080718E
:1010300040F8041C50F8041C89015FBF50F8041CE0
:101040005FEA811150F8041C5FEA811103D450F863
:10105000041C8901EED5016821F0030101600168DB
:1010600041F00201016000BF016801F00C01082994
:101070000ED0016801F00C01082909D0016801F0C7
:101080000C01082904D0016801F00C010829EBD1FA
:101090004EF60850CEF200004FF00061016002B041
:1010A00070470000B0B542F61044C4F20104208835
:1010B00020F00100208040F29E20C2F20000017862
:1010C00031B344F20000C4F201000188002521F090
:1010D00001010180B0F844106FF3DF31A0F8441033
:1010E00040F2A420C2F20000057040F26410C2F287
:1010F00000004FF4FA7101804FF4FA7001F064FCC3
:1011000040F2A520C2F200002D210170A582B0BDE1
:1011100001210170B0BD00002DE9F04381B040F223
:101120001040C4F20000018840F2D01621F0010105
:10113000018000218182C2F20006307800282BD085
:1011400040F2A520C2F20000017840F23F15243998
:1011500040F2F11740F2A42840F2F0190C29C2F233
:101160000005C2F20007C2F20008C2F2000900F254
:101170007480DFE801F0071721357272723B724B01
:101180007259690099F80010002966D10021717028
:101190007180262160E000BF0120307001B0BDE801
:1011A000F08300BF40F20F21C2F20001097800294C
:1011B00000F038812B214FE07188012200293A701C
:1011C00000F04281282948D340F23822C2F20002BE
:1011D0001388002171707180591C118030213BE00F
:1011E00040F20C20C2F20000002135E040F2521122
:1011F0000020C2F20001087040F26611C2F2000144
:10120000012238700A702A7030E000BF718800290E
:1012100000F01C81502920D340F2A721C2F2000126
:101220000978D1B9242117E040F24B22C2F2000222
:10123000127840F21021C2F200010123002A0B7043
:1012400000F00881272107E099F80020002139707B
:101250001AB1717071802521017040F26610C2F2DE
:1012600000000078B0FA80F040098001717840F603
:101270000C04C4F201047288002918BF511C71804B
:10128000D4F8001421F040010843C4F80004287881
:10129000D4F80014002821F0200108BF2031C4F840
:1012A00000143878D4F80018002821F4805118BFB1
:1012B00001F58051C4F8001898F8000010B101F051
:1012C000A3FE01E001F002FF40F21220C2F2000092
:1012D000007818B101F04EFE02E000BF01F0C0FE40
:1012E00040F27925C2F20005287818B101F076FEA7
:1012F00002E000BF01F0D4FE40F2EE10C2F20000A6
:10130000018899F80000B1F5AF6F03D910B9012039
:1013100005E000BF4909182903D810B1002089F859
:10132000000040F25017C2F200073A8840F2142041
:1013300040F23421C2F20000C2F2000101F0F8F9DB
:1013400040F26216C2F20006328840F27C2040F27F
:101350009C21C2F20000C2F2000101F0E9F940F262
:101360003620C2F200000178206859B140F4807044
:101370002060206820F400602060D4F8000420F48D
:1013800000400AE020F480702060206840F4006093
:101390002060D4F8000440F40040C4F8000440F297
:1013A0001420C2F2000001F0A1F93A8840F24A117B
:1013B000C2F20001012300F009FB01F0CDFA40F276
:1013C0005E10C2F20000027840F25F10C2F200002C
:1013D00001785AB100291EBF00212970017001F067
:1013E0004FF901B0BDE8F04301F0EEBA11B90121A7
:1013F0002970017040F27C20C2F2000001F076F901
:10140000328840F25A11C2F20001002300F0DEFAE5
:1014100001F0BEFA01F034F901B0BDE8F04301F08B
:10142000D3BA00BF98F8000000287FF416AF40F24E
:101430006410C2F200004FF4FA710180012088F8B4
:10144000000001F0E1FD08E7727006E7012070700E
:1014500003E700BF40F2A72140F2A822C2F2000138
:10146000C2F200020978127811437FF4F6AE23210C
:10147000F2E6000010B540F61000C4F2000001884A
:1014800021F0010101800021818240F2A220C2F2FC
:1014900000000178002949D040F60C44C4F2010450
:1014A00001F044FE40F23B20C2F200000078D4F884
:1014B0000014002821F4006140F23A2018BF01F521
:1014C0000061C4F80014C2F200000078216800280E
:1014D00021F4805140F2A72018BF01F5805121600E
:1014E000C2F2000000782168002821F4005140F287
:1014F000A82018BF01F500512160C2F20000007859
:101500002168002821F4006140F24C2018BF01F549
:1015100000612160C2F200000178206800290CBF40
:1015200020F4806040F48060206010BD01210170D3
:1015300010BD000080B541F21040C4F200000188E7
:1015400021F0010101800021818240F2A320C2F23A
:101550000000017841B100F0F1FD00F0CFFBBDE8E3
:10156000804000F0F7BE00BF0121017080BD000087
:10157000C9430182704700000288002918BF012179
:1015800022F001021144018070470000B0F808C049
:1015900011435FFA8CFC41EA032141EA0C0101810D
:1015A000018941F48041018170470000002A82894D
:1015B0000CBF22EA0101114381817047B0B5028C52
:1015C00022F001020284038C8288B0F818C00C89D2
:1015D00023F002032343A0F180444D88A4F5963400
:1015E000B1F800E04FEAB424072C43EA050313D80E
:1015F000012505FA04F414F0E50F0DD04C8923F011
:101600000C0324F004048D8823438C892B4322F49B
:101610004072CD8922432A432CF0730545EA0E051A
:1016200082800583C98881860384B0BDB0B5028CF1
:1016300043F2004422F010020284028C8588B0F844
:1016400018C00B8922F0200242EA03124B88C4F230
:101650000104B1F800E0A04242EA031205D042F6CC
:101660000043C4F20103984212D14B896FF0400449
:1016700022F0C00204EA03138C881A4342EA0412DF
:101680008C8925F44063CD8943EA840343EA8505C8
:101690002CF4E64343EA0E2385800383C98801873F
:1016A0000284B0BDB0B5028C43F2004422F48072D3
:1016B0000284028C8588B0F81CC00B8922F4007269
:1016C00042EA03224B88C4F20104B1F800E0A042D0
:1016D00042EA032205D042F60043C4F201039842D5
:1016E00012D14B8940F2FF441B0222F44062A34313
:1016F0008C881A4342EA04228C8925F44053CD8910
:1017000043EA041343EA05152CF0730343EA0E037E
:1017100085808383C98881870284B0BD70B5028CBF
:1017200043F2004622F480520284048C8288838B28
:10173000B1F800E00D89B1F802C0C4F20106B04270
:1017400005D042F60046C4F20106B04204D18E89AB
:1017500022F4804242EA861223F4E64343EA0E234F
:1017600024F400548280838344EA0534C98844EA1F
:101770000C32A0F84010028470BD00000021C1604E
:10178000816041600160704740F6FF33B0F800C0EF
:10179000C4F2000398420FDCB0F1804F1ED040F23B
:1017A0000043C4F20003984218D040F60003C4F28C
:1017B0000003984212D016E040F60043C4F2000342
:1017C00098420BD043F20043C4F20103984205D083
:1017D00042F60043C4F20103984204D14B882CF036
:1017E000700243EA020C41F2004240F48063C4F20A
:1017F0000002934204D0CA882CF4407342EA030CDE
:10180000A0F800C08A888285A0F18042A2F59632B5
:101810000B884FEAB222072A038507D8012303FA6F
:1018200002F212F0E50F1CBF097A018601218182C4
:101830007047000000220021CFF6FF720180C180B6
:10184000C0F802200172704710B540F2A620C2F223
:101850000000017843F60004C4F20104D1B12088ED
:1018600040060FD500F0D0FE60B940F25400C2F23D
:101870000000012180F8E41000F0E4FE014620465B
:1018800000F080F8204640F22661BDE8104000F0EC
:101890000BB800BF01210170204640F22661BDE86F
:1018A000104000F001B80000090A012202FA01F11B
:1018B000C9430180704700008289002918BF0121B7
:1018C00022F4005242EA41318181704770B586B0FE
:1018D0000446008A0D46C98820F4405008432082FF
:1018E000A0894EF6F3110840A9882A896B8908431C
:1018F00010431843A081A08AA98920F440700843AE
:1019000001AEA0823046FFF7E9FA43F6000106F186
:101910000800C4F201018C4208BF06F10C00006807
:101920001922B4F90C1050432A680123B1F1FF3F8A
:10193000C8BF022302FA03F1B0FBF1F048F21F51D5
:10194000C5F2EB11A0FB01235A096FF0630302FB00
:101950000300B4F90C300326B3F1FF3FC8BF0426DF
:1019600000FA06F000F13200A0FB01014FF0070081
:10197000C8BF0F2000EA511040EA0210208106B0D3
:1019800070BD00006FF35F21818070474FF41651E6
:1019900000224FF4402380E80E008281704700004F
:1019A0004EF60C50BFF34F8FCEF2000001680422B8
:1019B00001F4E061C0F2FA5211430160BFF34F8FAE
:1019C00000BF00BF00BF00BFFAE7000010B5B0F5D0
:1019D000FA6F09D343B1088845F26201C0F60001ED
:1019E00001EB4000008810BDB1F800C0B0F5FA6FFF
:1019F00008D33BB944F20600C0F6000000EB4C00EF
:101A0000008810BD63B140F2132EC2F2000E9EF8A2
:101A10000030BCF5E16F11D983B90023012414E033
:101A200040F27A2EC2F2000E9EF8003040F28D4451
:101A3000A44521D803BB0023012424E04FEADC04A1
:101A4000E02C09D843B1012300248EF8004040F275
:101A50001224C2F200042370844527D1088040F28A
:101A60001120C2F200000022027040F23520C2F2C2
:101A700000000270AFE700BF40F28F44A44509D3D5
:101A800043B1012300248EF8004040F27924C2F2D1
:101A900000042370844547D1088044F20601C0F653
:101AA000000101EB4000008810BD00BF78D840F273
:101AB0004C1EC2F2000EBEF900406444B4F5FA6F49
:101AC0006EDABCEB020248BF524248F21F5492B297
:101AD000C5F2EB14A2FB0424FC23C4F3071203EAAF
:101AE000141345F23A04C0F60004132B88BF1322E6
:101AF00040F2112334F81240C2F200031A70AEF81B
:101B000000400A8840F2CF7C224493B2634538BF3C
:101B10009446A1F800C0BEF900201FFA8CF31A44C5
:101B20008242A8BF84467CE000F2968040F25C13BB
:101B3000C2F20003B3F900306344B3F5FA6F80F2E8
:101B40008B80B2EB0C0248BF524202F0FC03132B15
:101B500040F29D23C2F2000388BF13221A7046F29E
:101B60004E23D2B2C0F6000333F8122040F26013C5
:101B7000C2F200031A800C8804EB020C1FFA8CF2EC
:101B800012097C2A88BF4FF0000CA1F800C0B3F9FD
:101B900000201FFA8CF39A1A8242D8BF844697E03D
:101BA000844540D340F24C13C2F20003B3F9003035
:101BB0009C4538DDB2EB0C0248BF524248F21F533D
:101BC00092B2C5F2EB13A2FB0323FC24C3F307126A
:101BD00004EA1313132B40F23523C2F2000388BF2B
:101BE00013221A7046F24E23C0F6000333F8122077
:101BF00040F24E13C2F200031A800C8804EB020C70
:101C00001FFA8CF212097C2A88BF4FF0000CA1F851
:101C100000C0B3F900201FFA8CF31A448242D8BFE7
:101C20008446A1F800C045F262021FFA8CF0C0F6AB
:101C300000024FF6D82302EB4000CFF6FF73C05AE4
:101C400040F24413C2F200031880088802EB4000FF
:101C5000A0F5A560008810BD84453BD340F25C1E12
:101C6000C2F2000EBEF90040A44533DDBCEB020217
:101C700048BF524248F21F5492B2C5F2EB14A2FB85
:101C80000424FC23C4F3071203EA141345F23A04B4
:101C9000C0F60004132B88BF132240F2782334F8D7
:101CA0001240C2F200031A70AEF800400A8840F2F7
:101CB000CF7C224493B2634538BF9446A1F800C05C
:101CC000BEF900201FFA8CF31A448242A8BF844652
:101CD000A1F800C044F206021FFA8CF0C0F6000220
:101CE00002EB4000008D40F24613C2F20003188060
:101CF000088802EB40002830008810BDB0B540F2E3
:101D0000A525C2F20005287840F23D241F3811288D
:101D1000C2F2000400F2CC81DFE810F012002E00C5
:101D20003400CA014000CA01CA01CA0164008C0023
:101D3000A600AC00D800CA01DE00CA01CA01C40076
:101D400021780F2940F0DC802020287040F24820C4
:101D5000C2F200000021018040F20D20C2F200001A
:101D6000017040F2462040F20E22C2F20000C2F2A0
:101D7000000200781170CBE021780F2940F0D0806C
:101D800021207CE021780F2940F0F08040F21020E3
:101D9000C2F200000121017070E000BF2078142819
:101DA00000F28681DFE810F04000840184018401A4
:101DB00058018401840184016E018401840184013D
:101DC0008401760184011600840184018401840168
:101DD000780100BF4FF4FA7000F0F6FD01F076F9DB
:101DE00064E100BF207840F2F111C2F2000100224C
:101DF00014280A7000F25C81DFE810F016005A0126
:101E00005A015A012E015A015A015A0144015A013C
:101E10005A015A015A014C015A015A015A015A01F8
:101E20005A015A014E0100BF40F23620C2F20000B2
:101E3000002116E121780F2940F0B8802920287070
:101E400040F24820C2F200000021018040F20D2043
:101E5000C2F20000017040F20E20C2F200000170D8
:101E6000FF202070B0BD00BF21780F2940F0B28064
:101E70002A2004E021780F2940F0C4800320287034
:101E800040F24820C2F200000021018040F20D2003
:101E9000C2F20000017040F20E20C2F20000017098
:101EA00004E100BF40F20C21C2F2000108782F28A3
:101EB0009CBF013008702178142940F0F980FF217F
:101EC0003028217024BF2B202870F1E040F2F1105F
:101ED000C2F2000047E000BF20780F2840F0E88001
:101EE00001F00AF940F27720C2F2000000210170EF
:101EF0002720287040F24B20C2F200000121CEE7DB
:101F000040F24625C2F20005287800F07BFA2870DE
:101F100040F24521C2F20001097808430FE000BFFA
:101F200040F24525C2F20005287800F06BFA40F235
:101F30004621C2F20001097828700843C0B240F27D
:101F40004421C2F2000140F24A220978C2F20002A2
:101F50001278084310434FF0FF00207074D140F214
:101F60003B20C2F2000000210170A1E040F24425B4
:101F7000C2F20005287800F045FA40F24622C2F28B
:101F80000002127840F245232870C2F20003104389
:101F900040F24A221B78C2F2000212781843104322
:101FA000FF21000621704FD1D9E700BF40F246253E
:101FB000C2F20005287800F025FA3821C4F20001A9
:101FC0002870088140F24521C2F200012878097882
:101FD00012E000BF40F24525C2F20005287800F06B
:101FE00011FA3821C4F200012870088040F246201E
:101FF000C2F200000078297840F24422C2F20002C6
:10200000127816E040F24425C2F20005287800F06C
:10201000F9F93821C4F200012870888040F2462086
:1020200040F24521C2F20000C2F2000100780978B6
:102030002A78084340F24A21C2F20001097810438D
:10204000FF22084322708AD040F23B20C2F20000F7
:10205000012101702CE000BF40F23620C2F20000E6
:102060000121017040F23C20C2F200000178B4204E
:10207000002908BF4FF4E17000F0A6FC00F0C4FF97
:1020800016E000BF40F23C20C2F20000017881F06F
:1020900001010170012008E000F0CCFF40F2772040
:1020A000C2F200000121017002202870FF20207080
:1020B00040F60840C4F2010040F240210368C2F239
:1020C00000010A781B0609D542B901220A701421C1
:1020D000217021780C2909D018E000BF0368002A7C
:1020E0001CBF00220A7021780C290FD140F2772101
:1020F000C2F20001097849B940F25211C2F200015E
:102100000A7882F001020A70FF21217040F25E110C
:10211000C2F20001097809B1002003E0D0F8000400
:10212000C0F3802040F20F21C2F20001087040F29B
:102130004C21C2F200010870B0BD000041F20C0C4D
:10214000C4F2010CDCF8001041F04001CCF80010A2
:102150005CF8041CC9077DD15CF8040C800700F111
:1021600091805CF8040C400700F1A4805CF8040C3A
:10217000000700F1B780DCF8000020F07F00CCF809
:102180000000DCF8000040F08000CCF800005CF8B3
:10219000040CC00740F0C6805CF8040C800700F116
:1021A000C3805CF8040C400700F1C0805CF8040CAC
:1021B000000700F1BD80DCF8000020F0FF00CCF843
:1021C0000000DCF8000040F48070CCF800005CF8FF
:1021D000040CC00740F0AE805CF8040C800700F1EE
:1021E000AB805CF8040C400700F1A8805CF8040C9C
:1021F000000700F1A580DCF8000040F2FF118843E1
:10220000CCF80000DCF8000040F40070CCF80000CE
:102210005CF8040CC00740F095805CF8040C800763
:1022200000F192805CF8040C400700F18F805CF8AC
:10223000040C000700F18C80DCF8000040F2FF3154
:102240008843CCF8000040F23E20C2F2000000219A
:1022500001707047002140F23E22C2F20002137862
:10226000002B55D140F23D208B00C2F200000370DC
:1022700040F23F20C2F200000023037001201070E2
:1022800046E000BF002140F23E22C2F20002107878
:1022900000283DD1880040F23D230130C2F2000306
:1022A000187040F23F20C2F20000002303700120AA
:1022B00010702DE0002140F23E22C2F200021078A0
:1022C00030BB880040F23D230230C2F20003187098
:1022D00040F23F20C2F20000002303700120107082
:1022E00016E000BF002140F23E22C2F20002107848
:1022F00070B9880040F23D230330C2F20003187029
:1023000040F23F20C2F20000002303700120107051
:102310006FF07F00DCF8002088401040CCF800000F
:10232000704700BF012196E70121ACE70121C2E718
:102330000121D8E702218EE70221A4E70221BAE7B2
:102340000221D0E7032186E703219CE70321B2E7BE
:102350000321C8E741F20840C4F2010040F25311E2
:102360000368C2F200010A785B0725D522B340F268
:102370001023C2F200031B78F3B100220A7040F26E
:102380004811C2F200010A7040F26611C2F2000167
:102390000A7040F23F11C2F200010A7044F22401B7
:1023A000C4F201010A8040F26411C2F200014FF44C
:1023B000FA720A8017E000BF002A036808BF13F012
:1023C000040210D101220A7040F24811C2F2000149
:1023D0000A7040F26611C2F200010A7040F23F1129
:1023E000C2F200010A704FF60001CFF6FF714058AB
:1023F000012121EA900040F25E11C2F20001087052
:102400007047000010B54A1E0D2A0DD84FF0000E7F
:10241000DFE802F01F1F080A1214160A181A1C0A15
:102420005C6400BF032112E040F20E21C2F2000101
:10243000FF22C0B20A7010BD042108E0052106E0A9
:10244000062104E0072102E0082100E009214FF005
:10245000010E40F20D2CC2F2000C9CF8004040F23C
:102460000E23C2F20003022C197019D94CF6CD428A
:10247000CCF6CC42A0FB0202D00800EB800001EBBE
:102480004000FF2888BF084640F24821C2F2000100
:1024900008800024611CC0B28CF8001010BD00BF81
:1024A000A31E8EF0010218BF01231A4306D1032098
:1024B0008CF80000FF20C0B210BD00BF022C11D06C
:1024C000012C49D0002CE5D1D0E700BF40F20D210E
:1024D000C2F2000100200870C0B210BD4FF0000E23
:1024E0000021B6E748F21F52C5F2EB12A0FB0234FE
:1024F00063096424642828BF03FB140001FB040063
:1025000040F24821C2F20001B0F5807F08801CD360
:102510004CF6CD43C0B2CCF6CC43A0FB0304E0089C
:1025200000EB80004000C0B20A280DD3A0FB0334AA
:10253000A0FB02235B09E20803EB8303A2EB430247
:1025400002EB8202A0EB420008800224611CC0B2B0
:102550008CF8001010BD00BF48F21F5E0A28C5F2BB
:10256000EB1E11D34CF6CD43CCF6CC43A0FB033489
:10257000A0FB0E325209E30802EB8202A3EB4202F7
:1025800002EB8202A0EB420001EB81014900C9B2DB
:10259000084481B2B1F5807F08D3C0B2A0FB0E120F
:1025A00051096422642828BF01FB120040F248212F
:1025B000C2F2000108800124611CC0B28CF8001036
:1025C00010BD0000B0B541F22405C4F20005044678
:1025D0000021284620F824190121FEF7CDFF00BF75
:1025E0002888A04208D22888A04205D22888A04284
:1025F00002D22888A042F3D3A5F124000021BDE82F
:10260000B040FEF7B9BF000040F25401C2F2000131
:1026100091F8E2000028B0FA80F04FEA501004BFB1
:10262000002281F8E420704740F25401C2F2000118
:1026300091F8E220885491F8E200013081F8E2003C
:102640007047000040F25401C2F2000191F8E0002E
:102650004FF0000C085C91F8E03001F803C091F8ED
:10266000E03091F8E220934202BF81F8E0C081F8A7
:10267000E2C0704791F8E020013281F8E020704715
:1026800042F62440C4F20100008840F655318842E9
:1026900040F26410C2F200000AD340F26711C2F2A5
:1026A000000191F9001002881144018088B270473E
:1026B00040F2A421C2F20001097899B140F26711F9
:1026C000C2F2000191F9003040F268110288C2F2B2
:1026D00000010988D21A8A42C8BF1146018088B217
:1026E000704700BF4FF6FF7188B27047018842887B
:1026F000C3881144828811440289194443891144D2
:1027000082891944C3891144028A1944438A1144B5
:10271000828A1944C38A1144028B1944438B1144A1
:10272000828B1944C08B11440844C0F30F107047CA
:102730000B78102B24BF00230B7020F8132008788F
:1027400001300870704700008CB040F25400C2F2B3
:102750000000DF2142F2004480F8E110E021002671
:10276000C4F2010480F8E31080F8E46080F8E260CD
:1027700000F0D8F900F0D4FB00F00AFB00F084FA76
:1027800000F03AF900F04EFA00F06AFB00F0A6FB08
:1027900000F092F900F02EFB00F0C6FA01200121B2
:1027A0000127FEF783FB09AD2846FFF743F84FF4F6
:1027B00040700A904FF0804029468DF82C600997B0
:1027C000FEF7E2FF05AD2846FEF7D8FF6020C0F215
:1027D000010005904FF080402946ADF81A60FEF7E1
:1027E00025FF4FF080402946FEF75CFF4FF0804008
:1027F0002946FEF793FF00F01FF94FF40070012106
:10280000FEF760FB6D462846FDF7D4FF4FF46020CD
:10281000029006208DF8100040F20110ADF804007F
:102820002046294603960096FDF752FF20460421D4
:1028300001220723FDF776FF204605210222072308
:10284000FDF770FF20460E2103220723FDF76AFFE4
:1028500020460F2104220723FDF764FF20461021A4
:1028600005220723FDF75EFF2046112106220723DC
:10287000FDF758FF20460121FDF710FF20460121FA
:10288000FDF714FF0120FDF79DFF2046FDF77CFFBB
:102890002046FDF719FF0028FAD12046FDF784FFF6
:1028A0002046FDF70DFF0028FAD120460121012521
:1028B000FDF7F4FE20460121FDF7F8FE2046012138
:1028C000FDF768FF4FF080400121FEF755FE04F54B
:1028D000A05420460121FEF7EFFF40F26710C2F23C
:1028E00000001221017040F26810C2F20000502175
:1028F000018040F21220C2F20000057040F27920FF
:10290000C2F20000057020460121FEF7D5FF40F21B
:102910006410C2F20000008800F056F800F040FB9E
:1029200000F052FB40F60C40C4F20100016841F493
:10293000004101604FF48570FFF744FEFDF774FF1E
:1029400001F0E2F900F036FB40F2A520C2F20000EF
:10295000057000BFFEE7000044F62401C4F2010147
:102960000A880A89824208BF704740F20023420861
:10297000C2F2000308810A82188040F20223C2F2E8
:1029800000031A800A88824284BF01380880704799
:1029900044F22441C4F201010A880A89824208BF34
:1029A000704740F208234208C2F2000308810A82FD
:1029B000188040F20A23C2F200031A800A88824279
:1029C00084BF01380880704744F22401C4F2010139
:1029D0000A880B89834208BF7047430808810B822D
:1029E0000B88834284BF013808800889B0EB420F0E
:1029F00084BF500008807047B0B584B0102001211A
:102A0000FEF754FA01AC2046FEF714FF002041F215
:102A10000005ADF80A008DF80C0045F6C050C4F270
:102A20000005019028462146FEF7AEFE288840F0BA
:102A30000100288004B0B0BDB0B58CB001200121E8
:102A4000FEF728FA01AC2046FDF7E4FF40F2D4116E
:102A5000C2F2000102914FF4806108918021069139
:102A600020210620099142F24C4104900020C4F23A
:102A70000101082503900B9001914FF4807105909E
:102A80004FF40050C4F2020507910A9028462146EF
:102A9000FDF79CFF28460121FDF784FF284602210F
:102AA0000122FDF78BFF4EF20010CEF200004FF432
:102AB000006101600CB0B0BDB0B588B04FF48020AB
:102AC0000121FEF7FFF905AC2046FEF7B3FE00201A
:102AD0008DF81C00182044F6000505904FF4AF60F7
:102AE000C4F20105069028462146FEF74DFE01ACD2
:102AF0002046FEF743FE6020C0F2010001904FF433
:102B00002F70ADF80A0028462146FEF757FD40F623
:102B10000C00C4F20100016821F48071016008B06A
:102B2000B0BD00002DE9F04182B0042001214FF03A
:102B30000408FEF7C7F908200121FEF7C3F91020A9
:102B400001211027FEF7BEF920200121FEF7BAF976
:102B500001AC2046FEF766F9842040F60045C2F637
:102B60000200C4F20105019028462146FDF758FFF6
:102B70000F2005F58066ADF8040030462146FDF7CC
:102B80004FFF05F500602146ADF80480FDF748FFD2
:102B90008DF8077040F60110A5F58067ADF80400C8
:102BA00038462146FDF73CFF4BF6E440ADF8040003
:102BB00028462146FDF734FF4FF6C070ADF80400FB
:102BC00030462146FDF72CFF00208DF80700F0204D
:102BD000ADF8040038462146FDF722FF0320ADF88A
:102BE000040028462146FDF71BFF3020ADF8040005
:102BF00030462146FDF714FF18208DF8070041F2FA
:102C00000E60ADF8040038462146FDF709FF4FF489
:102C10008640ADF8040028462146FDF701FF02B0CA
:102C2000BDE8F08170B584B020200121FEF73EF9A7
:102C300001AC2046FEF7FEFD45F6C05041F20045CE
:102C400001901520C4F20005002602902846214676
:102C50008DF80C60FEF798FDAE84A88A1E2140F026
:102C60000100A8822846FEF783FC284601210122A4
:102C7000FEF79CFC4EF20410CEF200004FF400016F
:102C8000016004B070BD00002DE9F04184B040F651
:102C90000004C4F200042046012100220026FEF7B1
:102CA00085FC4EF20018CEF200084FF08047C8F8BD
:102CB0008070BFF34F8F04200121BFF36F8FFEF7A9
:102CC000F5F801AD2846FEF7B5FD45F6C050019078
:102CD0005D200290204629468DF80C60FEF754FDD9
:102CE000A684A08A1E2140F00100A0822046FEF7A3
:102CF0003FFC204601210122FEF758FC46F28324C6
:102D0000C8F8007040F24D20C0F60004C2F2000086
:102D100021461522FDF7C1FB153021461522FDF78E
:102D2000BCFB04B0BDE8F08110B582B01920C0F240
:102D3000011001AC01902046FEF77CF840F21D2006
:102D4000C0F2061001902046FEF774F840F21E40D3
:102D5000C0F2061001902046FEF76CF840F23630C3
:102D6000C0F2061001902046FEF764F840F23730BA
:102D7000C0F2061001902046FEF75CF840F2256094
:102D8000C0F2091001902046FEF754F802B010BDC1
:102D900070B584B0022001210125FEF787F801AC4F
:102DA0002046FEF747FD45F6C050CDE9010540F24B
:102DB0000045C4F200050026284621468DF80C6027
:102DC000FEF7E2FCAE84A88A1E2140F00100A88232
:102DD0002846FEF7CDFB284601210122FEF7E6FB3F
:102DE0004EF20010CEF200004FF00051016004B02E
:102DF00070BD0000B0B588B04FF400300121FEF77F
:102E000061F805AC2046FEF715FD00208DF81C008A
:102E1000182044F2004505904FF4AF60C4F201055C
:102E2000069028462146FEF7AFFC01AC2046FEF78F
:102E3000A5FC6020C0F2010001904FF42F70ADF8A6
:102E40000A0028462146FEF7B9FB40F60C00C4F202
:102E50000100016841F40061016008B0B0BD0000EC
:102E600070B588B04FF480300121FEF72BF80120B7
:102E70000121FEF727F81C26C4F20106306805ACD4
:102E800040F0010030602046FEF7D4FC00208DF8B1
:102E90001C00182044F2000505904FF4AF60C4F206
:102EA0000105069028462146FEF76EFC01AC20463F
:102EB000FEF764FC6020C0F2010001904FF42F7017
:102EC000ADF80A0028462146FEF778FBD6F8F00B4D
:102ED00020F40040C6F8F00B08B070BDB0B584B067
:102EE0004FF400600121FDF7EDFF01AC2046FEF735
:102EF000A1FC002042F600458DF80C00019040F640
:102F00007F40C4F20105029028462146FEF73CFCB2
:102F10002846002100220023FEF738FB04B0B0BD94
:102F2000B0B584B04FF480400121FDF7CBFF6C4673
:102F30002046FEF72BFD4FF4165043F60C0500908B
:102F400000204FF40021C4F20105ADF80C00CDE9DA
:102F50000101A5F10C002146FEF7B8FC28882021CC
:102F600040F0400028804EF20410CEF200000160D4
:102F700004B0B0BD44F60000C4F20100018841F085
:102F800001010180B0F8441041F40041A0F8441060
:102F900040F2A720C2F2000001210170704700003A
:102FA00041F20040C4F20000018841F001010180BB
:102FB0007047000040F60000C4F20000018841F0B4
:102FC000010101807047000040F20040C4F200009F
:102FD000018841F0010101807047000044F2004087
:102FE000C4F20100018841F001010180B0F84410F1
:102FF00041F40041A0F8441040F2A820C2F20000C1
:10300000012101707047000044F20000C4F2010089
:10301000018841F001010180B0F8441041F4004101
:10302000A0F8441040F23A20C2F2000001210170E1
:103030007047000080B542F60040C4F201000188EC
:10304000012241F0010101800121FEF7AFFA4EF2A9
:103050000010CEF200004FF00071016080BD000052
:1030600044F60000C4F20100018821F00101018052
:10307000B0F844106FF3DF31A0F8441000218184D0
:1030800040F2A720C2F200000170704740F20040F9
:10309000C4F20000018821F00101018070470000A6
:1030A00044F20040C4F20100018821F001010180D6
:1030B000B0F844106FF3DF31A0F8441040F2A820BC
:1030C000C2F20000002101707047000044F20000CD
:1030D000C4F20100018821F001010180B0F8441020
:1030E0006FF3DF31A0F844100021818440F23A20D0
:1030F000C2F200000170704780B542F60040C4F291
:1031000001000188002221F0010101800121FEF768
:103110004DFA4EF28010CEF200004FF000710160C7
:10312000BFF34F8FBFF36F8F80BD00002DE9F047D5
:1031300040F2A52640F2EC1AC2F20006C2F2000AE2
:1031400030789AF8001040F23F278842C2F2000718
:1031500004D13878002818BFBDE8F08740F2521536
:10316000C2F200052878002840F23800C4F20000BE
:1031700020D040F24623C2F2000340F23B211B78EC
:10318000C2F2000101220A7003EB830149080181A8
:1031900040F24521C2F2000109784900018040F265
:1031A0004421C2F200010978C1EBC101C1F39C01C5
:1031B00008E000BF40F23B22C2F200020021117081
:1031C000018101808180307840F24D246A28C2F26A
:1031D000000400F23485DFE810F06B009700050171
:1031E0004701320532053205320532053205320516
:1031F0003205320532053205320532053205320517
:103200003205320532053205320532053205320506
:1032100032053205320532055B018501B101320507
:10322000DD01F7010F0227023F0259028302AF02BC
:10323000DB0229033F034F036B0381033205AD0318
:10324000D303F9031F0445046B043205320532052C
:1032500032053205320532053205320532053205B6
:1032600032053205320532053205320532053205A6
:103270003205320532053205320532053205320596
:103280003205320532053205320532053205320586
:103290003205320532053205320532053205320576
:1032A00032059104A704BD04D304E904FF04150505
:1032B000FDF796FA40F23D29C2F2000940F20425DA
:1032C00099F80020C2F200050FF6FC112846FCF721
:1032D000A9FF40F24D28C2F20008404629460222CA
:1032E000FDF7DBF8FF2089F8000000200021FDF742
:1032F000D1FA40461521FDF7B9FA30788AF8000076
:103300000120387000F09BBC46F2AA01C0F6000113
:1033100020461522FDF7C1F804F1150846F2950183
:10332000C0F6000140461522FDF7B7F840F24620EE
:10333000C2F2000040F2FA1546F279290278C2F290
:103340000005C0F6000928464946FCF76BFFE01C63
:1033500029460322FDF7A1F840F24520C2F2000001
:1033600040F2F6150278C2F2000528464946FCF7FD
:1033700059FF04F1090029460322FDF78EF840F2B7
:103380004420C2F2000040F2F2150278C2F20005B9
:1033900028464946FCF746FF04F10F002946032260
:1033A000FDF77BF800200021FDF774FA2046152177
:1033B000FDF75CFA00200121FDF76CFA404615216B
:1033C000FDF754FA40F24B20C2F200000078317849
:1033D00000288AF800100CBF1F202820307000F051
:1033E0002EBC00BF012004F1150746F2E901287048
:1033F000C0F6000138461522FDF74FF840F238209C
:10340000C2F2000040F239180288C2F2000846F207
:103410007E21C0F600014046FCF704FF04F11A00CB
:1034200041460522FDF739F828786FF0630100283E
:1034300008BF6FF0640184F82010002001210025EE
:10344000FDF728FA38461521FDF710FA40F24B2017
:10345000C2F20000017800290EBF242005702D2043
:10346000307000F0ECBB00BF20202070A0712073F2
:10347000A07400200021FDF70DFA20461521FDF76C
:10348000F5F930788AF800002E203070D7E300BFBD
:103490005B2040F2462120705D20C2F2000140F224
:1034A000FA15A07120200A78C2F2000546F27921AF
:1034B0002073A074C0F600012846FCF7B3FEE01CA0
:1034C00029460322FCF7E9FF00200021FDF7E2F97D
:1034D00020461521FDF7CAF930788AF8000001204E
:1034E0003870ACE35B21A1715D21217340F245216D
:1034F000C2F2000140F2F61520200A78C2F200055F
:1035000046F279212070A074C0F600012846FCF72D
:1035100089FE04F1090029460322FCF7BEFF0020C2
:103520000021FDF7B7F920461521FDF79FF9317805
:10353000012038708AF8001081E300BF202040F29B
:1035400044212070A0715B20C2F2000140F2F2150C
:1035500020735D200A78C2F2000546F27921A0743A
:10356000C0F600012846FCF75DFE04F10F00294675
:103570000322FCF792FF00200021FDF78BF9204683
:103580001521FDF773F93178012038708AF80010A1
:1035900055E300BF04F1150546F21311C0F6000112
:1035A00028461522FCF779FF002001214FF0010881
:1035B000FDF770F928461521FDF758F9307887F89E
:1035C00000808AF800003AE3902084F8220020204E
:1035D00084F824000020012104F115054FF00108B2
:1035E000FDF758F928461521FDF740F9307887F89E
:1035F00000808AF8000022E3992084F8220020202D
:1036000084F824000020012104F115054FF0010881
:10361000FDF740F928461521FDF728F9307887F89D
:1036200000808AF800000AE3902084F822003C2001
:1036300084F824000020012104F115054FF0010851
:10364000FDF728F928461521FDF710F9307887F89D
:1036500000808AF80000F2E204F1150546F2FE014E
:10366000C0F6000128461522FCF717FF00200121B3
:103670004FF00108FDF70EF928461521FDF7F6F881
:10368000307887F800808AF80000D8E25B2040F2AA
:10369000462120705D20C2F2000140F2FA15A071AF
:1036A00020200A78C2F2000546F279212073A07426
:1036B000C0F600012846FCF7B5FDE01C29460322B0
:1036C000FCF7EBFE00200021FDF7E4F82046152171
:1036D000FDF7CCF83178012038708AF80010AEE29E
:1036E0005B21A1715D21217340F24521C2F20001ED
:1036F00040F2F61520200A78C2F2000546F2792140
:103700002070A074C0F600012846FCF78BFD04F180
:10371000090029460322FCF7C0FE00200021FDF726
:10372000B9F820461521FDF7A1F83178012038704D
:103730008AF8001083E200BF202040F2442120706C
:10374000A0715B20C2F2000140F2F21520735D20EF
:103750000A78C2F2000546F27921A074C0F6000191
:103760002846FCF75FFD04F10F0029460322FCF711
:1037700094FE00200021FDF78DF820461521FDF76D
:1037800075F83178012038708AF8001057E200BFD0
:10379000FFF766FCFFF784FC40F21220C2F2000043
:1037A0000021017040F27920C2F20000017040F265
:1037B0001320C2F200004FF0010880F8008040F2B0
:1037C0007A20C2F2000080F80080FFF75FFC04F16D
:1037D000150546F2D401C0F6000128461522FCF773
:1037E0005CFE00200121FDF755F828461521FDF764
:1037F0003DF840F23820C2F2000040F2391502884C
:10380000C2F2000546F27E21C0F600012846FCF710
:1038100009FD04F1210029460522FCF73EFE30781F
:1038200087F800808AF8000009E200BF04F115055E
:1038300046F22811C0F6000128461522FCF72DFE9D
:1038400000200121FDF726F828461521FDF70EF886
:1038500030788AF80000F2E12A2084F82200002063
:10386000012104F115050126FDF714F8284615215C
:10387000FCF7FCFF3E70E2E140F24810C2F20000AB
:103880000078002800F0D48104F1150546F2BF014C
:10389000C0F6000128461522FCF7FFFD002001219B
:1038A000FCF7F8FF28461521FCF7E0FFC5E100BF53
:1038B00004F1150546F23921C0F60001284615220B
:1038C000FCF7EBFD002001210126FCF7E3FF284671
:1038D0001521FCF7CBFF3E70B1E100BF40F238216B
:1038E0009020C2F2000140F2391584F82200202015
:1038F0000A88C2F2000546F27E2184F82400C0F650
:103900000001284604F11508FCF78CFC04F11A00AC
:1039100029460522FCF7C1FD002001210125FCF705
:10392000B9FF40461521FCF7A1FF30783D708AF8B9
:10393000000084E146F23D11C0F600012046152248
:10394000FCF7ABFD04F1150546F29111C0F600013C
:1039500028461522FCF7A1FD00200021FCF79AFF64
:1039600020461521FCF782FF00200121FCF792FF81
:1039700028461521FCF77AFF30788AF800005EE1CE
:1039800046F2A611C0F6000120461522FCF785FD7F
:1039900004F1150546F2BB11C0F6000128461522B8
:1039A000FCF77BFD00200021FCF774FF2046152169
:1039B000FCF75CFF00200121FCF76CFF2846152175
:1039C000FCF754FF30788AF8000038E146F2D01155
:1039D000C0F6000120461522FCF75FFD04F1150535
:1039E00046F2E511C0F6000128461522FCF755FD08
:1039F00000200021FCF74EFF20461521FCF736FF82
:103A000000200121FCF746FF28461521FCF72EFF78
:103A100030788AF8000012E146F2FA11C0F600018F
:103A200020461522FCF739FD04F1150546F20F2159
:103A3000C0F6000128461522FCF72FFD00200021CA
:103A4000FCF728FF20461521FCF710FF002001217C
:103A5000FCF720FF28461521FCF708FF30788AF88C
:103A60000000ECE046F22421C0F6000120461522B9
:103A7000FCF713FD04F1150546F25211C0F60001E2
:103A800028461522FCF709FD00200021FCF702FF63
:103A900020461521FCF7EAFE00200121FCF7FAFE82
:103AA00028461521FCF7E2FE30788AF80000C6E0CF
:103AB00046F26711C0F6000120461522FCF7EDFC26
:103AC00004F1150546F27C11C0F6000128461522C6
:103AD000FCF7E3FC00200021FCF7DCFE204615216A
:103AE000FCF7C4FE00200121FCF7D4FE2846152176
:103AF000FCF7BCFE30788AF80000A0E004F1150560
:103B000046F28001C0F6000128461522FCF7C5FCEC
:103B100000200121FCF7BEFE28461521FCF7A6FE79
:103B200030788AF800008AE004F1150546F21701A2
:103B3000C0F6000128461522FCF7AFFC0020012149
:103B4000FCF7A8FE28461521FCF790FE30788AF88D
:103B5000000074E004F1150546F25601C0F60001BC
:103B600028461522FCF799FC00200121FCF792FE63
:103B700028461521FCF77AFE30788AF800005EE0CE
:103B800004F1150546F26B01C0F600012846152226
:103B9000FCF783FC00200121FCF77CFE2846152160
:103BA000FCF764FE30788AF8000048E004F115055F
:103BB00046F20201C0F6000128461522FCF76DFC12
:103BC00000200121FCF766FE28461521FCF74EFE79
:103BD00030788AF8000032E004F1150546F2410120
:103BE000C0F6000128461522FCF757FC00200121F1
:103BF000FCF750FE28461521FCF738FE30788AF88D
:103C000000001CE004F1150546F22C01C0F600018D
:103C100028461522FCF741FC00200121FCF73AFE62
:103C200028461521FCF722FE30788AF8000006E0CD
:103C30002E208AF800002F2030700120387040F2CA
:103C40005010C2F20000008840F2E611C2F20001FA
:103C5000088040F26210C2F20000008840F2E811D1
:103C6000C2F20001088040F2FE10C2F2000000889B
:103C700040F2E411C2F20001088040F2E010C2F20A
:103C80000000008840F2E211C2F20001088040F218
:103C9000A020C2F20000008840F2EA11C2F2000146
:103CA000088000200021FCF7F5FD20461521FCF7D7
:103CB000DDFD00200121FCF7EDFD04F115001521CB
:103CC000BDE8F047FCF7D2BD2530326400000000AB
:103CD00080B5FEF799FC002818BF80BD40F2540063
:103CE000C2F2000090F8E41001B180BD012180F81B
:103CF000E410FEF7A7FC014643F60000C4F2010001
:103D0000BDE88040FDF73EBE2DE9F04700200021D0
:103D1000FCF7C0FD44F6A678C0F600084046152121
:103D2000FCF7A4FD3220FEF74DFC00200021FCF73B
:103D3000B1FD44F6BB79C0F6000948461521FCF7F1
:103D400095FD3220FEF73EFC00200021FCF7A2FD8D
:103D500044F6D07AC0F6000A50461521FCF786FDDD
:103D60003220FEF72FFC00200021FCF793FD44F6E3
:103D7000E574C0F6000420461521FCF777FD3220DB
:103D8000FEF720FC00200021FCF784FD44F6FA75C4
:103D9000C0F6000528461521FCF768FD3220FEF725
:103DA00011FC00200021FCF775FD45F20F07C0F65D
:103DB000000738461521FCF759FD3220FEF702FCBA
:103DC00000200021FCF766FD45F22400C0F600004B
:103DD0001521FCF74BFD00200121FCF75BFD40F2B3
:103DE0000006C2F2000630461521FCF73FFD40F206
:103DF000B630FEF7E7FB00200021FCF74BFD38460C
:103E00001521FCF733FD3220FEF7DCFB00200021FA
:103E1000FCF740FD28461521FCF728FD3220FEF76F
:103E2000D1FB00200021FCF735FD20461521FCF7D1
:103E30001DFD3220FEF7C6FB00200021FCF72AFD05
:103E400050461521FCF712FD3220FEF7BBFB002087
:103E50000021FCF71FFD48461521FCF707FD322025
:103E6000FEF7B0FB00200021FCF714FD40461521B1
:103E7000FCF7FCFC4FF49670FEF7A4FB0020002139
:103E8000FCF708FDFCF7BEFC00200021FCF702FD5A
:103E900006F12A001521FCF7E9FC00200121FCF7BE
:103EA000F9FC06F115001521FCF7E0FC40F2E240B8
:103EB000FEF788FB00200121FCF7ECFC06F13F0037
:103EC0001521FCF7D3FC40F2DC50BDE8F047FEF7CB
:103ED00079BB30380A2801D2012070470020704792
:103EE00004000008000000000000000200010000C3
:103EF000100204060800000000010203040102038E
:103F00000406070809000102030405060708090A58
:103F10000B0C0D0E0F101112131415161718191A79
:103F20001B1C1D1E1F202122232425262728292A69
:103F30002B2C2D2E2F303132333435363738393A59
:103F40003B3C3D3E3F404142434445464748494A49
:103F50004B4C4D4E4F505152535455565758595A39
:103F60005B5C5D5E5F606162636465666768696A29
:103F70006B6C6D6E6F707172737475767778797A19
:103F80007B7C7D7E7F898182838485868788898A00
:103F90008B8C8D8E8FCDCCB9DBFBFEFD005E7FDB85
:103FA000B0B1B20000B5C6000000000000F0000093
:103FB00000000000000000000000000000F1FCBA5A
:103FC0000000000000808182838485868788898A3A
:103FD0008B8C8D8E8F909192939495969798999AB9
:103FE0009B9C9D9E9FA0A1A2A3A4A5A6A7A8A9AAA9
:103FF000ABACADAEAFE0E1E2E3E4E5E6E7E8E9EA89
:10400000EBECEDEEEF00441A3D1A361A301A291A7D
:10401000221A1C1A151A0E1A081A011AFA19F4197A
:10402000ED19E719E019D919D319CC19C619BF1917
:10403000B819B219AB19A5199E19971991198A19AE
:1040400084197D1977197019691963195C19561942
:104050004F19491942193C1935192F1928192219D4
:104060001B1915190E1908190119FB18F418EE1867
:10407000E718E118DA18D418CD18C718C018BA18FC
:10408000B318AD18A618A018991893188D1886188B
:104090008018791873186C18661860185918531816
:1040A0004C1846184018391833182C1826182018A0
:1040B000191813180C1806180018F917F317ED172C
:1040C000E617E017DA17D317CD17C717C017BA17B7
:1040D000B417AD17A717A1179A1794178E1787173C
:1040E00081177B1774176E17681762175B175517C0
:1040F0004F17481742173C1736172F172917231742
:104100001D17161710170A170417FD16F716F116C4
:10411000EB16E516DE16D816D216CC16C616BF1646
:10412000B916B316AD16A716A0169A1694168E16C3
:10413000881682167B1675166F16691663165D163D
:10414000561650164A1644163E16381632162C16B7
:1041500025161F16191613160D1607160116FB1530
:10416000F515EF15E815E215DC15D615D015CA15AD
:10417000C415BE15B815B215AC15A615A0159A151F
:1041800094158E15881582157C15761570156A158F
:1041900064155E15581552154C15461540153A15FF
:1041A00034152E15281522151C15161510150A156F
:1041B0000415FE14F814F214EC14E614E014DA14E6
:1041C000D414CE14C814C314BD14B714B114AB1452
:1041D000A5149F14991493148D14881482147C14BC
:1041E000761470146A1464145E14591453144D1424
:1041F000471441143B14361430142A1424141E148A
:10420000181413140D1407140114FB13F613F013F0
:10421000EA13E413DE13D913D313CD13C713C11359
:10422000BC13B613B013AA13A5139F1399139313BA
:104230008E13881382137C13771371136B13661319
:1042400060135A1354134F13491343133E13381377
:1042500032132D13271321131C13161310130B13D2
:104260000513FF12FA12F412EE12E912E312DD1234
:10427000D812D212CC12C712C112BC12B612B0128E
:10428000AB12A512A0129A1294128F1289128412E4
:104290007E12781273126D12681262125D1257123A
:1042A00051124C12461241123B12361230122B128E
:1042B000251220121A1215120F120A120412FF11DF
:1042C000F911F411EE11E911E311DE11D811D31136
:1042D000CD11C811C211BD11B711B211AC11A71186
:1042E000A1119C11971191118C11861181117B11D3
:1042F000761171116B11661160115B11561150111D
:104300004B11451140113B11351130112A11251166
:1043100020111A11151110110A1105110011FA10AE
:10432000F510F010EA10E510E010DA10D510D010FA
:10433000CA10C510C010BA10B510B010AA10A51040
:10434000A0109B10951090108B10851080107B1082
:10435000761070106B10661061105B1056105110C3
:104360004C10461041103C10371032102C10271002
:1043700022101D10181012100D1008100310FE0F3F
:10438000F80FF30FEE0FE90FE40FDF0FD90FD40F83
:10439000CF0FCA0FC50FC00FBA0FB50FB00FAB0FBD
:1043A000A60FA10F9C0F970F910F8C0F870F820FF5
:1043B0007D0F780F730F6E0F690F640F5E0F590F2B
:1043C000540F4F0F4A0F450F400F3B0F360F310F61
:1043D0002C0F270F220F1D0F180F130F0E0F090F91
:1043E000040FFF0EFA0EF50EF00EEB0EE60EE10EC8
:1043F000DC0ED70ED20ECD0EC80EC30EBE0EB90EF9
:10440000B40EAF0EAA0EA50EA00E9B0E960E910E28
:104410008C0E870E820E7D0E780E730E6E0E6A0E57
:10442000650E600E5B0E560E510E4C0E470E420E80
:104430003D0E390E340E2F0E2A0E250E200E1B0EA9
:10444000160E120E0D0E080E030EFE0DF90DF50DD3
:10445000F00DEB0DE60DE10DDC0DD80DD30DCE0DFD
:10446000C90DC40DC00DBB0DB60DB10DAC0DA80D21
:10447000A30D9E0D990D940D900D8B0D860D810D44
:104480007D0D780D730D6E0D6A0D650D600D5B0D64
:10449000570D520D4D0D490D440D3F0D3A0D360D82
:1044A000310D2C0D280D230D1E0D1A0D150D100D9F
:1044B0000C0D070D020DFE0CF90CF40CF00CEB0CBE
:1044C000E60CE20CDD0CD80CD40CCF0CCA0CC60CDC
:1044D000C10CBD0CB80CB30CAF0CAA0CA60CA10CF3
:1044E0009C0C980C930C8F0C8A0C850C810C7C0C0A
:1044F000780C730C6F0C6A0C650C610C5C0C580C1E
:10450000530C4F0C4A0C460C410C3D0C380C340C2F
:104510002F0C2B0C260C220C1D0C190C140C100C3F
:104520000B0C070C020CFE0BF90BF50BF00BEC0B54
:10453000E70BE30BDE0BDA0BD50BD10BCD0BC80B66
:10454000C40BBF0BBB0BB60BB20BAE0BA90BA50B71
:10455000A00B9C0B980B930B8F0B8A0B860B820B7B
:104560007D0B790B740B700B6C0B670B630B5F0B84
:104570005A0B560B520B4D0B490B450B400B3C0B8A
:10458000380B330B2F0B2B0B260B220B1E0B190B8F
:10459000150B110B0C0B080B040B000BFB0AF70A95
:1045A000F30AEE0AEA0AE60AE20ADD0AD90AD50A9D
:1045B000D10ACC0AC80AC40AC00ABB0AB70AB30A9D
:1045C000AF0AAB0AA60AA20A9E0A9A0A960A910A9A
:1045D0008D0A890A850A810A7C0A780A740A700A97
:1045E0006C0A680A630A5F0A5B0A570A530A4F0A91
:1045F0004A0A460A420A3E0A3A0A360A320A2E0A8B
:10460000290A250A210A1D0A190A150A110A0D0A82
:10461000090A050A000AFC09F809F409F009EC097D
:10462000E809E409E009DC09D809D409D009CC0972
:10463000C809C409C009BC09B809B409B009AC0962
:10464000A809A409A0099C099809940990098C0952
:104650008809840980097C097809740970096C0942
:104660006809640960095C095809540950094C0932
:104670004809440940093D093909350931092D091D
:104680002909250921091D091909160912090E0907
:104690000A0906090209FE08FA08F708F308EF08F4
:1046A000EB08E708E308E008DC08D808D408D008DD
:1046B000CC08C908C508C108BD08B908B608B208C1
:1046C000AE08AA08A608A3089F089B0897089308A5
:1046D00090088C088808840881087D087908750886
:1046E00072086E086A08660863085F085B08580865
:1046F000540850084C084908450841083E083A0843
:10470000360833082F082B082808240820081D081D
:104710001908150812080E080A0807080308FF07F9
:10472000FC07F807F407F107ED07EA07E607E207D9
:10473000DF07DB07D807D407D007CD07C907C607AF
:10474000C207BE07BB07B707B407B007AD07A90785
:10475000A507A2079E079B079707940790078D0759
:104760008907860782077F077B0778077407710729
:104770006D076A07660763075F075C0758075507F9
:1047800051074E074A074707430740073C073907C9
:10479000350732072F072B072807240721071D0796
:1047A0001A071707130710070C0709070607020760
:1047B000FF06FB06F806F506F106EE06EA06E70632
:1047C000E406E006DD06DA06D606D306D006CC06F9
:1047D000C906C606C206BF06BC06B806B506B206BE
:1047E000AE06AB06A806A406A1069E069A06970684
:1047F000940691068D068A068706830680067D0646
:104800007A067606730670066D0669066606630606
:1048100060065C0659065606530650064C064906C5
:104820004606430640063C06390636063306300681
:104830002C0629062606230620061D06190616063E
:10484000130610060D060A06060603060006FD05F9
:10485000FA05F705F405F105ED05EA05E705E405B8
:10486000E105DE05DB05D805D505D205CE05CB056E
:10487000C805C505C205BF05BC05B905B605B30524
:10488000B005AD05AA05A705A405A1059E059B05D4
:104890009805950592058F058C0589058605830584
:1048A00080057D057A057705740571056E056B0534
:1048B0006805650562055F055C05590556055305E4
:1048C00050054D054A054705440541053E053C0593
:1048D00039053605330530052D052A05270524053C
:1048E00021051F051C0519051605130510050D05E5
:1048F0000A05080505050205FF04FC04F904F70490
:10490000F404F104EE04EB04E804E604E304E00438
:10491000DD04DA04D804D504D204CF04CC04CA04DC
:10492000C704C404C104BE04BC04B904B604B3047F
:10493000B104AE04AB04A804A604A304A0049D041F
:104940009B0498049504930490048D048A048804BD
:104950008504820480047D047A047804750472045A
:1049600070046D046A0468046504620460045D04F4
:104970005A0458045504520450044D044A0448048F
:104980004504430440043D043B0438043604330426
:1049900030042E042B0429042604230421041E04BD
:1049A0001C0419041704140411040F040C040A0451
:1049B0000704050402040004FD03FB03F803F603E7
:1049C000F303F103EE03EC03E903E703E403E2037B
:1049D000DF03DD03DA03D803D503D303D003CE030B
:1049E000CB03C903C603C403C103BF03BD03BA039A
:1049F000B803B503B303B003AE03AC03A903A70325
:104A0000A403A203A0039D039B03980396039403AE
:104A100091038F038C038A03880385038303810337
:104A20007E037C037A0377037503730370036E03BD
:104A30006C03690367036503620360035E035B0342
:104A4000590357035403520350034E034B034903C6
:104A500047034403420340033E033B033903370348
:104A60003503320330032E032C03290327032503C8
:104A7000230321031E031C031A0318031603130345
:104A800011030F030D030B030803060304030203C2
:104A90000003FE02FB02F902F702F502F302F10243
:104AA000EE02EC02EA02E802E602E402E202E002BE
:104AB000DD02DB02D902D702D502D302D102CF0236
:104AC000CD02CB02C802C602C402C202C002BE02AC
:104AD000BC02BA02B802B602B402B202B002AE021E
:104AE000AC02AA02A802A602A402A202A0029E028E
:104AF0009C029A02980296029402920290028E02FE
:104B00008C028A02880286028402820280027E026D
:104B10007C027A02780276027402720270026E02DD
:104B20006C026A02680267026502630261025F0248
:104B30005D025B02590257025502540252025002B2
:104B40004E024C024A02480246024502430241021A
:104B50003F023D023B023A02380236023402320280
:104B600030022F022D022B022902270226022402E4
:104B7000220220021E021D021B0219021702150248
:104B80001402120210020E020D020B0209020702A9
:104B90000602040202020002FF01FD01FB01FA010C
:104BA000F801F601F401F301F101EF01EE01EC016E
:104BB000EA01E901E701E501E401E201E001DF01C9
:104BC000DD01DB01DA01D801D601D501D301D10124
:104BD000D001CE01CC01CB01C901C801C601C4017D
:104BE000C301C101C001BE01BC01BB01B901B801D3
:104BF000B601B401B301B101B001AE01AD01AB0129
:104C0000A901A801A601A501A301A201A0019F017C
:104C10009D019C019A0199019701960194019301CC
:104C2000910190018E018D018B018A01880187011C
:104C300085018401820181017F017E017C017B016C
:104C400079017801770175017401720171016F01B9
:104C50006E016D016B016A01680167016601640103
:104C60006301610160015F015D015C015A0159014D
:104C700058015601550154015201510150014E0194
:104C80004D014C014A0149014801460145014401D9
:104C90004201410140013E013D013C013A0139011F
:104CA00038013701350134013301310130012F0161
:104CB0002E012C012B012A012901270126012501A2
:104CC00024012201210120011F011E011C011B01E1
:104CD0001A0119011801160115011401130112011D
:104CE00010010F010E010D010C010B01090108015A
:104CF0000701060105010401020101010001FF0095
:104D0000FE00FD00FC00FB00F900F800F700F600D3
:104D1000F500F400F300F200F100F000EE00ED0009
:104D2000EC00EB00EA00E900E800E700E600E5003F
:104D3000E400E300E200E100E000DF00DE00DD006F
:104D4000DC00DB00DA00D900D800D700D600D5009F
:104D5000D400D300D200D100D000CF00CE00CD00CF
:104D6000CC00CB00CA00C900C800C700C600C500FF
:104D7000C400C300C200C100C000BF00BE00BE002E
:104D8000BD00BC00BB00BA00B900B800B700B60057
:104D9000B500B500B400B300B200B100B000AF0080
:104DA000AE00AE00AD00AC00AB00AA00A900A900A7
:104DB000A800A700A600A500A400A400A300A200CC
:104DC000A100A000A0009F009E009D009C009C00F0
:104DD0009B009A0099009800980097009600950013
:104DE00095009400930092009200910090008F0033
:104DF0008F008E008D008D008C008B008A008A0051
:104E0000890088008800870086008600850084006D
:104E100084008300820082008100800080007F0087
:104E20007E007E007D007C007C007B007A007A00A2
:104E300079007900780077007700760076007500B9
:104E400074007400730073007200710071007000D0
:104E500070006F006F006E006D006D006C006C00E4
:104E60006B006B006A006A006900690068006800F6
:104E70006700670066006600650065006400640006
:104E80006300630062006200610061006000600016
:104E90005F005F005E005E005D005D005D005C0025
:104EA0005C005B005B005A005A005A005900590030
:104EB000580058005800570057005600560056003A
:104EC0005500550054005400540053005300530043
:104ED0005200520052005100510051005000500049
:104EE00050004F004F004F004E004E004E004D004E
:104EF0004D004D004C004C004C004C004B004B0052
:104F00004B004A004A004A004A0049004900490053
:104F10004900480048004800480047004700470053
:104F20004700470046004600460046004600450050
:104F3000450045004500450044004400440044004D
:104F40004400440043004300430043004300430047
:104F50004200420042004200420042004200420041
:104F60004100410041004100410041004100410039
:104F7000410041004000400040004000400040002F
:104F80004000400040004000400040004000400021
:104F90004000400040004000400040004000400011
:104FA000400040004000202020202020CBF3F72D9F
:104FB000312D33352020202020202020202020BA11
:104FC00020CBF3F72D312D333520BA20202020209F
:104FD000202020209220CBF3F72D312D3335209146
:104FE0002020202020202020909220CBF3F72D316C
:104FF0002D33352091902020202020209090922049
:10500000CBF3F72D312D33352091909020202020A7
:105010009090909220CBF3F72D312D333520919045
:1050200090902020909090909220CBF3F72D312DEE
:105030003335209190909090900001000200040080
:10504000060008000A000C000E00120016001A00EC
:105050001E00220026002A002E0034003A004000E4
:10506000460040004000400040004000400040003A
:105070004000400040004000400040004000400030
:105080004000400040004000400040004000400020
:10509000400040004100410041004100410041000A
:1050A00041004100410041004200420042004200F4
:1050B00042004200420042004300430043004300DC
:1050C00043004300440044004400440044004400C2
:1050D00045004500450045004500460046004600A5
:1050E0004600460047004700470047004700480089
:1050F00048004800480049004900490049004A006A
:105100004A004A004A004B004B004B004C004C0048
:105110004C004C004D004D004D004E004E004E0026
:105120004F004F004F005000500050005100510000
:1051300051005200520052005300530053005400DB
:1051400054005400550055005600560056005700B4
:105150005700580058005800590059005A005A008A
:105160005A005B005B005C005C005D005D005D0060
:105170005E005E005F005F00600060006100610033
:105180006200620063006300640064006500650003
:1051900066006600670067006800680069006900D3
:1051A0006A006A006B006B006C006C006D006D00A3
:1051B0006E006F006F00700070007100710072006F
:1051C0007300730074007400750076007600770039
:1051D00077007800790079007A007A007B007C0003
:1051E0007C007D007E007E007F00800080008100CA
:1051F000820082008300840084008500860086008F
:1052000087008800880089008A008A008B008C0053
:105210008D008D008E008F008F0090009100920015
:1052200092009300940095009500960097009800D6
:10523000980099009A009B009C009C009D009E0095
:105240009F00A000A000A100A200A300A400A40051
:10525000A500A600A700A800A900A900AA00AB000D
:10526000AC00AD00AE00AE00AF00B000B100B200C7
:10527000B300B400B500B500B600B700B800B9007F
:10528000BA00BB00BC00BD00BE00BE00BF00C00035
:10529000C100C200C300C400C500C600C700C800EA
:1052A000C900CA00CB00CC00CD00CE00CF00D0009A
:1052B000D100D200D300D400D500D600D700D8004A
:1052C000D900DA00DB00DC00DD00DE00DF00E000FA
:1052D000E100E200E300E400E500E600E700E800AA
:1052E000E900EA00EB00EC00ED00EE00F000F10058
:1052F000F200F300F400F500F600F700F800F90002
:10530000FB00FC00FD00FE00FF00000101010201A6
:105310000401050106010701080109010B010C0147
:105320000D010E010F0110011201130114011501ED
:105330001601180119011A011B011C011E011F0190
:105340002001210122012401250126012701290133
:105350002A012B012C012E012F01300131013301D3
:10536000340135013701380139013A013C013D0171
:105370003E0140014101420144014501460148010D
:1053800049014A014C014D014E01500151015201A8
:10539000540155015601580159015A015C015D0142
:1053A0005F016001610163016401660167016801D9
:1053B0006A016B016D016E016F017101720174016F
:1053C00075017701780179017B017C017E017F0104
:1053D0008101820184018501870188018A018B0195
:1053E0008D018E0190019101930194019601970125
:1053F00099019A019C019D019F01A001A201A301B5
:10540000A501A601A801A901AB01AD01AE01B00142
:10541000B101B301B401B601B801B901BB01BC01CE
:10542000BE01C001C101C301C401C601C801C90157
:10543000CB01CC01CE01D001D101D301D501D601E0
:10544000D801DA01DB01DD01DF01E001E201E40165
:10545000E501E701E901EA01EC01EE01EF01F101EB
:10546000F301F401F601F801FA01FB01FD01FF016E
:105470000002020204020602070209020B020D02E8
:105480000E021002120214021502170219021B0268
:105490001D021E02200222022402260227022902E5
:1054A0002B022D022F023002320234023602380261
:1054B0003A023B023D023F024102430245024602DC
:1054C00048024A024C024E02500252025402550255
:1054D000570259025B025D025F02610263026502CC
:1054E000670268026A026C026E0270027202740243
:1054F000760278027A027C027E02800282028402B4
:10550000860288028A028C028E0290029202940223
:10551000960298029A029C029E02A002A202A40293
:10552000A602A802AA02AC02AE02B002B202B40203
:10553000B602B802BA02BC02BE02C002C202C40273
:10554000C602C802CB02CD02CF02D102D302D502DD
:10555000D702D902DB02DD02E002E202E402E60247
:10556000E802EA02EC02EE02F102F302F502F702AF
:10557000F902FB02FE020003020304030603080310
:105580000B030D030F0311031303160318031A0370
:105590001C031E03210323032503270329032C03D4
:1055A0002E03300332033503370339033B033E0335
:1055B000400342034403470349034B034E03500394
:1055C00052035403570359035B035E0360036203F2
:1055D0006503670369036C036E037003730375034C
:1055E00077037A037C037E038103830385038803A7
:1055F0008A038C038F0391039403960398039B0300
:105600009D03A003A203A403A703A903AC03AE0355
:10561000B003B303B503B803BA03BD03BF03C103AB
:10562000C403C603C903CB03CE03D003D303D503FE
:10563000D803DA03DD03DF03E203E403E703E9034E
:10564000EC03EE03F103F303F603F803FB03FD039E
:1056500000040204050407040A040C040F041104E6
:105660001404170419041C041E0421042304260432
:1056700029042B042E0430043304360438043B047C
:105680003D0440044304450448044A044D045004C6
:105690005204550458045A045D046004620465040D
:1056A00068046A046D0470047204750478047A0452
:1056B0007D0480048204850488048A048D04900497
:1056C0009304950498049B049D04A004A304A604D9
:1056D000A804AB04AE04B104B304B604B904BC041A
:1056E000BE04C104C404C704CA04CC04CF04D20459
:1056F000D504D804DA04DD04E004E304E604E80495
:10570000EB04EE04F104F404F704F904FC04FF04D0
:105710000205050508050A050D0510051305160502
:1057200019051C051F052105240527052A052D053A
:1057300030053305360539053C053E054105440570
:1057400047054A054D0550055305560559055C05A5
:105750005F056205650568056B056E0571057405D5
:1057600077057A057D0580058305860589058C0505
:105770008F059205950598059B059E05A105A40535
:10578000A705AA05AD05B005B305B605B905BC0565
:10579000BF05C205C505C805CB05CE05D205D50593
:1057A000D805DB05DE05E105E405E705EA05ED05BD
:1057B000F105F405F705FA05FD05000603060606E2
:1057C0000A060D0610061306160619061D06200603
:1057D0002306260629062C06300633063606390629
:1057E0003C0640064306460649064C06500653064C
:1057F000560659065C0660066306660669066D066F
:105800007006730676067A067D068006830687068E
:105810008A068D069106940697069A069E06A106AC
:10582000A406A806AB06AE06B206B506B806BC06C8
:10583000BF06C206C606C906CC06D006D306D606E3
:10584000DA06DD06E006E406E706EA06EE06F106FD
:10585000F506F806FB06FF060207060709070C0710
:105860001007130717071A071D0721072407280722
:105870002B072F073207350739073C074007430737
:1058800047074A074E075107550758075C075F0748
:10589000630766076A076D077107740778077B0758
:1058A0007F078207860789078D0790079407970768
:1058B0009B079E07A207A507A907AD07B007B40776
:1058C000B707BB07BE07C207C607C907CD07D00782
:1058D000D407D807DB07DF07E207E607EA07ED078B
:1058E000F107F407F807FC07FF07030807080A0891
:1058F0000E081208150819081D0820082408280891
:105900002B082F08330836083A083E084108450896
:1059100049084C085008540858085B085F08630899
:1059200066086A086E087208750879087D0881089B
:10593000840888088C089008930897089B089F089B
:10594000A308A608AA08AE08B208B608B908BD0898
:10595000C108C508C908CC08D008D408D808DC0894
:10596000E008E308E708EB08EF08F308F708FA088F
:10597000FE08020906090A090E0912091609190981
:105980001D092109250929092D0931093509390977
:105990003D094009440948094C095009540958096E
:1059A0005C096009640968096C097009740978095F
:1059B0007C098009840988098C099009940998094F
:1059C0009C09A009A409A809AC09B009B409B8093F
:1059D000BC09C009C409C809CC09D009D409D8092F
:1059E000DC09E009E409E809EC09F009F409F8091F
:1059F000FC09000A050A090A0D0A110A150A190A02
:105A00001D0A210A250A290A2E0A320A360A3A0AEA
:105A10003E0A420A460A4A0A4F0A530A570A5B0AD2
:105A20005F0A630A680A6C0A700A740A780A7C0AB8
:105A3000810A850A890A8D0A910A960A9A0A9E0A9B
:105A4000A20AA60AAB0AAF0AB30AB70ABB0AC00A7F
:105A5000C40AC80ACC0AD10AD50AD90ADD0AE20A60
:105A6000E60AEA0AEE0AF30AF70AFB0A000B040B3D
:105A7000080B0C0B110B150B190B1E0B220B260B15
:105A80002B0B2F0B330B380B3C0B400B450B490BEF
:105A90004D0B520B560B5A0B5F0B630B670B6C0BCA
:105AA000700B740B790B7D0B820B860B8A0B8F0BA3
:105AB000930B980B9C0BA00BA50BA90BAE0BB20B79
:105AC000B60BBB0BBF0BC40BC80BCD0BD10BD50B4F
:105AD000DA0BDE0BE30BE70BEC0BF00BF50BF90B22
